{"abi":[{"inputs":[{"internalType":"string[]","name":"list","type":"string[]"},{"internalType":"string","name":"title","type":"string"}],"name":"createElection","outputs":[],"stateMutability":"nonpayable","type":"function"},{"inputs":[],"name":"getElection","outputs":[{"internalType":"address[]","name":"","type":"address[]"}],"stateMutability":"view","type":"function"}],"devdoc":{"kind":"dev","methods":{},"version":1},"evm":{"assembly":"    /* \"Devote.sol\":63:422  contract Devote {... */\n  mstore(0x40, 0x80)\n  callvalue\n  dup1\n  iszero\n  tag_1\n  jumpi\n  0x00\n  dup1\n  revert\ntag_1:\n  pop\n  dataSize(sub_0)\n  dup1\n  dataOffset(sub_0)\n  0x00\n  codecopy\n  0x00\n  return\nstop\n\nsub_0: assembly {\n        /* \"Devote.sol\":63:422  contract Devote {... */\n      mstore(0x40, 0x80)\n      callvalue\n      dup1\n      iszero\n      tag_1\n      jumpi\n      0x00\n      dup1\n      revert\n    tag_1:\n      pop\n      jumpi(tag_2, lt(calldatasize, 0x04))\n      shr(0xe0, calldataload(0x00))\n      dup1\n      0x67dc64c5\n      eq\n      tag_3\n      jumpi\n      dup1\n      0xeceed339\n      eq\n      tag_4\n      jumpi\n    tag_2:\n      0x00\n      dup1\n      revert\n        /* \"Devote.sol\":114:314  function createElection(string[] memory list, string memory title) public {... */\n    tag_3:\n      tag_5\n      0x04\n      dup1\n      calldatasize\n      sub\n      dup2\n      add\n      swap1\n      tag_6\n      swap2\n      swap1\n      tag_7\n      jump\t// in\n    tag_6:\n      tag_8\n      jump\t// in\n    tag_5:\n      stop\n        /* \"Devote.sol\":322:419  function getElection() public view returns (address[] memory) {... */\n    tag_4:\n      tag_9\n      tag_10\n      jump\t// in\n    tag_9:\n      mload(0x40)\n      tag_11\n      swap2\n      swap1\n      tag_12\n      jump\t// in\n    tag_11:\n      mload(0x40)\n      dup1\n      swap2\n      sub\n      swap1\n      return\n        /* \"Devote.sol\":114:314  function createElection(string[] memory list, string memory title) public {... */\n    tag_8:\n        /* \"Devote.sol\":199:219  Election newElection */\n      0x00\n        /* \"Devote.sol\":235:245  msg.sender */\n      caller\n        /* \"Devote.sol\":247:251  list */\n      dup4\n        /* \"Devote.sol\":253:258  title */\n      dup4\n        /* \"Devote.sol\":222:259  new Election(msg.sender, list, title) */\n      mload(0x40)\n      tag_14\n      swap1\n      tag_15\n      jump\t// in\n    tag_14:\n      tag_16\n      swap4\n      swap3\n      swap2\n      swap1\n      tag_17\n      jump\t// in\n    tag_16:\n      mload(0x40)\n      dup1\n      swap2\n      sub\n      swap1\n      0x00\n      create\n      dup1\n      iszero\n      dup1\n      iszero\n      tag_18\n      jumpi\n      returndatasize\n      0x00\n      dup1\n      returndatacopy\n      revert(0x00, returndatasize)\n    tag_18:\n      pop\n        /* \"Devote.sol\":199:259  Election newElection = new Election(msg.sender, list, title) */\n      swap1\n      pop\n        /* \"Devote.sol\":270:279  elections */\n      0x00\n        /* \"Devote.sol\":293:304  newElection */\n      dup2\n        /* \"Devote.sol\":270:306  elections.push(address(newElection)) */\n      swap1\n      dup1\n      0x01\n      dup2\n      sload\n      add\n      dup1\n      dup3\n      sstore\n      dup1\n      swap2\n      pop\n      pop\n      0x01\n      swap1\n      sub\n      swap1\n      0x00\n      mstore\n      keccak256(0x00, 0x20)\n      add\n      0x00\n      swap1\n      swap2\n      swap1\n      swap2\n      swap1\n      swap2\n      0x0100\n      exp\n      dup2\n      sload\n      dup2\n      0xffffffffffffffffffffffffffffffffffffffff\n      mul\n      not\n      and\n      swap1\n      dup4\n      0xffffffffffffffffffffffffffffffffffffffff\n      and\n      mul\n      or\n      swap1\n      sstore\n      pop\n        /* \"Devote.sol\":188:314  {... */\n      pop\n        /* \"Devote.sol\":114:314  function createElection(string[] memory list, string memory title) public {... */\n      pop\n      pop\n      jump\t// out\n        /* \"Devote.sol\":322:419  function getElection() public view returns (address[] memory) {... */\n    tag_10:\n        /* \"Devote.sol\":366:382  address[] memory */\n      0x60\n        /* \"Devote.sol\":402:411  elections */\n      0x00\n        /* \"Devote.sol\":395:411  return elections */\n      dup1\n      sload\n      dup1\n      0x20\n      mul\n      0x20\n      add\n      mload(0x40)\n      swap1\n      dup2\n      add\n      0x40\n      mstore\n      dup1\n      swap3\n      swap2\n      swap1\n      dup2\n      dup2\n      mstore\n      0x20\n      add\n      dup3\n      dup1\n      sload\n      dup1\n      iszero\n      tag_21\n      jumpi\n      0x20\n      mul\n      dup3\n      add\n      swap2\n      swap1\n      0x00\n      mstore\n      keccak256(0x00, 0x20)\n      swap1\n    tag_22:\n      dup2\n      0x00\n      swap1\n      sload\n      swap1\n      0x0100\n      exp\n      swap1\n      div\n      0xffffffffffffffffffffffffffffffffffffffff\n      and\n      0xffffffffffffffffffffffffffffffffffffffff\n      and\n      dup2\n      mstore\n      0x20\n      add\n      swap1\n      0x01\n      add\n      swap1\n      dup1\n      dup4\n      gt\n      tag_22\n      jumpi\n    tag_21:\n      pop\n      pop\n      pop\n      pop\n      pop\n      swap1\n      pop\n        /* \"Devote.sol\":322:419  function getElection() public view returns (address[] memory) {... */\n      swap1\n      jump\t// out\n    tag_15:\n      dataSize(sub_0)\n      dup1\n      dataOffset(sub_0)\n      dup4\n      codecopy\n      add\n      swap1\n      jump\t// out\n        /* \"#utility.yul\":7:82   */\n    tag_23:\n        /* \"#utility.yul\":40:46   */\n      0x00\n        /* \"#utility.yul\":73:75   */\n      0x40\n        /* \"#utility.yul\":67:76   */\n      mload\n        /* \"#utility.yul\":57:76   */\n      swap1\n      pop\n        /* \"#utility.yul\":7:82   */\n      swap1\n      jump\t// out\n        /* \"#utility.yul\":88:205   */\n    tag_24:\n        /* \"#utility.yul\":197:198   */\n      0x00\n        /* \"#utility.yul\":194:195   */\n      dup1\n        /* \"#utility.yul\":187:199   */\n      revert\n        /* \"#utility.yul\":211:328   */\n    tag_25:\n        /* \"#utility.yul\":320:321   */\n      0x00\n        /* \"#utility.yul\":317:318   */\n      dup1\n        /* \"#utility.yul\":310:322   */\n      revert\n        /* \"#utility.yul\":334:451   */\n    tag_26:\n        /* \"#utility.yul\":443:444   */\n      0x00\n        /* \"#utility.yul\":440:441   */\n      dup1\n        /* \"#utility.yul\":433:445   */\n      revert\n        /* \"#utility.yul\":457:559   */\n    tag_27:\n        /* \"#utility.yul\":498:504   */\n      0x00\n        /* \"#utility.yul\":549:551   */\n      0x1f\n        /* \"#utility.yul\":545:552   */\n      not\n        /* \"#utility.yul\":540:542   */\n      0x1f\n        /* \"#utility.yul\":533:538   */\n      dup4\n        /* \"#utility.yul\":529:543   */\n      add\n        /* \"#utility.yul\":525:553   */\n      and\n        /* \"#utility.yul\":515:553   */\n      swap1\n      pop\n        /* \"#utility.yul\":457:559   */\n      swap2\n      swap1\n      pop\n      jump\t// out\n        /* \"#utility.yul\":565:745   */\n    tag_28:\n        /* \"#utility.yul\":613:690   */\n      0x4e487b7100000000000000000000000000000000000000000000000000000000\n        /* \"#utility.yul\":610:611   */\n      0x00\n        /* \"#utility.yul\":603:691   */\n      mstore\n        /* \"#utility.yul\":710:714   */\n      0x41\n        /* \"#utility.yul\":707:708   */\n      0x04\n        /* \"#utility.yul\":700:715   */\n      mstore\n        /* \"#utility.yul\":734:738   */\n      0x24\n        /* \"#utility.yul\":731:732   */\n      0x00\n        /* \"#utility.yul\":724:739   */\n      revert\n        /* \"#utility.yul\":751:1032   */\n    tag_29:\n        /* \"#utility.yul\":834:861   */\n      tag_70\n        /* \"#utility.yul\":856:860   */\n      dup3\n        /* \"#utility.yul\":834:861   */\n      tag_27\n      jump\t// in\n    tag_70:\n        /* \"#utility.yul\":826:832   */\n      dup2\n        /* \"#utility.yul\":822:862   */\n      add\n        /* \"#utility.yul\":964:970   */\n      dup2\n        /* \"#utility.yul\":952:962   */\n      dup2\n        /* \"#utility.yul\":949:971   */\n      lt\n        /* \"#utility.yul\":928:946   */\n      0xffffffffffffffff\n        /* \"#utility.yul\":916:926   */\n      dup3\n        /* \"#utility.yul\":913:947   */\n      gt\n        /* \"#utility.yul\":910:972   */\n      or\n        /* \"#utility.yul\":907:995   */\n      iszero\n      tag_71\n      jumpi\n        /* \"#utility.yul\":975:993   */\n      tag_72\n      tag_28\n      jump\t// in\n    tag_72:\n        /* \"#utility.yul\":907:995   */\n    tag_71:\n        /* \"#utility.yul\":1015:1025   */\n      dup1\n        /* \"#utility.yul\":1011:1013   */\n      0x40\n        /* \"#utility.yul\":1004:1026   */\n      mstore\n        /* \"#utility.yul\":794:1032   */\n      pop\n        /* \"#utility.yul\":751:1032   */\n      pop\n      pop\n      jump\t// out\n        /* \"#utility.yul\":1038:1167   */\n    tag_30:\n        /* \"#utility.yul\":1072:1078   */\n      0x00\n        /* \"#utility.yul\":1099:1119   */\n      tag_74\n      tag_23\n      jump\t// in\n    tag_74:\n        /* \"#utility.yul\":1089:1119   */\n      swap1\n      pop\n        /* \"#utility.yul\":1128:1161   */\n      tag_75\n        /* \"#utility.yul\":1156:1160   */\n      dup3\n        /* \"#utility.yul\":1148:1154   */\n      dup3\n        /* \"#utility.yul\":1128:1161   */\n      tag_29\n      jump\t// in\n    tag_75:\n        /* \"#utility.yul\":1038:1167   */\n      swap2\n      swap1\n      pop\n      jump\t// out\n        /* \"#utility.yul\":1173:1494   */\n    tag_31:\n        /* \"#utility.yul\":1260:1264   */\n      0x00\n        /* \"#utility.yul\":1350:1368   */\n      0xffffffffffffffff\n        /* \"#utility.yul\":1342:1348   */\n      dup3\n        /* \"#utility.yul\":1339:1369   */\n      gt\n        /* \"#utility.yul\":1336:1392   */\n      iszero\n      tag_77\n      jumpi\n        /* \"#utility.yul\":1372:1390   */\n      tag_78\n      tag_28\n      jump\t// in\n    tag_78:\n        /* \"#utility.yul\":1336:1392   */\n    tag_77:\n        /* \"#utility.yul\":1422:1426   */\n      0x20\n        /* \"#utility.yul\":1414:1420   */\n      dup3\n        /* \"#utility.yul\":1410:1427   */\n      mul\n        /* \"#utility.yul\":1402:1427   */\n      swap1\n      pop\n        /* \"#utility.yul\":1482:1486   */\n      0x20\n        /* \"#utility.yul\":1476:1480   */\n      dup2\n        /* \"#utility.yul\":1472:1487   */\n      add\n        /* \"#utility.yul\":1464:1487   */\n      swap1\n      pop\n        /* \"#utility.yul\":1173:1494   */\n      swap2\n      swap1\n      pop\n      jump\t// out\n        /* \"#utility.yul\":1500:1617   */\n    tag_32:\n        /* \"#utility.yul\":1609:1610   */\n      0x00\n        /* \"#utility.yul\":1606:1607   */\n      dup1\n        /* \"#utility.yul\":1599:1611   */\n      revert\n        /* \"#utility.yul\":1623:1740   */\n    tag_33:\n        /* \"#utility.yul\":1732:1733   */\n      0x00\n        /* \"#utility.yul\":1729:1730   */\n      dup1\n        /* \"#utility.yul\":1722:1734   */\n      revert\n        /* \"#utility.yul\":1746:2054   */\n    tag_34:\n        /* \"#utility.yul\":1808:1812   */\n      0x00\n        /* \"#utility.yul\":1898:1916   */\n      0xffffffffffffffff\n        /* \"#utility.yul\":1890:1896   */\n      dup3\n        /* \"#utility.yul\":1887:1917   */\n      gt\n        /* \"#utility.yul\":1884:1940   */\n      iszero\n      tag_82\n      jumpi\n        /* \"#utility.yul\":1920:1938   */\n      tag_83\n      tag_28\n      jump\t// in\n    tag_83:\n        /* \"#utility.yul\":1884:1940   */\n    tag_82:\n        /* \"#utility.yul\":1958:1987   */\n      tag_84\n        /* \"#utility.yul\":1980:1986   */\n      dup3\n        /* \"#utility.yul\":1958:1987   */\n      tag_27\n      jump\t// in\n    tag_84:\n        /* \"#utility.yul\":1950:1987   */\n      swap1\n      pop\n        /* \"#utility.yul\":2042:2046   */\n      0x20\n        /* \"#utility.yul\":2036:2040   */\n      dup2\n        /* \"#utility.yul\":2032:2047   */\n      add\n        /* \"#utility.yul\":2024:2047   */\n      swap1\n      pop\n        /* \"#utility.yul\":1746:2054   */\n      swap2\n      swap1\n      pop\n      jump\t// out\n        /* \"#utility.yul\":2060:2214   */\n    tag_35:\n        /* \"#utility.yul\":2144:2150   */\n      dup3\n        /* \"#utility.yul\":2139:2142   */\n      dup2\n        /* \"#utility.yul\":2134:2137   */\n      dup4\n        /* \"#utility.yul\":2121:2151   */\n      calldatacopy\n        /* \"#utility.yul\":2206:2207   */\n      0x00\n        /* \"#utility.yul\":2197:2203   */\n      dup4\n        /* \"#utility.yul\":2192:2195   */\n      dup4\n        /* \"#utility.yul\":2188:2204   */\n      add\n        /* \"#utility.yul\":2181:2208   */\n      mstore\n        /* \"#utility.yul\":2060:2214   */\n      pop\n      pop\n      pop\n      jump\t// out\n        /* \"#utility.yul\":2220:2632   */\n    tag_36:\n        /* \"#utility.yul\":2298:2303   */\n      0x00\n        /* \"#utility.yul\":2323:2389   */\n      tag_87\n        /* \"#utility.yul\":2339:2388   */\n      tag_88\n        /* \"#utility.yul\":2381:2387   */\n      dup5\n        /* \"#utility.yul\":2339:2388   */\n      tag_34\n      jump\t// in\n    tag_88:\n        /* \"#utility.yul\":2323:2389   */\n      tag_30\n      jump\t// in\n    tag_87:\n        /* \"#utility.yul\":2314:2389   */\n      swap1\n      pop\n        /* \"#utility.yul\":2412:2418   */\n      dup3\n        /* \"#utility.yul\":2405:2410   */\n      dup2\n        /* \"#utility.yul\":2398:2419   */\n      mstore\n        /* \"#utility.yul\":2450:2454   */\n      0x20\n        /* \"#utility.yul\":2443:2448   */\n      dup2\n        /* \"#utility.yul\":2439:2455   */\n      add\n        /* \"#utility.yul\":2488:2491   */\n      dup5\n        /* \"#utility.yul\":2479:2485   */\n      dup5\n        /* \"#utility.yul\":2474:2477   */\n      dup5\n        /* \"#utility.yul\":2470:2486   */\n      add\n        /* \"#utility.yul\":2467:2492   */\n      gt\n        /* \"#utility.yul\":2464:2576   */\n      iszero\n      tag_89\n      jumpi\n        /* \"#utility.yul\":2495:2574   */\n      tag_90\n      tag_33\n      jump\t// in\n    tag_90:\n        /* \"#utility.yul\":2464:2576   */\n    tag_89:\n        /* \"#utility.yul\":2585:2626   */\n      tag_91\n        /* \"#utility.yul\":2619:2625   */\n      dup5\n        /* \"#utility.yul\":2614:2617   */\n      dup3\n        /* \"#utility.yul\":2609:2612   */\n      dup6\n        /* \"#utility.yul\":2585:2626   */\n      tag_35\n      jump\t// in\n    tag_91:\n        /* \"#utility.yul\":2304:2632   */\n      pop\n        /* \"#utility.yul\":2220:2632   */\n      swap4\n      swap3\n      pop\n      pop\n      pop\n      jump\t// out\n        /* \"#utility.yul\":2652:2992   */\n    tag_37:\n        /* \"#utility.yul\":2708:2713   */\n      0x00\n        /* \"#utility.yul\":2757:2760   */\n      dup3\n        /* \"#utility.yul\":2750:2754   */\n      0x1f\n        /* \"#utility.yul\":2742:2748   */\n      dup4\n        /* \"#utility.yul\":2738:2755   */\n      add\n        /* \"#utility.yul\":2734:2761   */\n      slt\n        /* \"#utility.yul\":2724:2846   */\n      tag_93\n      jumpi\n        /* \"#utility.yul\":2765:2844   */\n      tag_94\n      tag_26\n      jump\t// in\n    tag_94:\n        /* \"#utility.yul\":2724:2846   */\n    tag_93:\n        /* \"#utility.yul\":2882:2888   */\n      dup2\n        /* \"#utility.yul\":2869:2889   */\n      calldataload\n        /* \"#utility.yul\":2907:2986   */\n      tag_95\n        /* \"#utility.yul\":2982:2985   */\n      dup5\n        /* \"#utility.yul\":2974:2980   */\n      dup3\n        /* \"#utility.yul\":2967:2971   */\n      0x20\n        /* \"#utility.yul\":2959:2965   */\n      dup7\n        /* \"#utility.yul\":2955:2972   */\n      add\n        /* \"#utility.yul\":2907:2986   */\n      tag_36\n      jump\t// in\n    tag_95:\n        /* \"#utility.yul\":2898:2986   */\n      swap2\n      pop\n        /* \"#utility.yul\":2714:2992   */\n      pop\n        /* \"#utility.yul\":2652:2992   */\n      swap3\n      swap2\n      pop\n      pop\n      jump\t// out\n        /* \"#utility.yul\":3014:3959   */\n    tag_38:\n        /* \"#utility.yul\":3120:3125   */\n      0x00\n        /* \"#utility.yul\":3145:3236   */\n      tag_97\n        /* \"#utility.yul\":3161:3235   */\n      tag_98\n        /* \"#utility.yul\":3228:3234   */\n      dup5\n        /* \"#utility.yul\":3161:3235   */\n      tag_31\n      jump\t// in\n    tag_98:\n        /* \"#utility.yul\":3145:3236   */\n      tag_30\n      jump\t// in\n    tag_97:\n        /* \"#utility.yul\":3136:3236   */\n      swap1\n      pop\n        /* \"#utility.yul\":3256:3261   */\n      dup1\n        /* \"#utility.yul\":3285:3291   */\n      dup4\n        /* \"#utility.yul\":3278:3283   */\n      dup3\n        /* \"#utility.yul\":3271:3292   */\n      mstore\n        /* \"#utility.yul\":3319:3323   */\n      0x20\n        /* \"#utility.yul\":3312:3317   */\n      dup3\n        /* \"#utility.yul\":3308:3324   */\n      add\n        /* \"#utility.yul\":3301:3324   */\n      swap1\n      pop\n        /* \"#utility.yul\":3372:3376   */\n      0x20\n        /* \"#utility.yul\":3364:3370   */\n      dup5\n        /* \"#utility.yul\":3360:3377   */\n      mul\n        /* \"#utility.yul\":3352:3358   */\n      dup4\n        /* \"#utility.yul\":3348:3378   */\n      add\n        /* \"#utility.yul\":3401:3404   */\n      dup6\n        /* \"#utility.yul\":3393:3399   */\n      dup2\n        /* \"#utility.yul\":3390:3405   */\n      gt\n        /* \"#utility.yul\":3387:3509   */\n      iszero\n      tag_99\n      jumpi\n        /* \"#utility.yul\":3420:3499   */\n      tag_100\n      tag_32\n      jump\t// in\n    tag_100:\n        /* \"#utility.yul\":3387:3509   */\n    tag_99:\n        /* \"#utility.yul\":3535:3541   */\n      dup4\n        /* \"#utility.yul\":3518:3953   */\n    tag_101:\n        /* \"#utility.yul\":3552:3558   */\n      dup2\n        /* \"#utility.yul\":3547:3550   */\n      dup2\n        /* \"#utility.yul\":3544:3559   */\n      lt\n        /* \"#utility.yul\":3518:3953   */\n      iszero\n      tag_103\n      jumpi\n        /* \"#utility.yul\":3641:3644   */\n      dup1\n        /* \"#utility.yul\":3628:3645   */\n      calldataload\n        /* \"#utility.yul\":3677:3695   */\n      0xffffffffffffffff\n        /* \"#utility.yul\":3664:3675   */\n      dup2\n        /* \"#utility.yul\":3661:3696   */\n      gt\n        /* \"#utility.yul\":3658:3780   */\n      iszero\n      tag_104\n      jumpi\n        /* \"#utility.yul\":3699:3778   */\n      tag_105\n      tag_26\n      jump\t// in\n    tag_105:\n        /* \"#utility.yul\":3658:3780   */\n    tag_104:\n        /* \"#utility.yul\":3823:3834   */\n      dup1\n        /* \"#utility.yul\":3815:3821   */\n      dup7\n        /* \"#utility.yul\":3811:3835   */\n      add\n        /* \"#utility.yul\":3861:3908   */\n      tag_106\n        /* \"#utility.yul\":3904:3907   */\n      dup10\n        /* \"#utility.yul\":3892:3902   */\n      dup3\n        /* \"#utility.yul\":3861:3908   */\n      tag_37\n      jump\t// in\n    tag_106:\n        /* \"#utility.yul\":3856:3859   */\n      dup6\n        /* \"#utility.yul\":3849:3909   */\n      mstore\n        /* \"#utility.yul\":3938:3942   */\n      0x20\n        /* \"#utility.yul\":3933:3936   */\n      dup6\n        /* \"#utility.yul\":3929:3943   */\n      add\n        /* \"#utility.yul\":3922:3943   */\n      swap5\n      pop\n        /* \"#utility.yul\":3594:3953   */\n      pop\n      pop\n        /* \"#utility.yul\":3578:3582   */\n      0x20\n        /* \"#utility.yul\":3573:3576   */\n      dup2\n        /* \"#utility.yul\":3569:3583   */\n      add\n        /* \"#utility.yul\":3562:3583   */\n      swap1\n      pop\n        /* \"#utility.yul\":3518:3953   */\n      jump(tag_101)\n    tag_103:\n        /* \"#utility.yul\":3522:3543   */\n      pop\n        /* \"#utility.yul\":3126:3959   */\n      pop\n      pop\n        /* \"#utility.yul\":3014:3959   */\n      swap4\n      swap3\n      pop\n      pop\n      pop\n      jump\t// out\n        /* \"#utility.yul\":3981:4371   */\n    tag_39:\n        /* \"#utility.yul\":4062:4067   */\n      0x00\n        /* \"#utility.yul\":4111:4114   */\n      dup3\n        /* \"#utility.yul\":4104:4108   */\n      0x1f\n        /* \"#utility.yul\":4096:4102   */\n      dup4\n        /* \"#utility.yul\":4092:4109   */\n      add\n        /* \"#utility.yul\":4088:4115   */\n      slt\n        /* \"#utility.yul\":4078:4200   */\n      tag_108\n      jumpi\n        /* \"#utility.yul\":4119:4198   */\n      tag_109\n      tag_26\n      jump\t// in\n    tag_109:\n        /* \"#utility.yul\":4078:4200   */\n    tag_108:\n        /* \"#utility.yul\":4236:4242   */\n      dup2\n        /* \"#utility.yul\":4223:4243   */\n      calldataload\n        /* \"#utility.yul\":4261:4365   */\n      tag_110\n        /* \"#utility.yul\":4361:4364   */\n      dup5\n        /* \"#utility.yul\":4353:4359   */\n      dup3\n        /* \"#utility.yul\":4346:4350   */\n      0x20\n        /* \"#utility.yul\":4338:4344   */\n      dup7\n        /* \"#utility.yul\":4334:4351   */\n      add\n        /* \"#utility.yul\":4261:4365   */\n      tag_38\n      jump\t// in\n    tag_110:\n        /* \"#utility.yul\":4252:4365   */\n      swap2\n      pop\n        /* \"#utility.yul\":4068:4371   */\n      pop\n        /* \"#utility.yul\":3981:4371   */\n      swap3\n      swap2\n      pop\n      pop\n      jump\t// out\n        /* \"#utility.yul\":4377:5261   */\n    tag_7:\n        /* \"#utility.yul\":4490:4496   */\n      0x00\n        /* \"#utility.yul\":4498:4504   */\n      dup1\n        /* \"#utility.yul\":4547:4549   */\n      0x40\n        /* \"#utility.yul\":4535:4544   */\n      dup4\n        /* \"#utility.yul\":4526:4533   */\n      dup6\n        /* \"#utility.yul\":4522:4545   */\n      sub\n        /* \"#utility.yul\":4518:4550   */\n      slt\n        /* \"#utility.yul\":4515:4634   */\n      iszero\n      tag_112\n      jumpi\n        /* \"#utility.yul\":4553:4632   */\n      tag_113\n      tag_24\n      jump\t// in\n    tag_113:\n        /* \"#utility.yul\":4515:4634   */\n    tag_112:\n        /* \"#utility.yul\":4701:4702   */\n      0x00\n        /* \"#utility.yul\":4690:4699   */\n      dup4\n        /* \"#utility.yul\":4686:4703   */\n      add\n        /* \"#utility.yul\":4673:4704   */\n      calldataload\n        /* \"#utility.yul\":4731:4749   */\n      0xffffffffffffffff\n        /* \"#utility.yul\":4723:4729   */\n      dup2\n        /* \"#utility.yul\":4720:4750   */\n      gt\n        /* \"#utility.yul\":4717:4834   */\n      iszero\n      tag_114\n      jumpi\n        /* \"#utility.yul\":4753:4832   */\n      tag_115\n      tag_25\n      jump\t// in\n    tag_115:\n        /* \"#utility.yul\":4717:4834   */\n    tag_114:\n        /* \"#utility.yul\":4858:4946   */\n      tag_116\n        /* \"#utility.yul\":4938:4945   */\n      dup6\n        /* \"#utility.yul\":4929:4935   */\n      dup3\n        /* \"#utility.yul\":4918:4927   */\n      dup7\n        /* \"#utility.yul\":4914:4936   */\n      add\n        /* \"#utility.yul\":4858:4946   */\n      tag_39\n      jump\t// in\n    tag_116:\n        /* \"#utility.yul\":4848:4946   */\n      swap3\n      pop\n        /* \"#utility.yul\":4644:4956   */\n      pop\n        /* \"#utility.yul\":5023:5025   */\n      0x20\n        /* \"#utility.yul\":5012:5021   */\n      dup4\n        /* \"#utility.yul\":5008:5026   */\n      add\n        /* \"#utility.yul\":4995:5027   */\n      calldataload\n        /* \"#utility.yul\":5054:5072   */\n      0xffffffffffffffff\n        /* \"#utility.yul\":5046:5052   */\n      dup2\n        /* \"#utility.yul\":5043:5073   */\n      gt\n        /* \"#utility.yul\":5040:5157   */\n      iszero\n      tag_117\n      jumpi\n        /* \"#utility.yul\":5076:5155   */\n      tag_118\n      tag_25\n      jump\t// in\n    tag_118:\n        /* \"#utility.yul\":5040:5157   */\n    tag_117:\n        /* \"#utility.yul\":5181:5244   */\n      tag_119\n        /* \"#utility.yul\":5236:5243   */\n      dup6\n        /* \"#utility.yul\":5227:5233   */\n      dup3\n        /* \"#utility.yul\":5216:5225   */\n      dup7\n        /* \"#utility.yul\":5212:5234   */\n      add\n        /* \"#utility.yul\":5181:5244   */\n      tag_37\n      jump\t// in\n    tag_119:\n        /* \"#utility.yul\":5171:5244   */\n      swap2\n      pop\n        /* \"#utility.yul\":4966:5254   */\n      pop\n        /* \"#utility.yul\":4377:5261   */\n      swap3\n      pop\n      swap3\n      swap1\n      pop\n      jump\t// out\n        /* \"#utility.yul\":5267:5381   */\n    tag_40:\n        /* \"#utility.yul\":5334:5340   */\n      0x00\n        /* \"#utility.yul\":5368:5373   */\n      dup2\n        /* \"#utility.yul\":5362:5374   */\n      mload\n        /* \"#utility.yul\":5352:5374   */\n      swap1\n      pop\n        /* \"#utility.yul\":5267:5381   */\n      swap2\n      swap1\n      pop\n      jump\t// out\n        /* \"#utility.yul\":5387:5571   */\n    tag_41:\n        /* \"#utility.yul\":5486:5497   */\n      0x00\n        /* \"#utility.yul\":5520:5526   */\n      dup3\n        /* \"#utility.yul\":5515:5518   */\n      dup3\n        /* \"#utility.yul\":5508:5527   */\n      mstore\n        /* \"#utility.yul\":5560:5564   */\n      0x20\n        /* \"#utility.yul\":5555:5558   */\n      dup3\n        /* \"#utility.yul\":5551:5565   */\n      add\n        /* \"#utility.yul\":5536:5565   */\n      swap1\n      pop\n        /* \"#utility.yul\":5387:5571   */\n      swap3\n      swap2\n      pop\n      pop\n      jump\t// out\n        /* \"#utility.yul\":5577:5709   */\n    tag_42:\n        /* \"#utility.yul\":5644:5648   */\n      0x00\n        /* \"#utility.yul\":5667:5670   */\n      dup2\n        /* \"#utility.yul\":5659:5670   */\n      swap1\n      pop\n        /* \"#utility.yul\":5697:5701   */\n      0x20\n        /* \"#utility.yul\":5692:5695   */\n      dup3\n        /* \"#utility.yul\":5688:5702   */\n      add\n        /* \"#utility.yul\":5680:5702   */\n      swap1\n      pop\n        /* \"#utility.yul\":5577:5709   */\n      swap2\n      swap1\n      pop\n      jump\t// out\n        /* \"#utility.yul\":5715:5841   */\n    tag_43:\n        /* \"#utility.yul\":5752:5759   */\n      0x00\n        /* \"#utility.yul\":5792:5834   */\n      0xffffffffffffffffffffffffffffffffffffffff\n        /* \"#utility.yul\":5785:5790   */\n      dup3\n        /* \"#utility.yul\":5781:5835   */\n      and\n        /* \"#utility.yul\":5770:5835   */\n      swap1\n      pop\n        /* \"#utility.yul\":5715:5841   */\n      swap2\n      swap1\n      pop\n      jump\t// out\n        /* \"#utility.yul\":5847:5943   */\n    tag_44:\n        /* \"#utility.yul\":5884:5891   */\n      0x00\n        /* \"#utility.yul\":5913:5937   */\n      tag_125\n        /* \"#utility.yul\":5931:5936   */\n      dup3\n        /* \"#utility.yul\":5913:5937   */\n      tag_43\n      jump\t// in\n    tag_125:\n        /* \"#utility.yul\":5902:5937   */\n      swap1\n      pop\n        /* \"#utility.yul\":5847:5943   */\n      swap2\n      swap1\n      pop\n      jump\t// out\n        /* \"#utility.yul\":5949:6057   */\n    tag_45:\n        /* \"#utility.yul\":6026:6050   */\n      tag_127\n        /* \"#utility.yul\":6044:6049   */\n      dup2\n        /* \"#utility.yul\":6026:6050   */\n      tag_44\n      jump\t// in\n    tag_127:\n        /* \"#utility.yul\":6021:6024   */\n      dup3\n        /* \"#utility.yul\":6014:6051   */\n      mstore\n        /* \"#utility.yul\":5949:6057   */\n      pop\n      pop\n      jump\t// out\n        /* \"#utility.yul\":6063:6242   */\n    tag_46:\n        /* \"#utility.yul\":6132:6142   */\n      0x00\n        /* \"#utility.yul\":6153:6199   */\n      tag_129\n        /* \"#utility.yul\":6195:6198   */\n      dup4\n        /* \"#utility.yul\":6187:6193   */\n      dup4\n        /* \"#utility.yul\":6153:6199   */\n      tag_45\n      jump\t// in\n    tag_129:\n        /* \"#utility.yul\":6231:6235   */\n      0x20\n        /* \"#utility.yul\":6226:6229   */\n      dup4\n        /* \"#utility.yul\":6222:6236   */\n      add\n        /* \"#utility.yul\":6208:6236   */\n      swap1\n      pop\n        /* \"#utility.yul\":6063:6242   */\n      swap3\n      swap2\n      pop\n      pop\n      jump\t// out\n        /* \"#utility.yul\":6248:6361   */\n    tag_47:\n        /* \"#utility.yul\":6318:6322   */\n      0x00\n        /* \"#utility.yul\":6350:6354   */\n      0x20\n        /* \"#utility.yul\":6345:6348   */\n      dup3\n        /* \"#utility.yul\":6341:6355   */\n      add\n        /* \"#utility.yul\":6333:6355   */\n      swap1\n      pop\n        /* \"#utility.yul\":6248:6361   */\n      swap2\n      swap1\n      pop\n      jump\t// out\n        /* \"#utility.yul\":6397:7129   */\n    tag_48:\n        /* \"#utility.yul\":6516:6519   */\n      0x00\n        /* \"#utility.yul\":6545:6599   */\n      tag_132\n        /* \"#utility.yul\":6593:6598   */\n      dup3\n        /* \"#utility.yul\":6545:6599   */\n      tag_40\n      jump\t// in\n    tag_132:\n        /* \"#utility.yul\":6615:6701   */\n      tag_133\n        /* \"#utility.yul\":6694:6700   */\n      dup2\n        /* \"#utility.yul\":6689:6692   */\n      dup6\n        /* \"#utility.yul\":6615:6701   */\n      tag_41\n      jump\t// in\n    tag_133:\n        /* \"#utility.yul\":6608:6701   */\n      swap4\n      pop\n        /* \"#utility.yul\":6725:6781   */\n      tag_134\n        /* \"#utility.yul\":6775:6780   */\n      dup4\n        /* \"#utility.yul\":6725:6781   */\n      tag_42\n      jump\t// in\n    tag_134:\n        /* \"#utility.yul\":6804:6811   */\n      dup1\n        /* \"#utility.yul\":6835:6836   */\n      0x00\n        /* \"#utility.yul\":6820:7104   */\n    tag_135:\n        /* \"#utility.yul\":6845:6851   */\n      dup4\n        /* \"#utility.yul\":6842:6843   */\n      dup2\n        /* \"#utility.yul\":6839:6852   */\n      lt\n        /* \"#utility.yul\":6820:7104   */\n      iszero\n      tag_137\n      jumpi\n        /* \"#utility.yul\":6921:6927   */\n      dup2\n        /* \"#utility.yul\":6915:6928   */\n      mload\n        /* \"#utility.yul\":6948:7011   */\n      tag_138\n        /* \"#utility.yul\":7007:7010   */\n      dup9\n        /* \"#utility.yul\":6992:7005   */\n      dup3\n        /* \"#utility.yul\":6948:7011   */\n      tag_46\n      jump\t// in\n    tag_138:\n        /* \"#utility.yul\":6941:7011   */\n      swap8\n      pop\n        /* \"#utility.yul\":7034:7094   */\n      tag_139\n        /* \"#utility.yul\":7087:7093   */\n      dup4\n        /* \"#utility.yul\":7034:7094   */\n      tag_47\n      jump\t// in\n    tag_139:\n        /* \"#utility.yul\":7024:7094   */\n      swap3\n      pop\n        /* \"#utility.yul\":6880:7104   */\n      pop\n        /* \"#utility.yul\":6867:6868   */\n      0x01\n        /* \"#utility.yul\":6864:6865   */\n      dup2\n        /* \"#utility.yul\":6860:6869   */\n      add\n        /* \"#utility.yul\":6855:6869   */\n      swap1\n      pop\n        /* \"#utility.yul\":6820:7104   */\n      jump(tag_135)\n    tag_137:\n        /* \"#utility.yul\":6824:6838   */\n      pop\n        /* \"#utility.yul\":7120:7123   */\n      dup6\n        /* \"#utility.yul\":7113:7123   */\n      swap4\n      pop\n        /* \"#utility.yul\":6521:7129   */\n      pop\n      pop\n      pop\n        /* \"#utility.yul\":6397:7129   */\n      swap3\n      swap2\n      pop\n      pop\n      jump\t// out\n        /* \"#utility.yul\":7135:7508   */\n    tag_12:\n        /* \"#utility.yul\":7278:7282   */\n      0x00\n        /* \"#utility.yul\":7316:7318   */\n      0x20\n        /* \"#utility.yul\":7305:7314   */\n      dup3\n        /* \"#utility.yul\":7301:7319   */\n      add\n        /* \"#utility.yul\":7293:7319   */\n      swap1\n      pop\n        /* \"#utility.yul\":7365:7374   */\n      dup2\n        /* \"#utility.yul\":7359:7363   */\n      dup2\n        /* \"#utility.yul\":7355:7375   */\n      sub\n        /* \"#utility.yul\":7351:7352   */\n      0x00\n        /* \"#utility.yul\":7340:7349   */\n      dup4\n        /* \"#utility.yul\":7336:7353   */\n      add\n        /* \"#utility.yul\":7329:7376   */\n      mstore\n        /* \"#utility.yul\":7393:7501   */\n      tag_141\n        /* \"#utility.yul\":7496:7500   */\n      dup2\n        /* \"#utility.yul\":7487:7493   */\n      dup5\n        /* \"#utility.yul\":7393:7501   */\n      tag_48\n      jump\t// in\n    tag_141:\n        /* \"#utility.yul\":7385:7501   */\n      swap1\n      pop\n        /* \"#utility.yul\":7135:7508   */\n      swap3\n      swap2\n      pop\n      pop\n      jump\t// out\n        /* \"#utility.yul\":7514:7632   */\n    tag_49:\n        /* \"#utility.yul\":7601:7625   */\n      tag_143\n        /* \"#utility.yul\":7619:7624   */\n      dup2\n        /* \"#utility.yul\":7601:7625   */\n      tag_44\n      jump\t// in\n    tag_143:\n        /* \"#utility.yul\":7596:7599   */\n      dup3\n        /* \"#utility.yul\":7589:7626   */\n      mstore\n        /* \"#utility.yul\":7514:7632   */\n      pop\n      pop\n      jump\t// out\n        /* \"#utility.yul\":7638:7762   */\n    tag_50:\n        /* \"#utility.yul\":7715:7721   */\n      0x00\n        /* \"#utility.yul\":7749:7754   */\n      dup2\n        /* \"#utility.yul\":7743:7755   */\n      mload\n        /* \"#utility.yul\":7733:7755   */\n      swap1\n      pop\n        /* \"#utility.yul\":7638:7762   */\n      swap2\n      swap1\n      pop\n      jump\t// out\n        /* \"#utility.yul\":7768:7962   */\n    tag_51:\n        /* \"#utility.yul\":7877:7888   */\n      0x00\n        /* \"#utility.yul\":7911:7917   */\n      dup3\n        /* \"#utility.yul\":7906:7909   */\n      dup3\n        /* \"#utility.yul\":7899:7918   */\n      mstore\n        /* \"#utility.yul\":7951:7955   */\n      0x20\n        /* \"#utility.yul\":7946:7949   */\n      dup3\n        /* \"#utility.yul\":7942:7956   */\n      add\n        /* \"#utility.yul\":7927:7956   */\n      swap1\n      pop\n        /* \"#utility.yul\":7768:7962   */\n      swap3\n      swap2\n      pop\n      pop\n      jump\t// out\n        /* \"#utility.yul\":7968:8110   */\n    tag_52:\n        /* \"#utility.yul\":8045:8049   */\n      0x00\n        /* \"#utility.yul\":8068:8071   */\n      dup2\n        /* \"#utility.yul\":8060:8071   */\n      swap1\n      pop\n        /* \"#utility.yul\":8098:8102   */\n      0x20\n        /* \"#utility.yul\":8093:8096   */\n      dup3\n        /* \"#utility.yul\":8089:8103   */\n      add\n        /* \"#utility.yul\":8081:8103   */\n      swap1\n      pop\n        /* \"#utility.yul\":7968:8110   */\n      swap2\n      swap1\n      pop\n      jump\t// out\n        /* \"#utility.yul\":8116:8215   */\n    tag_53:\n        /* \"#utility.yul\":8168:8174   */\n      0x00\n        /* \"#utility.yul\":8202:8207   */\n      dup2\n        /* \"#utility.yul\":8196:8208   */\n      mload\n        /* \"#utility.yul\":8186:8208   */\n      swap1\n      pop\n        /* \"#utility.yul\":8116:8215   */\n      swap2\n      swap1\n      pop\n      jump\t// out\n        /* \"#utility.yul\":8221:8380   */\n    tag_54:\n        /* \"#utility.yul\":8295:8306   */\n      0x00\n        /* \"#utility.yul\":8329:8335   */\n      dup3\n        /* \"#utility.yul\":8324:8327   */\n      dup3\n        /* \"#utility.yul\":8317:8336   */\n      mstore\n        /* \"#utility.yul\":8369:8373   */\n      0x20\n        /* \"#utility.yul\":8364:8367   */\n      dup3\n        /* \"#utility.yul\":8360:8374   */\n      add\n        /* \"#utility.yul\":8345:8374   */\n      swap1\n      pop\n        /* \"#utility.yul\":8221:8380   */\n      swap3\n      swap2\n      pop\n      pop\n      jump\t// out\n        /* \"#utility.yul\":8386:8693   */\n    tag_55:\n        /* \"#utility.yul\":8454:8455   */\n      0x00\n        /* \"#utility.yul\":8464:8577   */\n    tag_150:\n        /* \"#utility.yul\":8478:8484   */\n      dup4\n        /* \"#utility.yul\":8475:8476   */\n      dup2\n        /* \"#utility.yul\":8472:8485   */\n      lt\n        /* \"#utility.yul\":8464:8577   */\n      iszero\n      tag_152\n      jumpi\n        /* \"#utility.yul\":8563:8564   */\n      dup1\n        /* \"#utility.yul\":8558:8561   */\n      dup3\n        /* \"#utility.yul\":8554:8565   */\n      add\n        /* \"#utility.yul\":8548:8566   */\n      mload\n        /* \"#utility.yul\":8544:8545   */\n      dup2\n        /* \"#utility.yul\":8539:8542   */\n      dup5\n        /* \"#utility.yul\":8535:8546   */\n      add\n        /* \"#utility.yul\":8528:8567   */\n      mstore\n        /* \"#utility.yul\":8500:8502   */\n      0x20\n        /* \"#utility.yul\":8497:8498   */\n      dup2\n        /* \"#utility.yul\":8493:8503   */\n      add\n        /* \"#utility.yul\":8488:8503   */\n      swap1\n      pop\n        /* \"#utility.yul\":8464:8577   */\n      jump(tag_150)\n    tag_152:\n        /* \"#utility.yul\":8595:8601   */\n      dup4\n        /* \"#utility.yul\":8592:8593   */\n      dup2\n        /* \"#utility.yul\":8589:8602   */\n      gt\n        /* \"#utility.yul\":8586:8687   */\n      iszero\n      tag_153\n      jumpi\n        /* \"#utility.yul\":8675:8676   */\n      0x00\n        /* \"#utility.yul\":8666:8672   */\n      dup5\n        /* \"#utility.yul\":8661:8664   */\n      dup5\n        /* \"#utility.yul\":8657:8673   */\n      add\n        /* \"#utility.yul\":8650:8677   */\n      mstore\n        /* \"#utility.yul\":8586:8687   */\n    tag_153:\n        /* \"#utility.yul\":8435:8693   */\n      pop\n        /* \"#utility.yul\":8386:8693   */\n      pop\n      pop\n      pop\n      jump\t// out\n        /* \"#utility.yul\":8699:9043   */\n    tag_56:\n        /* \"#utility.yul\":8777:8780   */\n      0x00\n        /* \"#utility.yul\":8805:8844   */\n      tag_155\n        /* \"#utility.yul\":8838:8843   */\n      dup3\n        /* \"#utility.yul\":8805:8844   */\n      tag_53\n      jump\t// in\n    tag_155:\n        /* \"#utility.yul\":8860:8921   */\n      tag_156\n        /* \"#utility.yul\":8914:8920   */\n      dup2\n        /* \"#utility.yul\":8909:8912   */\n      dup6\n        /* \"#utility.yul\":8860:8921   */\n      tag_54\n      jump\t// in\n    tag_156:\n        /* \"#utility.yul\":8853:8921   */\n      swap4\n      pop\n        /* \"#utility.yul\":8930:8982   */\n      tag_157\n        /* \"#utility.yul\":8975:8981   */\n      dup2\n        /* \"#utility.yul\":8970:8973   */\n      dup6\n        /* \"#utility.yul\":8963:8967   */\n      0x20\n        /* \"#utility.yul\":8956:8961   */\n      dup7\n        /* \"#utility.yul\":8952:8968   */\n      add\n        /* \"#utility.yul\":8930:8982   */\n      tag_55\n      jump\t// in\n    tag_157:\n        /* \"#utility.yul\":9007:9036   */\n      tag_158\n        /* \"#utility.yul\":9029:9035   */\n      dup2\n        /* \"#utility.yul\":9007:9036   */\n      tag_27\n      jump\t// in\n    tag_158:\n        /* \"#utility.yul\":9002:9005   */\n      dup5\n        /* \"#utility.yul\":8998:9037   */\n      add\n        /* \"#utility.yul\":8991:9037   */\n      swap2\n      pop\n        /* \"#utility.yul\":8781:9043   */\n      pop\n        /* \"#utility.yul\":8699:9043   */\n      swap3\n      swap2\n      pop\n      pop\n      jump\t// out\n        /* \"#utility.yul\":9049:9245   */\n    tag_57:\n        /* \"#utility.yul\":9138:9148   */\n      0x00\n        /* \"#utility.yul\":9173:9239   */\n      tag_160\n        /* \"#utility.yul\":9235:9238   */\n      dup4\n        /* \"#utility.yul\":9227:9233   */\n      dup4\n        /* \"#utility.yul\":9173:9239   */\n      tag_56\n      jump\t// in\n    tag_160:\n        /* \"#utility.yul\":9159:9239   */\n      swap1\n      pop\n        /* \"#utility.yul\":9049:9245   */\n      swap3\n      swap2\n      pop\n      pop\n      jump\t// out\n        /* \"#utility.yul\":9251:9374   */\n    tag_58:\n        /* \"#utility.yul\":9331:9335   */\n      0x00\n        /* \"#utility.yul\":9363:9367   */\n      0x20\n        /* \"#utility.yul\":9358:9361   */\n      dup3\n        /* \"#utility.yul\":9354:9368   */\n      add\n        /* \"#utility.yul\":9346:9368   */\n      swap1\n      pop\n        /* \"#utility.yul\":9251:9374   */\n      swap2\n      swap1\n      pop\n      jump\t// out\n        /* \"#utility.yul\":9408:10399   */\n    tag_59:\n        /* \"#utility.yul\":9547:9550   */\n      0x00\n        /* \"#utility.yul\":9576:9640   */\n      tag_163\n        /* \"#utility.yul\":9634:9639   */\n      dup3\n        /* \"#utility.yul\":9576:9640   */\n      tag_50\n      jump\t// in\n    tag_163:\n        /* \"#utility.yul\":9656:9752   */\n      tag_164\n        /* \"#utility.yul\":9745:9751   */\n      dup2\n        /* \"#utility.yul\":9740:9743   */\n      dup6\n        /* \"#utility.yul\":9656:9752   */\n      tag_51\n      jump\t// in\n    tag_164:\n        /* \"#utility.yul\":9649:9752   */\n      swap4\n      pop\n        /* \"#utility.yul\":9778:9781   */\n      dup4\n        /* \"#utility.yul\":9823:9827   */\n      0x20\n        /* \"#utility.yul\":9815:9821   */\n      dup3\n        /* \"#utility.yul\":9811:9828   */\n      mul\n        /* \"#utility.yul\":9806:9809   */\n      dup6\n        /* \"#utility.yul\":9802:9829   */\n      add\n        /* \"#utility.yul\":9853:9919   */\n      tag_165\n        /* \"#utility.yul\":9913:9918   */\n      dup6\n        /* \"#utility.yul\":9853:9919   */\n      tag_52\n      jump\t// in\n    tag_165:\n        /* \"#utility.yul\":9942:9949   */\n      dup1\n        /* \"#utility.yul\":9973:9974   */\n      0x00\n        /* \"#utility.yul\":9958:10354   */\n    tag_166:\n        /* \"#utility.yul\":9983:9989   */\n      dup6\n        /* \"#utility.yul\":9980:9981   */\n      dup2\n        /* \"#utility.yul\":9977:9990   */\n      lt\n        /* \"#utility.yul\":9958:10354   */\n      iszero\n      tag_168\n      jumpi\n        /* \"#utility.yul\":10054:10063   */\n      dup5\n        /* \"#utility.yul\":10048:10052   */\n      dup5\n        /* \"#utility.yul\":10044:10064   */\n      sub\n        /* \"#utility.yul\":10039:10042   */\n      dup10\n        /* \"#utility.yul\":10032:10065   */\n      mstore\n        /* \"#utility.yul\":10105:10111   */\n      dup2\n        /* \"#utility.yul\":10099:10112   */\n      mload\n        /* \"#utility.yul\":10133:10217   */\n      tag_169\n        /* \"#utility.yul\":10212:10216   */\n      dup6\n        /* \"#utility.yul\":10197:10210   */\n      dup3\n        /* \"#utility.yul\":10133:10217   */\n      tag_57\n      jump\t// in\n    tag_169:\n        /* \"#utility.yul\":10125:10217   */\n      swap5\n      pop\n        /* \"#utility.yul\":10240:10310   */\n      tag_170\n        /* \"#utility.yul\":10303:10309   */\n      dup4\n        /* \"#utility.yul\":10240:10310   */\n      tag_58\n      jump\t// in\n    tag_170:\n        /* \"#utility.yul\":10230:10310   */\n      swap3\n      pop\n        /* \"#utility.yul\":10339:10343   */\n      0x20\n        /* \"#utility.yul\":10334:10337   */\n      dup11\n        /* \"#utility.yul\":10330:10344   */\n      add\n        /* \"#utility.yul\":10323:10344   */\n      swap10\n      pop\n        /* \"#utility.yul\":10018:10354   */\n      pop\n        /* \"#utility.yul\":10005:10006   */\n      0x01\n        /* \"#utility.yul\":10002:10003   */\n      dup2\n        /* \"#utility.yul\":9998:10007   */\n      add\n        /* \"#utility.yul\":9993:10007   */\n      swap1\n      pop\n        /* \"#utility.yul\":9958:10354   */\n      jump(tag_166)\n    tag_168:\n        /* \"#utility.yul\":9962:9976   */\n      pop\n        /* \"#utility.yul\":10370:10374   */\n      dup3\n        /* \"#utility.yul\":10363:10374   */\n      swap8\n      pop\n        /* \"#utility.yul\":10390:10393   */\n      dup8\n        /* \"#utility.yul\":10383:10393   */\n      swap6\n      pop\n        /* \"#utility.yul\":9552:10399   */\n      pop\n      pop\n      pop\n      pop\n      pop\n        /* \"#utility.yul\":9408:10399   */\n      swap3\n      swap2\n      pop\n      pop\n      jump\t// out\n        /* \"#utility.yul\":10405:10574   */\n    tag_60:\n        /* \"#utility.yul\":10489:10500   */\n      0x00\n        /* \"#utility.yul\":10523:10529   */\n      dup3\n        /* \"#utility.yul\":10518:10521   */\n      dup3\n        /* \"#utility.yul\":10511:10530   */\n      mstore\n        /* \"#utility.yul\":10563:10567   */\n      0x20\n        /* \"#utility.yul\":10558:10561   */\n      dup3\n        /* \"#utility.yul\":10554:10568   */\n      add\n        /* \"#utility.yul\":10539:10568   */\n      swap1\n      pop\n        /* \"#utility.yul\":10405:10574   */\n      swap3\n      swap2\n      pop\n      pop\n      jump\t// out\n        /* \"#utility.yul\":10580:10944   */\n    tag_61:\n        /* \"#utility.yul\":10668:10671   */\n      0x00\n        /* \"#utility.yul\":10696:10735   */\n      tag_173\n        /* \"#utility.yul\":10729:10734   */\n      dup3\n        /* \"#utility.yul\":10696:10735   */\n      tag_53\n      jump\t// in\n    tag_173:\n        /* \"#utility.yul\":10751:10822   */\n      tag_174\n        /* \"#utility.yul\":10815:10821   */\n      dup2\n        /* \"#utility.yul\":10810:10813   */\n      dup6\n        /* \"#utility.yul\":10751:10822   */\n      tag_60\n      jump\t// in\n    tag_174:\n        /* \"#utility.yul\":10744:10822   */\n      swap4\n      pop\n        /* \"#utility.yul\":10831:10883   */\n      tag_175\n        /* \"#utility.yul\":10876:10882   */\n      dup2\n        /* \"#utility.yul\":10871:10874   */\n      dup6\n        /* \"#utility.yul\":10864:10868   */\n      0x20\n        /* \"#utility.yul\":10857:10862   */\n      dup7\n        /* \"#utility.yul\":10853:10869   */\n      add\n        /* \"#utility.yul\":10831:10883   */\n      tag_55\n      jump\t// in\n    tag_175:\n        /* \"#utility.yul\":10908:10937   */\n      tag_176\n        /* \"#utility.yul\":10930:10936   */\n      dup2\n        /* \"#utility.yul\":10908:10937   */\n      tag_27\n      jump\t// in\n    tag_176:\n        /* \"#utility.yul\":10903:10906   */\n      dup5\n        /* \"#utility.yul\":10899:10938   */\n      add\n        /* \"#utility.yul\":10892:10938   */\n      swap2\n      pop\n        /* \"#utility.yul\":10672:10944   */\n      pop\n        /* \"#utility.yul\":10580:10944   */\n      swap3\n      swap2\n      pop\n      pop\n      jump\t// out\n        /* \"#utility.yul\":10950:11674   */\n    tag_17:\n        /* \"#utility.yul\":11189:11193   */\n      0x00\n        /* \"#utility.yul\":11227:11229   */\n      0x60\n        /* \"#utility.yul\":11216:11225   */\n      dup3\n        /* \"#utility.yul\":11212:11230   */\n      add\n        /* \"#utility.yul\":11204:11230   */\n      swap1\n      pop\n        /* \"#utility.yul\":11240:11311   */\n      tag_178\n        /* \"#utility.yul\":11308:11309   */\n      0x00\n        /* \"#utility.yul\":11297:11306   */\n      dup4\n        /* \"#utility.yul\":11293:11310   */\n      add\n        /* \"#utility.yul\":11284:11290   */\n      dup7\n        /* \"#utility.yul\":11240:11311   */\n      tag_49\n      jump\t// in\n    tag_178:\n        /* \"#utility.yul\":11358:11367   */\n      dup2\n        /* \"#utility.yul\":11352:11356   */\n      dup2\n        /* \"#utility.yul\":11348:11368   */\n      sub\n        /* \"#utility.yul\":11343:11345   */\n      0x20\n        /* \"#utility.yul\":11332:11341   */\n      dup4\n        /* \"#utility.yul\":11328:11346   */\n      add\n        /* \"#utility.yul\":11321:11369   */\n      mstore\n        /* \"#utility.yul\":11386:11514   */\n      tag_179\n        /* \"#utility.yul\":11509:11513   */\n      dup2\n        /* \"#utility.yul\":11500:11506   */\n      dup6\n        /* \"#utility.yul\":11386:11514   */\n      tag_59\n      jump\t// in\n    tag_179:\n        /* \"#utility.yul\":11378:11514   */\n      swap1\n      pop\n        /* \"#utility.yul\":11561:11570   */\n      dup2\n        /* \"#utility.yul\":11555:11559   */\n      dup2\n        /* \"#utility.yul\":11551:11571   */\n      sub\n        /* \"#utility.yul\":11546:11548   */\n      0x40\n        /* \"#utility.yul\":11535:11544   */\n      dup4\n        /* \"#utility.yul\":11531:11549   */\n      add\n        /* \"#utility.yul\":11524:11572   */\n      mstore\n        /* \"#utility.yul\":11589:11667   */\n      tag_180\n        /* \"#utility.yul\":11662:11666   */\n      dup2\n        /* \"#utility.yul\":11653:11659   */\n      dup5\n        /* \"#utility.yul\":11589:11667   */\n      tag_61\n      jump\t// in\n    tag_180:\n        /* \"#utility.yul\":11581:11667   */\n      swap1\n      pop\n        /* \"#utility.yul\":10950:11674   */\n      swap5\n      swap4\n      pop\n      pop\n      pop\n      pop\n      jump\t// out\n    stop\n\n    sub_0: assembly {\n            /* \"Devote.sol\":426:2799  contract Election {... */\n          mstore(0x40, 0x80)\n            /* \"Devote.sol\":974:1389  constructor(... */\n          callvalue\n          dup1\n          iszero\n          tag_1\n          jumpi\n          0x00\n          dup1\n          revert\n        tag_1:\n          pop\n          mload(0x40)\n          sub(codesize, bytecodeSize)\n          dup1\n          bytecodeSize\n          dup4\n          codecopy\n          dup2\n          dup2\n          add\n          0x40\n          mstore\n          dup2\n          add\n          swap1\n          tag_2\n          swap2\n          swap1\n          tag_3\n          jump\t// in\n        tag_2:\n            /* \"Devote.sol\":1100:1107  creator */\n          dup3\n            /* \"Devote.sol\":1092:1097  owner */\n          0x00\n          dup1\n            /* \"Devote.sol\":1092:1107  owner = creator */\n          0x0100\n          exp\n          dup2\n          sload\n          dup2\n          0xffffffffffffffffffffffffffffffffffffffff\n          mul\n          not\n          and\n          swap1\n          dup4\n          0xffffffffffffffffffffffffffffffffffffffff\n          and\n          mul\n          or\n          swap1\n          sstore\n          pop\n            /* \"Devote.sol\":1126:1132  _title */\n          dup1\n            /* \"Devote.sol\":1118:1123  title */\n          0x01\n            /* \"Devote.sol\":1118:1132  title = _title */\n          swap1\n          dup1\n          mload\n          swap1\n          0x20\n          add\n          swap1\n          tag_6\n          swap3\n          swap2\n          swap1\n          tag_7\n          jump\t// in\n        tag_6:\n          pop\n            /* \"Devote.sol\":1148:1157  uint256 i */\n          0x00\n            /* \"Devote.sol\":1143:1382  for (uint256 i = 0; i < list.length; i++) {... */\n        tag_8:\n            /* \"Devote.sol\":1167:1171  list */\n          dup3\n            /* \"Devote.sol\":1167:1178  list.length */\n          mload\n            /* \"Devote.sol\":1163:1164  i */\n          dup2\n            /* \"Devote.sol\":1163:1178  i < list.length */\n          lt\n            /* \"Devote.sol\":1143:1382  for (uint256 i = 0; i < list.length; i++) {... */\n          iszero\n          tag_9\n          jumpi\n            /* \"Devote.sol\":1218:1370  Voter({... */\n          mload(0x40)\n          dup1\n          0x80\n          add\n          0x40\n          mstore\n          dup1\n            /* \"Devote.sol\":1253:1257  list */\n          dup5\n            /* \"Devote.sol\":1258:1259  i */\n          dup4\n            /* \"Devote.sol\":1253:1260  list[i] */\n          dup2\n          mload\n          dup2\n          lt\n          tag_11\n          jumpi\n          tag_12\n          tag_13\n          jump\t// in\n        tag_12:\n        tag_11:\n          0x20\n          mul\n          0x20\n          add\n          add\n          mload\n            /* \"Devote.sol\":1218:1370  Voter({... */\n          dup2\n          mstore\n          0x20\n          add\n            /* \"Devote.sol\":1287:1288  1 */\n          0x01\n            /* \"Devote.sol\":1218:1370  Voter({... */\n          dup2\n          mstore\n          0x20\n          add\n            /* \"Devote.sol\":1314:1319  false */\n          0x00\n            /* \"Devote.sol\":1218:1370  Voter({... */\n          iszero\n          iszero\n          dup2\n          mstore\n          0x20\n          add\n            /* \"Devote.sol\":1352:1353  0 */\n          0x00\n            /* \"Devote.sol\":1218:1370  Voter({... */\n          0xffffffffffffffffffffffffffffffffffffffff\n          and\n          dup2\n          mstore\n          pop\n            /* \"Devote.sol\":1200:1206  voters */\n          0x02\n            /* \"Devote.sol\":1207:1211  list */\n          dup5\n            /* \"Devote.sol\":1212:1213  i */\n          dup4\n            /* \"Devote.sol\":1207:1214  list[i] */\n          dup2\n          mload\n          dup2\n          lt\n          tag_14\n          jumpi\n          tag_15\n          tag_13\n          jump\t// in\n        tag_15:\n        tag_14:\n          0x20\n          mul\n          0x20\n          add\n          add\n          mload\n            /* \"Devote.sol\":1200:1215  voters[list[i]] */\n          mload(0x40)\n          tag_16\n          swap2\n          swap1\n          tag_17\n          jump\t// in\n        tag_16:\n          swap1\n          dup2\n          mstore\n          0x20\n          add\n          mload(0x40)\n          dup1\n          swap2\n          sub\n          swap1\n          keccak256\n            /* \"Devote.sol\":1200:1370  voters[list[i]] = Voter({... */\n          0x00\n          dup3\n          add\n          mload\n          dup2\n          0x00\n          add\n          swap1\n          dup1\n          mload\n          swap1\n          0x20\n          add\n          swap1\n          tag_18\n          swap3\n          swap2\n          swap1\n          tag_7\n          jump\t// in\n        tag_18:\n          pop\n          0x20\n          dup3\n          add\n          mload\n          dup2\n          0x01\n          add\n          sstore\n          0x40\n          dup3\n          add\n          mload\n          dup2\n          0x02\n          add\n          exp(0x0100, 0x00)\n          dup2\n          sload\n          dup2\n          0xff\n          mul\n          not\n          and\n          swap1\n          dup4\n          iszero\n          iszero\n          mul\n          or\n          swap1\n          sstore\n          pop\n          0x60\n          dup3\n          add\n          mload\n          dup2\n          0x02\n          add\n          exp(0x0100, 0x01)\n          dup2\n          sload\n          dup2\n          0xffffffffffffffffffffffffffffffffffffffff\n          mul\n          not\n          and\n          swap1\n          dup4\n          0xffffffffffffffffffffffffffffffffffffffff\n          and\n          mul\n          or\n          swap1\n          sstore\n          pop\n          swap1\n          pop\n          pop\n            /* \"Devote.sol\":1180:1183  i++ */\n          dup1\n          dup1\n          tag_19\n          swap1\n          tag_20\n          jump\t// in\n        tag_19:\n          swap2\n          pop\n          pop\n            /* \"Devote.sol\":1143:1382  for (uint256 i = 0; i < list.length; i++) {... */\n          jump(tag_8)\n        tag_9:\n          pop\n            /* \"Devote.sol\":974:1389  constructor(... */\n          pop\n          pop\n          pop\n            /* \"Devote.sol\":426:2799  contract Election {... */\n          jump(tag_21)\n        tag_7:\n          dup3\n          dup1\n          sload\n          tag_22\n          swap1\n          tag_23\n          jump\t// in\n        tag_22:\n          swap1\n          0x00\n          mstore\n          keccak256(0x00, 0x20)\n          swap1\n          0x1f\n          add\n          0x20\n          swap1\n          div\n          dup2\n          add\n          swap3\n          dup3\n          tag_25\n          jumpi\n          0x00\n          dup6\n          sstore\n          jump(tag_24)\n        tag_25:\n          dup3\n          0x1f\n          lt\n          tag_26\n          jumpi\n          dup1\n          mload\n          not(0xff)\n          and\n          dup4\n          dup1\n          add\n          or\n          dup6\n          sstore\n          jump(tag_24)\n        tag_26:\n          dup3\n          dup1\n          add\n          0x01\n          add\n          dup6\n          sstore\n          dup3\n          iszero\n          tag_24\n          jumpi\n          swap2\n          dup3\n          add\n        tag_27:\n          dup3\n          dup2\n          gt\n          iszero\n          tag_28\n          jumpi\n          dup3\n          mload\n          dup3\n          sstore\n          swap2\n          0x20\n          add\n          swap2\n          swap1\n          0x01\n          add\n          swap1\n          jump(tag_27)\n        tag_28:\n        tag_24:\n          pop\n          swap1\n          pop\n          tag_29\n          swap2\n          swap1\n          tag_30\n          jump\t// in\n        tag_29:\n          pop\n          swap1\n          jump\t// out\n        tag_30:\n        tag_31:\n          dup1\n          dup3\n          gt\n          iszero\n          tag_32\n          jumpi\n          0x00\n          dup2\n          0x00\n          swap1\n          sstore\n          pop\n          0x01\n          add\n          jump(tag_31)\n        tag_32:\n          pop\n          swap1\n          jump\t// out\n            /* \"#utility.yul\":7:82   */\n        tag_33:\n            /* \"#utility.yul\":40:46   */\n          0x00\n            /* \"#utility.yul\":73:75   */\n          0x40\n            /* \"#utility.yul\":67:76   */\n          mload\n            /* \"#utility.yul\":57:76   */\n          swap1\n          pop\n            /* \"#utility.yul\":7:82   */\n          swap1\n          jump\t// out\n            /* \"#utility.yul\":88:205   */\n        tag_34:\n            /* \"#utility.yul\":197:198   */\n          0x00\n            /* \"#utility.yul\":194:195   */\n          dup1\n            /* \"#utility.yul\":187:199   */\n          revert\n            /* \"#utility.yul\":211:328   */\n        tag_35:\n            /* \"#utility.yul\":320:321   */\n          0x00\n            /* \"#utility.yul\":317:318   */\n          dup1\n            /* \"#utility.yul\":310:322   */\n          revert\n            /* \"#utility.yul\":334:460   */\n        tag_36:\n            /* \"#utility.yul\":371:378   */\n          0x00\n            /* \"#utility.yul\":411:453   */\n          0xffffffffffffffffffffffffffffffffffffffff\n            /* \"#utility.yul\":404:409   */\n          dup3\n            /* \"#utility.yul\":400:454   */\n          and\n            /* \"#utility.yul\":389:454   */\n          swap1\n          pop\n            /* \"#utility.yul\":334:460   */\n          swap2\n          swap1\n          pop\n          jump\t// out\n            /* \"#utility.yul\":466:562   */\n        tag_37:\n            /* \"#utility.yul\":503:510   */\n          0x00\n            /* \"#utility.yul\":532:556   */\n          tag_66\n            /* \"#utility.yul\":550:555   */\n          dup3\n            /* \"#utility.yul\":532:556   */\n          tag_36\n          jump\t// in\n        tag_66:\n            /* \"#utility.yul\":521:556   */\n          swap1\n          pop\n            /* \"#utility.yul\":466:562   */\n          swap2\n          swap1\n          pop\n          jump\t// out\n            /* \"#utility.yul\":568:690   */\n        tag_38:\n            /* \"#utility.yul\":641:665   */\n          tag_68\n            /* \"#utility.yul\":659:664   */\n          dup2\n            /* \"#utility.yul\":641:665   */\n          tag_37\n          jump\t// in\n        tag_68:\n            /* \"#utility.yul\":634:639   */\n          dup2\n            /* \"#utility.yul\":631:666   */\n          eq\n            /* \"#utility.yul\":621:684   */\n          tag_69\n          jumpi\n            /* \"#utility.yul\":680:681   */\n          0x00\n            /* \"#utility.yul\":677:678   */\n          dup1\n            /* \"#utility.yul\":670:682   */\n          revert\n            /* \"#utility.yul\":621:684   */\n        tag_69:\n            /* \"#utility.yul\":568:690   */\n          pop\n          jump\t// out\n            /* \"#utility.yul\":696:839   */\n        tag_39:\n            /* \"#utility.yul\":753:758   */\n          0x00\n            /* \"#utility.yul\":784:790   */\n          dup2\n            /* \"#utility.yul\":778:791   */\n          mload\n            /* \"#utility.yul\":769:791   */\n          swap1\n          pop\n            /* \"#utility.yul\":800:833   */\n          tag_71\n            /* \"#utility.yul\":827:832   */\n          dup2\n            /* \"#utility.yul\":800:833   */\n          tag_38\n          jump\t// in\n        tag_71:\n            /* \"#utility.yul\":696:839   */\n          swap3\n          swap2\n          pop\n          pop\n          jump\t// out\n            /* \"#utility.yul\":845:962   */\n        tag_40:\n            /* \"#utility.yul\":954:955   */\n          0x00\n            /* \"#utility.yul\":951:952   */\n          dup1\n            /* \"#utility.yul\":944:956   */\n          revert\n            /* \"#utility.yul\":968:1070   */\n        tag_41:\n            /* \"#utility.yul\":1009:1015   */\n          0x00\n            /* \"#utility.yul\":1060:1062   */\n          0x1f\n            /* \"#utility.yul\":1056:1063   */\n          not\n            /* \"#utility.yul\":1051:1053   */\n          0x1f\n            /* \"#utility.yul\":1044:1049   */\n          dup4\n            /* \"#utility.yul\":1040:1054   */\n          add\n            /* \"#utility.yul\":1036:1064   */\n          and\n            /* \"#utility.yul\":1026:1064   */\n          swap1\n          pop\n            /* \"#utility.yul\":968:1070   */\n          swap2\n          swap1\n          pop\n          jump\t// out\n            /* \"#utility.yul\":1076:1256   */\n        tag_42:\n            /* \"#utility.yul\":1124:1201   */\n          0x4e487b7100000000000000000000000000000000000000000000000000000000\n            /* \"#utility.yul\":1121:1122   */\n          0x00\n            /* \"#utility.yul\":1114:1202   */\n          mstore\n            /* \"#utility.yul\":1221:1225   */\n          0x41\n            /* \"#utility.yul\":1218:1219   */\n          0x04\n            /* \"#utility.yul\":1211:1226   */\n          mstore\n            /* \"#utility.yul\":1245:1249   */\n          0x24\n            /* \"#utility.yul\":1242:1243   */\n          0x00\n            /* \"#utility.yul\":1235:1250   */\n          revert\n            /* \"#utility.yul\":1262:1543   */\n        tag_43:\n            /* \"#utility.yul\":1345:1372   */\n          tag_76\n            /* \"#utility.yul\":1367:1371   */\n          dup3\n            /* \"#utility.yul\":1345:1372   */\n          tag_41\n          jump\t// in\n        tag_76:\n            /* \"#utility.yul\":1337:1343   */\n          dup2\n            /* \"#utility.yul\":1333:1373   */\n          add\n            /* \"#utility.yul\":1475:1481   */\n          dup2\n            /* \"#utility.yul\":1463:1473   */\n          dup2\n            /* \"#utility.yul\":1460:1482   */\n          lt\n            /* \"#utility.yul\":1439:1457   */\n          0xffffffffffffffff\n            /* \"#utility.yul\":1427:1437   */\n          dup3\n            /* \"#utility.yul\":1424:1458   */\n          gt\n            /* \"#utility.yul\":1421:1483   */\n          or\n            /* \"#utility.yul\":1418:1506   */\n          iszero\n          tag_77\n          jumpi\n            /* \"#utility.yul\":1486:1504   */\n          tag_78\n          tag_42\n          jump\t// in\n        tag_78:\n            /* \"#utility.yul\":1418:1506   */\n        tag_77:\n            /* \"#utility.yul\":1526:1536   */\n          dup1\n            /* \"#utility.yul\":1522:1524   */\n          0x40\n            /* \"#utility.yul\":1515:1537   */\n          mstore\n            /* \"#utility.yul\":1305:1543   */\n          pop\n            /* \"#utility.yul\":1262:1543   */\n          pop\n          pop\n          jump\t// out\n            /* \"#utility.yul\":1549:1678   */\n        tag_44:\n            /* \"#utility.yul\":1583:1589   */\n          0x00\n            /* \"#utility.yul\":1610:1630   */\n          tag_80\n          tag_33\n          jump\t// in\n        tag_80:\n            /* \"#utility.yul\":1600:1630   */\n          swap1\n          pop\n            /* \"#utility.yul\":1639:1672   */\n          tag_81\n            /* \"#utility.yul\":1667:1671   */\n          dup3\n            /* \"#utility.yul\":1659:1665   */\n          dup3\n            /* \"#utility.yul\":1639:1672   */\n          tag_43\n          jump\t// in\n        tag_81:\n            /* \"#utility.yul\":1549:1678   */\n          swap2\n          swap1\n          pop\n          jump\t// out\n            /* \"#utility.yul\":1684:2005   */\n        tag_45:\n            /* \"#utility.yul\":1771:1775   */\n          0x00\n            /* \"#utility.yul\":1861:1879   */\n          0xffffffffffffffff\n            /* \"#utility.yul\":1853:1859   */\n          dup3\n            /* \"#utility.yul\":1850:1880   */\n          gt\n            /* \"#utility.yul\":1847:1903   */\n          iszero\n          tag_83\n          jumpi\n            /* \"#utility.yul\":1883:1901   */\n          tag_84\n          tag_42\n          jump\t// in\n        tag_84:\n            /* \"#utility.yul\":1847:1903   */\n        tag_83:\n            /* \"#utility.yul\":1933:1937   */\n          0x20\n            /* \"#utility.yul\":1925:1931   */\n          dup3\n            /* \"#utility.yul\":1921:1938   */\n          mul\n            /* \"#utility.yul\":1913:1938   */\n          swap1\n          pop\n            /* \"#utility.yul\":1993:1997   */\n          0x20\n            /* \"#utility.yul\":1987:1991   */\n          dup2\n            /* \"#utility.yul\":1983:1998   */\n          add\n            /* \"#utility.yul\":1975:1998   */\n          swap1\n          pop\n            /* \"#utility.yul\":1684:2005   */\n          swap2\n          swap1\n          pop\n          jump\t// out\n            /* \"#utility.yul\":2011:2128   */\n        tag_46:\n            /* \"#utility.yul\":2120:2121   */\n          0x00\n            /* \"#utility.yul\":2117:2118   */\n          dup1\n            /* \"#utility.yul\":2110:2122   */\n          revert\n            /* \"#utility.yul\":2134:2251   */\n        tag_47:\n            /* \"#utility.yul\":2243:2244   */\n          0x00\n            /* \"#utility.yul\":2240:2241   */\n          dup1\n            /* \"#utility.yul\":2233:2245   */\n          revert\n            /* \"#utility.yul\":2257:2565   */\n        tag_48:\n            /* \"#utility.yul\":2319:2323   */\n          0x00\n            /* \"#utility.yul\":2409:2427   */\n          0xffffffffffffffff\n            /* \"#utility.yul\":2401:2407   */\n          dup3\n            /* \"#utility.yul\":2398:2428   */\n          gt\n            /* \"#utility.yul\":2395:2451   */\n          iszero\n          tag_88\n          jumpi\n            /* \"#utility.yul\":2431:2449   */\n          tag_89\n          tag_42\n          jump\t// in\n        tag_89:\n            /* \"#utility.yul\":2395:2451   */\n        tag_88:\n            /* \"#utility.yul\":2469:2498   */\n          tag_90\n            /* \"#utility.yul\":2491:2497   */\n          dup3\n            /* \"#utility.yul\":2469:2498   */\n          tag_41\n          jump\t// in\n        tag_90:\n            /* \"#utility.yul\":2461:2498   */\n          swap1\n          pop\n            /* \"#utility.yul\":2553:2557   */\n          0x20\n            /* \"#utility.yul\":2547:2551   */\n          dup2\n            /* \"#utility.yul\":2543:2558   */\n          add\n            /* \"#utility.yul\":2535:2558   */\n          swap1\n          pop\n            /* \"#utility.yul\":2257:2565   */\n          swap2\n          swap1\n          pop\n          jump\t// out\n            /* \"#utility.yul\":2571:2878   */\n        tag_49:\n            /* \"#utility.yul\":2639:2640   */\n          0x00\n            /* \"#utility.yul\":2649:2762   */\n        tag_92:\n            /* \"#utility.yul\":2663:2669   */\n          dup4\n            /* \"#utility.yul\":2660:2661   */\n          dup2\n            /* \"#utility.yul\":2657:2670   */\n          lt\n            /* \"#utility.yul\":2649:2762   */\n          iszero\n          tag_94\n          jumpi\n            /* \"#utility.yul\":2748:2749   */\n          dup1\n            /* \"#utility.yul\":2743:2746   */\n          dup3\n            /* \"#utility.yul\":2739:2750   */\n          add\n            /* \"#utility.yul\":2733:2751   */\n          mload\n            /* \"#utility.yul\":2729:2730   */\n          dup2\n            /* \"#utility.yul\":2724:2727   */\n          dup5\n            /* \"#utility.yul\":2720:2731   */\n          add\n            /* \"#utility.yul\":2713:2752   */\n          mstore\n            /* \"#utility.yul\":2685:2687   */\n          0x20\n            /* \"#utility.yul\":2682:2683   */\n          dup2\n            /* \"#utility.yul\":2678:2688   */\n          add\n            /* \"#utility.yul\":2673:2688   */\n          swap1\n          pop\n            /* \"#utility.yul\":2649:2762   */\n          jump(tag_92)\n        tag_94:\n            /* \"#utility.yul\":2780:2786   */\n          dup4\n            /* \"#utility.yul\":2777:2778   */\n          dup2\n            /* \"#utility.yul\":2774:2787   */\n          gt\n            /* \"#utility.yul\":2771:2872   */\n          iszero\n          tag_95\n          jumpi\n            /* \"#utility.yul\":2860:2861   */\n          0x00\n            /* \"#utility.yul\":2851:2857   */\n          dup5\n            /* \"#utility.yul\":2846:2849   */\n          dup5\n            /* \"#utility.yul\":2842:2858   */\n          add\n            /* \"#utility.yul\":2835:2862   */\n          mstore\n            /* \"#utility.yul\":2771:2872   */\n        tag_95:\n            /* \"#utility.yul\":2620:2878   */\n          pop\n            /* \"#utility.yul\":2571:2878   */\n          pop\n          pop\n          pop\n          jump\t// out\n            /* \"#utility.yul\":2884:3305   */\n        tag_50:\n            /* \"#utility.yul\":2973:2978   */\n          0x00\n            /* \"#utility.yul\":2998:3064   */\n          tag_97\n            /* \"#utility.yul\":3014:3063   */\n          tag_98\n            /* \"#utility.yul\":3056:3062   */\n          dup5\n            /* \"#utility.yul\":3014:3063   */\n          tag_48\n          jump\t// in\n        tag_98:\n            /* \"#utility.yul\":2998:3064   */\n          tag_44\n          jump\t// in\n        tag_97:\n            /* \"#utility.yul\":2989:3064   */\n          swap1\n          pop\n            /* \"#utility.yul\":3087:3093   */\n          dup3\n            /* \"#utility.yul\":3080:3085   */\n          dup2\n            /* \"#utility.yul\":3073:3094   */\n          mstore\n            /* \"#utility.yul\":3125:3129   */\n          0x20\n            /* \"#utility.yul\":3118:3123   */\n          dup2\n            /* \"#utility.yul\":3114:3130   */\n          add\n            /* \"#utility.yul\":3163:3166   */\n          dup5\n            /* \"#utility.yul\":3154:3160   */\n          dup5\n            /* \"#utility.yul\":3149:3152   */\n          dup5\n            /* \"#utility.yul\":3145:3161   */\n          add\n            /* \"#utility.yul\":3142:3167   */\n          gt\n            /* \"#utility.yul\":3139:3251   */\n          iszero\n          tag_99\n          jumpi\n            /* \"#utility.yul\":3170:3249   */\n          tag_100\n          tag_47\n          jump\t// in\n        tag_100:\n            /* \"#utility.yul\":3139:3251   */\n        tag_99:\n            /* \"#utility.yul\":3260:3299   */\n          tag_101\n            /* \"#utility.yul\":3292:3298   */\n          dup5\n            /* \"#utility.yul\":3287:3290   */\n          dup3\n            /* \"#utility.yul\":3282:3285   */\n          dup6\n            /* \"#utility.yul\":3260:3299   */\n          tag_49\n          jump\t// in\n        tag_101:\n            /* \"#utility.yul\":2979:3305   */\n          pop\n            /* \"#utility.yul\":2884:3305   */\n          swap4\n          swap3\n          pop\n          pop\n          pop\n          jump\t// out\n            /* \"#utility.yul\":3325:3680   */\n        tag_51:\n            /* \"#utility.yul\":3392:3397   */\n          0x00\n            /* \"#utility.yul\":3441:3444   */\n          dup3\n            /* \"#utility.yul\":3434:3438   */\n          0x1f\n            /* \"#utility.yul\":3426:3432   */\n          dup4\n            /* \"#utility.yul\":3422:3439   */\n          add\n            /* \"#utility.yul\":3418:3445   */\n          slt\n            /* \"#utility.yul\":3408:3530   */\n          tag_103\n          jumpi\n            /* \"#utility.yul\":3449:3528   */\n          tag_104\n          tag_40\n          jump\t// in\n        tag_104:\n            /* \"#utility.yul\":3408:3530   */\n        tag_103:\n            /* \"#utility.yul\":3559:3565   */\n          dup2\n            /* \"#utility.yul\":3553:3566   */\n          mload\n            /* \"#utility.yul\":3584:3674   */\n          tag_105\n            /* \"#utility.yul\":3670:3673   */\n          dup5\n            /* \"#utility.yul\":3662:3668   */\n          dup3\n            /* \"#utility.yul\":3655:3659   */\n          0x20\n            /* \"#utility.yul\":3647:3653   */\n          dup7\n            /* \"#utility.yul\":3643:3660   */\n          add\n            /* \"#utility.yul\":3584:3674   */\n          tag_50\n          jump\t// in\n        tag_105:\n            /* \"#utility.yul\":3575:3674   */\n          swap2\n          pop\n            /* \"#utility.yul\":3398:3680   */\n          pop\n            /* \"#utility.yul\":3325:3680   */\n          swap3\n          swap2\n          pop\n          pop\n          jump\t// out\n            /* \"#utility.yul\":3702:4662   */\n        tag_52:\n            /* \"#utility.yul\":3819:3824   */\n          0x00\n            /* \"#utility.yul\":3844:3935   */\n          tag_107\n            /* \"#utility.yul\":3860:3934   */\n          tag_108\n            /* \"#utility.yul\":3927:3933   */\n          dup5\n            /* \"#utility.yul\":3860:3934   */\n          tag_45\n          jump\t// in\n        tag_108:\n            /* \"#utility.yul\":3844:3935   */\n          tag_44\n          jump\t// in\n        tag_107:\n            /* \"#utility.yul\":3835:3935   */\n          swap1\n          pop\n            /* \"#utility.yul\":3955:3960   */\n          dup1\n            /* \"#utility.yul\":3984:3990   */\n          dup4\n            /* \"#utility.yul\":3977:3982   */\n          dup3\n            /* \"#utility.yul\":3970:3991   */\n          mstore\n            /* \"#utility.yul\":4018:4022   */\n          0x20\n            /* \"#utility.yul\":4011:4016   */\n          dup3\n            /* \"#utility.yul\":4007:4023   */\n          add\n            /* \"#utility.yul\":4000:4023   */\n          swap1\n          pop\n            /* \"#utility.yul\":4071:4075   */\n          0x20\n            /* \"#utility.yul\":4063:4069   */\n          dup5\n            /* \"#utility.yul\":4059:4076   */\n          mul\n            /* \"#utility.yul\":4051:4057   */\n          dup4\n            /* \"#utility.yul\":4047:4077   */\n          add\n            /* \"#utility.yul\":4100:4103   */\n          dup6\n            /* \"#utility.yul\":4092:4098   */\n          dup2\n            /* \"#utility.yul\":4089:4104   */\n          gt\n            /* \"#utility.yul\":4086:4208   */\n          iszero\n          tag_109\n          jumpi\n            /* \"#utility.yul\":4119:4198   */\n          tag_110\n          tag_46\n          jump\t// in\n        tag_110:\n            /* \"#utility.yul\":4086:4208   */\n        tag_109:\n            /* \"#utility.yul\":4234:4240   */\n          dup4\n            /* \"#utility.yul\":4217:4656   */\n        tag_111:\n            /* \"#utility.yul\":4251:4257   */\n          dup2\n            /* \"#utility.yul\":4246:4249   */\n          dup2\n            /* \"#utility.yul\":4243:4258   */\n          lt\n            /* \"#utility.yul\":4217:4656   */\n          iszero\n          tag_113\n          jumpi\n            /* \"#utility.yul\":4333:4336   */\n          dup1\n            /* \"#utility.yul\":4327:4337   */\n          mload\n            /* \"#utility.yul\":4369:4387   */\n          0xffffffffffffffff\n            /* \"#utility.yul\":4356:4367   */\n          dup2\n            /* \"#utility.yul\":4353:4388   */\n          gt\n            /* \"#utility.yul\":4350:4472   */\n          iszero\n          tag_114\n          jumpi\n            /* \"#utility.yul\":4391:4470   */\n          tag_115\n          tag_40\n          jump\t// in\n        tag_115:\n            /* \"#utility.yul\":4350:4472   */\n        tag_114:\n            /* \"#utility.yul\":4515:4526   */\n          dup1\n            /* \"#utility.yul\":4507:4513   */\n          dup7\n            /* \"#utility.yul\":4503:4527   */\n          add\n            /* \"#utility.yul\":4553:4611   */\n          tag_116\n            /* \"#utility.yul\":4607:4610   */\n          dup10\n            /* \"#utility.yul\":4595:4605   */\n          dup3\n            /* \"#utility.yul\":4553:4611   */\n          tag_51\n          jump\t// in\n        tag_116:\n            /* \"#utility.yul\":4548:4551   */\n          dup6\n            /* \"#utility.yul\":4541:4612   */\n          mstore\n            /* \"#utility.yul\":4641:4645   */\n          0x20\n            /* \"#utility.yul\":4636:4639   */\n          dup6\n            /* \"#utility.yul\":4632:4646   */\n          add\n            /* \"#utility.yul\":4625:4646   */\n          swap5\n          pop\n            /* \"#utility.yul\":4293:4656   */\n          pop\n          pop\n            /* \"#utility.yul\":4277:4281   */\n          0x20\n            /* \"#utility.yul\":4272:4275   */\n          dup2\n            /* \"#utility.yul\":4268:4282   */\n          add\n            /* \"#utility.yul\":4261:4282   */\n          swap1\n          pop\n            /* \"#utility.yul\":4217:4656   */\n          jump(tag_111)\n        tag_113:\n            /* \"#utility.yul\":4221:4242   */\n          pop\n            /* \"#utility.yul\":3825:4662   */\n          pop\n          pop\n            /* \"#utility.yul\":3702:4662   */\n          swap4\n          swap3\n          pop\n          pop\n          pop\n          jump\t// out\n            /* \"#utility.yul\":4684:5089   */\n        tag_53:\n            /* \"#utility.yul\":4776:4781   */\n          0x00\n            /* \"#utility.yul\":4825:4828   */\n          dup3\n            /* \"#utility.yul\":4818:4822   */\n          0x1f\n            /* \"#utility.yul\":4810:4816   */\n          dup4\n            /* \"#utility.yul\":4806:4823   */\n          add\n            /* \"#utility.yul\":4802:4829   */\n          slt\n            /* \"#utility.yul\":4792:4914   */\n          tag_118\n          jumpi\n            /* \"#utility.yul\":4833:4912   */\n          tag_119\n          tag_40\n          jump\t// in\n        tag_119:\n            /* \"#utility.yul\":4792:4914   */\n        tag_118:\n            /* \"#utility.yul\":4943:4949   */\n          dup2\n            /* \"#utility.yul\":4937:4950   */\n          mload\n            /* \"#utility.yul\":4968:5083   */\n          tag_120\n            /* \"#utility.yul\":5079:5082   */\n          dup5\n            /* \"#utility.yul\":5071:5077   */\n          dup3\n            /* \"#utility.yul\":5064:5068   */\n          0x20\n            /* \"#utility.yul\":5056:5062   */\n          dup7\n            /* \"#utility.yul\":5052:5069   */\n          add\n            /* \"#utility.yul\":4968:5083   */\n          tag_52\n          jump\t// in\n        tag_120:\n            /* \"#utility.yul\":4959:5083   */\n          swap2\n          pop\n            /* \"#utility.yul\":4782:5089   */\n          pop\n            /* \"#utility.yul\":4684:5089   */\n          swap3\n          swap2\n          pop\n          pop\n          jump\t// out\n            /* \"#utility.yul\":5095:6154   */\n        tag_3:\n            /* \"#utility.yul\":5228:5234   */\n          0x00\n            /* \"#utility.yul\":5236:5242   */\n          dup1\n            /* \"#utility.yul\":5244:5250   */\n          0x00\n            /* \"#utility.yul\":5293:5295   */\n          0x60\n            /* \"#utility.yul\":5281:5290   */\n          dup5\n            /* \"#utility.yul\":5272:5279   */\n          dup7\n            /* \"#utility.yul\":5268:5291   */\n          sub\n            /* \"#utility.yul\":5264:5296   */\n          slt\n            /* \"#utility.yul\":5261:5380   */\n          iszero\n          tag_122\n          jumpi\n            /* \"#utility.yul\":5299:5378   */\n          tag_123\n          tag_34\n          jump\t// in\n        tag_123:\n            /* \"#utility.yul\":5261:5380   */\n        tag_122:\n            /* \"#utility.yul\":5419:5420   */\n          0x00\n            /* \"#utility.yul\":5444:5508   */\n          tag_124\n            /* \"#utility.yul\":5500:5507   */\n          dup7\n            /* \"#utility.yul\":5491:5497   */\n          dup3\n            /* \"#utility.yul\":5480:5489   */\n          dup8\n            /* \"#utility.yul\":5476:5498   */\n          add\n            /* \"#utility.yul\":5444:5508   */\n          tag_39\n          jump\t// in\n        tag_124:\n            /* \"#utility.yul\":5434:5508   */\n          swap4\n          pop\n            /* \"#utility.yul\":5390:5518   */\n          pop\n            /* \"#utility.yul\":5578:5580   */\n          0x20\n            /* \"#utility.yul\":5567:5576   */\n          dup5\n            /* \"#utility.yul\":5563:5581   */\n          add\n            /* \"#utility.yul\":5557:5582   */\n          mload\n            /* \"#utility.yul\":5609:5627   */\n          0xffffffffffffffff\n            /* \"#utility.yul\":5601:5607   */\n          dup2\n            /* \"#utility.yul\":5598:5628   */\n          gt\n            /* \"#utility.yul\":5595:5712   */\n          iszero\n          tag_125\n          jumpi\n            /* \"#utility.yul\":5631:5710   */\n          tag_126\n          tag_35\n          jump\t// in\n        tag_126:\n            /* \"#utility.yul\":5595:5712   */\n        tag_125:\n            /* \"#utility.yul\":5736:5835   */\n          tag_127\n            /* \"#utility.yul\":5827:5834   */\n          dup7\n            /* \"#utility.yul\":5818:5824   */\n          dup3\n            /* \"#utility.yul\":5807:5816   */\n          dup8\n            /* \"#utility.yul\":5803:5825   */\n          add\n            /* \"#utility.yul\":5736:5835   */\n          tag_53\n          jump\t// in\n        tag_127:\n            /* \"#utility.yul\":5726:5835   */\n          swap3\n          pop\n            /* \"#utility.yul\":5528:5845   */\n          pop\n            /* \"#utility.yul\":5905:5907   */\n          0x40\n            /* \"#utility.yul\":5894:5903   */\n          dup5\n            /* \"#utility.yul\":5890:5908   */\n          add\n            /* \"#utility.yul\":5884:5909   */\n          mload\n            /* \"#utility.yul\":5936:5954   */\n          0xffffffffffffffff\n            /* \"#utility.yul\":5928:5934   */\n          dup2\n            /* \"#utility.yul\":5925:5955   */\n          gt\n            /* \"#utility.yul\":5922:6039   */\n          iszero\n          tag_128\n          jumpi\n            /* \"#utility.yul\":5958:6037   */\n          tag_129\n          tag_35\n          jump\t// in\n        tag_129:\n            /* \"#utility.yul\":5922:6039   */\n        tag_128:\n            /* \"#utility.yul\":6063:6137   */\n          tag_130\n            /* \"#utility.yul\":6129:6136   */\n          dup7\n            /* \"#utility.yul\":6120:6126   */\n          dup3\n            /* \"#utility.yul\":6109:6118   */\n          dup8\n            /* \"#utility.yul\":6105:6127   */\n          add\n            /* \"#utility.yul\":6063:6137   */\n          tag_51\n          jump\t// in\n        tag_130:\n            /* \"#utility.yul\":6053:6137   */\n          swap2\n          pop\n            /* \"#utility.yul\":5855:6147   */\n          pop\n            /* \"#utility.yul\":5095:6154   */\n          swap3\n          pop\n          swap3\n          pop\n          swap3\n          jump\t// out\n            /* \"#utility.yul\":6160:6340   */\n        tag_13:\n            /* \"#utility.yul\":6208:6285   */\n          0x4e487b7100000000000000000000000000000000000000000000000000000000\n            /* \"#utility.yul\":6205:6206   */\n          0x00\n            /* \"#utility.yul\":6198:6286   */\n          mstore\n            /* \"#utility.yul\":6305:6309   */\n          0x32\n            /* \"#utility.yul\":6302:6303   */\n          0x04\n            /* \"#utility.yul\":6295:6310   */\n          mstore\n            /* \"#utility.yul\":6329:6333   */\n          0x24\n            /* \"#utility.yul\":6326:6327   */\n          0x00\n            /* \"#utility.yul\":6319:6334   */\n          revert\n            /* \"#utility.yul\":6346:6445   */\n        tag_54:\n            /* \"#utility.yul\":6398:6404   */\n          0x00\n            /* \"#utility.yul\":6432:6437   */\n          dup2\n            /* \"#utility.yul\":6426:6438   */\n          mload\n            /* \"#utility.yul\":6416:6438   */\n          swap1\n          pop\n            /* \"#utility.yul\":6346:6445   */\n          swap2\n          swap1\n          pop\n          jump\t// out\n            /* \"#utility.yul\":6451:6599   */\n        tag_55:\n            /* \"#utility.yul\":6553:6564   */\n          0x00\n            /* \"#utility.yul\":6590:6593   */\n          dup2\n            /* \"#utility.yul\":6575:6593   */\n          swap1\n          pop\n            /* \"#utility.yul\":6451:6599   */\n          swap3\n          swap2\n          pop\n          pop\n          jump\t// out\n            /* \"#utility.yul\":6605:6982   */\n        tag_56:\n            /* \"#utility.yul\":6711:6714   */\n          0x00\n            /* \"#utility.yul\":6739:6778   */\n          tag_135\n            /* \"#utility.yul\":6772:6777   */\n          dup3\n            /* \"#utility.yul\":6739:6778   */\n          tag_54\n          jump\t// in\n        tag_135:\n            /* \"#utility.yul\":6794:6883   */\n          tag_136\n            /* \"#utility.yul\":6876:6882   */\n          dup2\n            /* \"#utility.yul\":6871:6874   */\n          dup6\n            /* \"#utility.yul\":6794:6883   */\n          tag_55\n          jump\t// in\n        tag_136:\n            /* \"#utility.yul\":6787:6883   */\n          swap4\n          pop\n            /* \"#utility.yul\":6892:6944   */\n          tag_137\n            /* \"#utility.yul\":6937:6943   */\n          dup2\n            /* \"#utility.yul\":6932:6935   */\n          dup6\n            /* \"#utility.yul\":6925:6929   */\n          0x20\n            /* \"#utility.yul\":6918:6923   */\n          dup7\n            /* \"#utility.yul\":6914:6930   */\n          add\n            /* \"#utility.yul\":6892:6944   */\n          tag_49\n          jump\t// in\n        tag_137:\n            /* \"#utility.yul\":6969:6975   */\n          dup1\n            /* \"#utility.yul\":6964:6967   */\n          dup5\n            /* \"#utility.yul\":6960:6976   */\n          add\n            /* \"#utility.yul\":6953:6976   */\n          swap2\n          pop\n            /* \"#utility.yul\":6715:6982   */\n          pop\n            /* \"#utility.yul\":6605:6982   */\n          swap3\n          swap2\n          pop\n          pop\n          jump\t// out\n            /* \"#utility.yul\":6988:7263   */\n        tag_17:\n            /* \"#utility.yul\":7120:7123   */\n          0x00\n            /* \"#utility.yul\":7142:7237   */\n          tag_139\n            /* \"#utility.yul\":7233:7236   */\n          dup3\n            /* \"#utility.yul\":7224:7230   */\n          dup5\n            /* \"#utility.yul\":7142:7237   */\n          tag_56\n          jump\t// in\n        tag_139:\n            /* \"#utility.yul\":7135:7237   */\n          swap2\n          pop\n            /* \"#utility.yul\":7254:7257   */\n          dup2\n            /* \"#utility.yul\":7247:7257   */\n          swap1\n          pop\n            /* \"#utility.yul\":6988:7263   */\n          swap3\n          swap2\n          pop\n          pop\n          jump\t// out\n            /* \"#utility.yul\":7269:7449   */\n        tag_57:\n            /* \"#utility.yul\":7317:7394   */\n          0x4e487b7100000000000000000000000000000000000000000000000000000000\n            /* \"#utility.yul\":7314:7315   */\n          0x00\n            /* \"#utility.yul\":7307:7395   */\n          mstore\n            /* \"#utility.yul\":7414:7418   */\n          0x11\n            /* \"#utility.yul\":7411:7412   */\n          0x04\n            /* \"#utility.yul\":7404:7419   */\n          mstore\n            /* \"#utility.yul\":7438:7442   */\n          0x24\n            /* \"#utility.yul\":7435:7436   */\n          0x00\n            /* \"#utility.yul\":7428:7443   */\n          revert\n            /* \"#utility.yul\":7455:7532   */\n        tag_58:\n            /* \"#utility.yul\":7492:7499   */\n          0x00\n            /* \"#utility.yul\":7521:7526   */\n          dup2\n            /* \"#utility.yul\":7510:7526   */\n          swap1\n          pop\n            /* \"#utility.yul\":7455:7532   */\n          swap2\n          swap1\n          pop\n          jump\t// out\n            /* \"#utility.yul\":7538:7771   */\n        tag_20:\n            /* \"#utility.yul\":7577:7580   */\n          0x00\n            /* \"#utility.yul\":7600:7624   */\n          tag_143\n            /* \"#utility.yul\":7618:7623   */\n          dup3\n            /* \"#utility.yul\":7600:7624   */\n          tag_58\n          jump\t// in\n        tag_143:\n            /* \"#utility.yul\":7591:7624   */\n          swap2\n          pop\n            /* \"#utility.yul\":7646:7712   */\n          0xffffffffffffffffffffffffffffffffffffffffffffffffffffffffffffffff\n            /* \"#utility.yul\":7639:7644   */\n          dup3\n            /* \"#utility.yul\":7636:7713   */\n          eq\n            /* \"#utility.yul\":7633:7736   */\n          iszero\n          tag_144\n          jumpi\n            /* \"#utility.yul\":7716:7734   */\n          tag_145\n          tag_57\n          jump\t// in\n        tag_145:\n            /* \"#utility.yul\":7633:7736   */\n        tag_144:\n            /* \"#utility.yul\":7763:7764   */\n          0x01\n            /* \"#utility.yul\":7756:7761   */\n          dup3\n            /* \"#utility.yul\":7752:7765   */\n          add\n            /* \"#utility.yul\":7745:7765   */\n          swap1\n          pop\n            /* \"#utility.yul\":7538:7771   */\n          swap2\n          swap1\n          pop\n          jump\t// out\n            /* \"#utility.yul\":7777:7957   */\n        tag_59:\n            /* \"#utility.yul\":7825:7902   */\n          0x4e487b7100000000000000000000000000000000000000000000000000000000\n            /* \"#utility.yul\":7822:7823   */\n          0x00\n            /* \"#utility.yul\":7815:7903   */\n          mstore\n            /* \"#utility.yul\":7922:7926   */\n          0x22\n            /* \"#utility.yul\":7919:7920   */\n          0x04\n            /* \"#utility.yul\":7912:7927   */\n          mstore\n            /* \"#utility.yul\":7946:7950   */\n          0x24\n            /* \"#utility.yul\":7943:7944   */\n          0x00\n            /* \"#utility.yul\":7936:7951   */\n          revert\n            /* \"#utility.yul\":7963:8283   */\n        tag_23:\n            /* \"#utility.yul\":8007:8013   */\n          0x00\n            /* \"#utility.yul\":8044:8045   */\n          0x02\n            /* \"#utility.yul\":8038:8042   */\n          dup3\n            /* \"#utility.yul\":8034:8046   */\n          div\n            /* \"#utility.yul\":8024:8046   */\n          swap1\n          pop\n            /* \"#utility.yul\":8091:8092   */\n          0x01\n            /* \"#utility.yul\":8085:8089   */\n          dup3\n            /* \"#utility.yul\":8081:8093   */\n          and\n            /* \"#utility.yul\":8112:8130   */\n          dup1\n            /* \"#utility.yul\":8102:8183   */\n          tag_148\n          jumpi\n            /* \"#utility.yul\":8168:8172   */\n          0x7f\n            /* \"#utility.yul\":8160:8166   */\n          dup3\n            /* \"#utility.yul\":8156:8173   */\n          and\n            /* \"#utility.yul\":8146:8173   */\n          swap2\n          pop\n            /* \"#utility.yul\":8102:8183   */\n        tag_148:\n            /* \"#utility.yul\":8230:8232   */\n          0x20\n            /* \"#utility.yul\":8222:8228   */\n          dup3\n            /* \"#utility.yul\":8219:8233   */\n          lt\n            /* \"#utility.yul\":8199:8217   */\n          dup2\n            /* \"#utility.yul\":8196:8234   */\n          eq\n            /* \"#utility.yul\":8193:8277   */\n          iszero\n          tag_149\n          jumpi\n            /* \"#utility.yul\":8249:8267   */\n          tag_150\n          tag_59\n          jump\t// in\n        tag_150:\n            /* \"#utility.yul\":8193:8277   */\n        tag_149:\n            /* \"#utility.yul\":8014:8283   */\n          pop\n            /* \"#utility.yul\":7963:8283   */\n          swap2\n          swap1\n          pop\n          jump\t// out\n            /* \"Devote.sol\":426:2799  contract Election {... */\n        tag_21:\n          dataSize(sub_0)\n          dup1\n          dataOffset(sub_0)\n          0x00\n          codecopy\n          0x00\n          return\n        stop\n\n        sub_0: assembly {\n                /* \"Devote.sol\":426:2799  contract Election {... */\n              mstore(0x40, 0x80)\n              callvalue\n              dup1\n              iszero\n              tag_1\n              jumpi\n              0x00\n              dup1\n              revert\n            tag_1:\n              pop\n              jumpi(tag_2, lt(calldatasize, 0x04))\n              shr(0xe0, calldataload(0x00))\n              dup1\n              0x5d495aea\n              gt\n              tag_11\n              jumpi\n              dup1\n              0x5d495aea\n              eq\n              tag_7\n              jumpi\n              dup1\n              0x8da5cb5b\n              eq\n              tag_8\n              jumpi\n              dup1\n              0xa6385803\n              eq\n              tag_9\n              jumpi\n              dup1\n              0xcad98e2b\n              eq\n              tag_10\n              jumpi\n              jump(tag_2)\n            tag_11:\n              dup1\n              0x3477ee2e\n              eq\n              tag_3\n              jumpi\n              dup1\n              0x4a79d50c\n              eq\n              tag_4\n              jumpi\n              dup1\n              0x53fa2e64\n              eq\n              tag_5\n              jumpi\n              dup1\n              0x565974d3\n              eq\n              tag_6\n              jumpi\n            tag_2:\n              0x00\n              dup1\n              revert\n                /* \"Devote.sol\":807:836  Candidate[] public candidates */\n            tag_3:\n              tag_12\n              0x04\n              dup1\n              calldatasize\n              sub\n              dup2\n              add\n              swap1\n              tag_13\n              swap2\n              swap1\n              tag_14\n              jump\t// in\n            tag_13:\n              tag_15\n              jump\t// in\n            tag_12:\n              mload(0x40)\n              tag_16\n              swap5\n              swap4\n              swap3\n              swap2\n              swap1\n              tag_17\n              jump\t// in\n            tag_16:\n              mload(0x40)\n              dup1\n              swap2\n              sub\n              swap1\n              return\n                /* \"Devote.sol\":736:755  string public title */\n            tag_4:\n              tag_18\n              tag_19\n              jump\t// in\n            tag_18:\n              mload(0x40)\n              tag_20\n              swap2\n              swap1\n              tag_21\n              jump\t// in\n            tag_20:\n              mload(0x40)\n              dup1\n              swap2\n              sub\n              swap1\n              return\n                /* \"Devote.sol\":762:800  mapping(string => Voter) public voters */\n            tag_5:\n              tag_22\n              0x04\n              dup1\n              calldatasize\n              sub\n              dup2\n              add\n              swap1\n              tag_23\n              swap2\n              swap1\n              tag_24\n              jump\t// in\n            tag_23:\n              tag_25\n              jump\t// in\n            tag_22:\n              mload(0x40)\n              tag_26\n              swap5\n              swap4\n              swap3\n              swap2\n              swap1\n              tag_27\n              jump\t// in\n            tag_26:\n              mload(0x40)\n              dup1\n              swap2\n              sub\n              swap1\n              return\n                /* \"Devote.sol\":2179:2397  function details()... */\n            tag_6:\n              tag_28\n              tag_29\n              jump\t// in\n            tag_28:\n              mload(0x40)\n              tag_30\n              swap4\n              swap3\n              swap2\n              swap1\n              tag_31\n              jump\t// in\n            tag_30:\n              mload(0x40)\n              dup1\n              swap2\n              sub\n              swap1\n              return\n                /* \"Devote.sol\":2405:2796  function pickWinner() public view onlyManager returns (string memory) {... */\n            tag_7:\n              tag_32\n              tag_33\n              jump\t// in\n            tag_32:\n              mload(0x40)\n              tag_34\n              swap2\n              swap1\n              tag_21\n              jump\t// in\n            tag_34:\n              mload(0x40)\n              dup1\n              swap2\n              sub\n              swap1\n              return\n                /* \"Devote.sol\":709:729  address public owner */\n            tag_8:\n              tag_35\n              tag_36\n              jump\t// in\n            tag_35:\n              mload(0x40)\n              tag_37\n              swap2\n              swap1\n              tag_38\n              jump\t// in\n            tag_37:\n              mload(0x40)\n              dup1\n              swap2\n              sub\n              swap1\n              return\n                /* \"Devote.sol\":1704:2171  function vote(string memory idHash, uint256 index) public {... */\n            tag_9:\n              tag_39\n              0x04\n              dup1\n              calldatasize\n              sub\n              dup2\n              add\n              swap1\n              tag_40\n              swap2\n              swap1\n              tag_41\n              jump\t// in\n            tag_40:\n              tag_42\n              jump\t// in\n            tag_39:\n              stop\n                /* \"Devote.sol\":1397:1696  function nominate(string memory _name, string memory _partyName) public {... */\n            tag_10:\n              tag_43\n              0x04\n              dup1\n              calldatasize\n              sub\n              dup2\n              add\n              swap1\n              tag_44\n              swap2\n              swap1\n              tag_45\n              jump\t// in\n            tag_44:\n              tag_46\n              jump\t// in\n            tag_43:\n              stop\n                /* \"Devote.sol\":807:836  Candidate[] public candidates */\n            tag_15:\n              0x03\n              dup2\n              dup2\n              sload\n              dup2\n              lt\n              tag_47\n              jumpi\n              0x00\n              dup1\n              revert\n            tag_47:\n              swap1\n              0x00\n              mstore\n              keccak256(0x00, 0x20)\n              swap1\n              0x04\n              mul\n              add\n              0x00\n              swap2\n              pop\n              swap1\n              pop\n              dup1\n              0x00\n              add\n              0x00\n              swap1\n              sload\n              swap1\n              0x0100\n              exp\n              swap1\n              div\n              0xffffffffffffffffffffffffffffffffffffffff\n              and\n              swap1\n              dup1\n              0x01\n              add\n              dup1\n              sload\n              tag_49\n              swap1\n              tag_50\n              jump\t// in\n            tag_49:\n              dup1\n              0x1f\n              add\n              0x20\n              dup1\n              swap2\n              div\n              mul\n              0x20\n              add\n              mload(0x40)\n              swap1\n              dup2\n              add\n              0x40\n              mstore\n              dup1\n              swap3\n              swap2\n              swap1\n              dup2\n              dup2\n              mstore\n              0x20\n              add\n              dup3\n              dup1\n              sload\n              tag_51\n              swap1\n              tag_50\n              jump\t// in\n            tag_51:\n              dup1\n              iszero\n              tag_52\n              jumpi\n              dup1\n              0x1f\n              lt\n              tag_53\n              jumpi\n              0x0100\n              dup1\n              dup4\n              sload\n              div\n              mul\n              dup4\n              mstore\n              swap2\n              0x20\n              add\n              swap2\n              jump(tag_52)\n            tag_53:\n              dup3\n              add\n              swap2\n              swap1\n              0x00\n              mstore\n              keccak256(0x00, 0x20)\n              swap1\n            tag_54:\n              dup2\n              sload\n              dup2\n              mstore\n              swap1\n              0x01\n              add\n              swap1\n              0x20\n              add\n              dup1\n              dup4\n              gt\n              tag_54\n              jumpi\n              dup3\n              swap1\n              sub\n              0x1f\n              and\n              dup3\n              add\n              swap2\n            tag_52:\n              pop\n              pop\n              pop\n              pop\n              pop\n              swap1\n              dup1\n              0x02\n              add\n              dup1\n              sload\n              tag_55\n              swap1\n              tag_50\n              jump\t// in\n            tag_55:\n              dup1\n              0x1f\n              add\n              0x20\n              dup1\n              swap2\n              div\n              mul\n              0x20\n              add\n              mload(0x40)\n              swap1\n              dup2\n              add\n              0x40\n              mstore\n              dup1\n              swap3\n              swap2\n              swap1\n              dup2\n              dup2\n              mstore\n              0x20\n              add\n              dup3\n              dup1\n              sload\n              tag_56\n              swap1\n              tag_50\n              jump\t// in\n            tag_56:\n              dup1\n              iszero\n              tag_57\n              jumpi\n              dup1\n              0x1f\n              lt\n              tag_58\n              jumpi\n              0x0100\n              dup1\n              dup4\n              sload\n              div\n              mul\n              dup4\n              mstore\n              swap2\n              0x20\n              add\n              swap2\n              jump(tag_57)\n            tag_58:\n              dup3\n              add\n              swap2\n              swap1\n              0x00\n              mstore\n              keccak256(0x00, 0x20)\n              swap1\n            tag_59:\n              dup2\n              sload\n              dup2\n              mstore\n              swap1\n              0x01\n              add\n              swap1\n              0x20\n              add\n              dup1\n              dup4\n              gt\n              tag_59\n              jumpi\n              dup3\n              swap1\n              sub\n              0x1f\n              and\n              dup3\n              add\n              swap2\n            tag_57:\n              pop\n              pop\n              pop\n              pop\n              pop\n              swap1\n              dup1\n              0x03\n              add\n              sload\n              swap1\n              pop\n              dup5\n              jump\t// out\n                /* \"Devote.sol\":736:755  string public title */\n            tag_19:\n              0x01\n              dup1\n              sload\n              tag_60\n              swap1\n              tag_50\n              jump\t// in\n            tag_60:\n              dup1\n              0x1f\n              add\n              0x20\n              dup1\n              swap2\n              div\n              mul\n              0x20\n              add\n              mload(0x40)\n              swap1\n              dup2\n              add\n              0x40\n              mstore\n              dup1\n              swap3\n              swap2\n              swap1\n              dup2\n              dup2\n              mstore\n              0x20\n              add\n              dup3\n              dup1\n              sload\n              tag_61\n              swap1\n              tag_50\n              jump\t// in\n            tag_61:\n              dup1\n              iszero\n              tag_62\n              jumpi\n              dup1\n              0x1f\n              lt\n              tag_63\n              jumpi\n              0x0100\n              dup1\n              dup4\n              sload\n              div\n              mul\n              dup4\n              mstore\n              swap2\n              0x20\n              add\n              swap2\n              jump(tag_62)\n            tag_63:\n              dup3\n              add\n              swap2\n              swap1\n              0x00\n              mstore\n              keccak256(0x00, 0x20)\n              swap1\n            tag_64:\n              dup2\n              sload\n              dup2\n              mstore\n              swap1\n              0x01\n              add\n              swap1\n              0x20\n              add\n              dup1\n              dup4\n              gt\n              tag_64\n              jumpi\n              dup3\n              swap1\n              sub\n              0x1f\n              and\n              dup3\n              add\n              swap2\n            tag_62:\n              pop\n              pop\n              pop\n              pop\n              pop\n              dup2\n              jump\t// out\n                /* \"Devote.sol\":762:800  mapping(string => Voter) public voters */\n            tag_25:\n              0x02\n              dup2\n              dup1\n              mload\n              0x20\n              dup2\n              add\n              dup3\n              add\n              dup1\n              mload\n              dup5\n              dup3\n              mstore\n              0x20\n              dup4\n              add\n              0x20\n              dup6\n              add\n              keccak256\n              dup2\n              dup4\n              mstore\n              dup1\n              swap6\n              pop\n              pop\n              pop\n              pop\n              pop\n              pop\n              0x00\n              swap2\n              pop\n              swap1\n              pop\n              dup1\n              0x00\n              add\n              dup1\n              sload\n              tag_65\n              swap1\n              tag_50\n              jump\t// in\n            tag_65:\n              dup1\n              0x1f\n              add\n              0x20\n              dup1\n              swap2\n              div\n              mul\n              0x20\n              add\n              mload(0x40)\n              swap1\n              dup2\n              add\n              0x40\n              mstore\n              dup1\n              swap3\n              swap2\n              swap1\n              dup2\n              dup2\n              mstore\n              0x20\n              add\n              dup3\n              dup1\n              sload\n              tag_66\n              swap1\n              tag_50\n              jump\t// in\n            tag_66:\n              dup1\n              iszero\n              tag_67\n              jumpi\n              dup1\n              0x1f\n              lt\n              tag_68\n              jumpi\n              0x0100\n              dup1\n              dup4\n              sload\n              div\n              mul\n              dup4\n              mstore\n              swap2\n              0x20\n              add\n              swap2\n              jump(tag_67)\n            tag_68:\n              dup3\n              add\n              swap2\n              swap1\n              0x00\n              mstore\n              keccak256(0x00, 0x20)\n              swap1\n            tag_69:\n              dup2\n              sload\n              dup2\n              mstore\n              swap1\n              0x01\n              add\n              swap1\n              0x20\n              add\n              dup1\n              dup4\n              gt\n              tag_69\n              jumpi\n              dup3\n              swap1\n              sub\n              0x1f\n              and\n              dup3\n              add\n              swap2\n            tag_67:\n              pop\n              pop\n              pop\n              pop\n              pop\n              swap1\n              dup1\n              0x01\n              add\n              sload\n              swap1\n              dup1\n              0x02\n              add\n              0x00\n              swap1\n              sload\n              swap1\n              0x0100\n              exp\n              swap1\n              div\n              0xff\n              and\n              swap1\n              dup1\n              0x02\n              add\n              0x01\n              swap1\n              sload\n              swap1\n              0x0100\n              exp\n              swap1\n              div\n              0xffffffffffffffffffffffffffffffffffffffff\n              and\n              swap1\n              pop\n              dup5\n              jump\t// out\n                /* \"Devote.sol\":2179:2397  function details()... */\n            tag_29:\n                /* \"Devote.sol\":2260:2267  address */\n              0x00\n                /* \"Devote.sol\":2282:2295  string memory */\n              0x60\n                /* \"Devote.sol\":2310:2328  Candidate[] memory */\n              dup1\n                /* \"Devote.sol\":2364:2369  owner */\n              0x00\n              dup1\n              sload\n              swap1\n              0x0100\n              exp\n              swap1\n              div\n              0xffffffffffffffffffffffffffffffffffffffff\n              and\n                /* \"Devote.sol\":2371:2376  title */\n              0x01\n                /* \"Devote.sol\":2378:2388  candidates */\n              0x03\n                /* \"Devote.sol\":2356:2389  return (owner, title, candidates) */\n              dup2\n              dup1\n              sload\n              tag_71\n              swap1\n              tag_50\n              jump\t// in\n            tag_71:\n              dup1\n              0x1f\n              add\n              0x20\n              dup1\n              swap2\n              div\n              mul\n              0x20\n              add\n              mload(0x40)\n              swap1\n              dup2\n              add\n              0x40\n              mstore\n              dup1\n              swap3\n              swap2\n              swap1\n              dup2\n              dup2\n              mstore\n              0x20\n              add\n              dup3\n              dup1\n              sload\n              tag_72\n              swap1\n              tag_50\n              jump\t// in\n            tag_72:\n              dup1\n              iszero\n              tag_73\n              jumpi\n              dup1\n              0x1f\n              lt\n              tag_74\n              jumpi\n              0x0100\n              dup1\n              dup4\n              sload\n              div\n              mul\n              dup4\n              mstore\n              swap2\n              0x20\n              add\n              swap2\n              jump(tag_73)\n            tag_74:\n              dup3\n              add\n              swap2\n              swap1\n              0x00\n              mstore\n              keccak256(0x00, 0x20)\n              swap1\n            tag_75:\n              dup2\n              sload\n              dup2\n              mstore\n              swap1\n              0x01\n              add\n              swap1\n              0x20\n              add\n              dup1\n              dup4\n              gt\n              tag_75\n              jumpi\n              dup3\n              swap1\n              sub\n              0x1f\n              and\n              dup3\n              add\n              swap2\n            tag_73:\n              pop\n              pop\n              pop\n              pop\n              pop\n              swap2\n              pop\n              dup1\n              dup1\n              sload\n              dup1\n              0x20\n              mul\n              0x20\n              add\n              mload(0x40)\n              swap1\n              dup2\n              add\n              0x40\n              mstore\n              dup1\n              swap3\n              swap2\n              swap1\n              dup2\n              dup2\n              mstore\n              0x20\n              add\n              0x00\n              swap1\n            tag_76:\n              dup3\n              dup3\n              lt\n              iszero\n              tag_77\n              jumpi\n              dup4\n              dup3\n              swap1\n              0x00\n              mstore\n              keccak256(0x00, 0x20)\n              swap1\n              0x04\n              mul\n              add\n              mload(0x40)\n              dup1\n              0x80\n              add\n              0x40\n              mstore\n              swap1\n              dup2\n              0x00\n              dup3\n              add\n              0x00\n              swap1\n              sload\n              swap1\n              0x0100\n              exp\n              swap1\n              div\n              0xffffffffffffffffffffffffffffffffffffffff\n              and\n              0xffffffffffffffffffffffffffffffffffffffff\n              and\n              0xffffffffffffffffffffffffffffffffffffffff\n              and\n              dup2\n              mstore\n              0x20\n              add\n              0x01\n              dup3\n              add\n              dup1\n              sload\n              tag_79\n              swap1\n              tag_50\n              jump\t// in\n            tag_79:\n              dup1\n              0x1f\n              add\n              0x20\n              dup1\n              swap2\n              div\n              mul\n              0x20\n              add\n              mload(0x40)\n              swap1\n              dup2\n              add\n              0x40\n              mstore\n              dup1\n              swap3\n              swap2\n              swap1\n              dup2\n              dup2\n              mstore\n              0x20\n              add\n              dup3\n              dup1\n              sload\n              tag_80\n              swap1\n              tag_50\n              jump\t// in\n            tag_80:\n              dup1\n              iszero\n              tag_81\n              jumpi\n              dup1\n              0x1f\n              lt\n              tag_82\n              jumpi\n              0x0100\n              dup1\n              dup4\n              sload\n              div\n              mul\n              dup4\n              mstore\n              swap2\n              0x20\n              add\n              swap2\n              jump(tag_81)\n            tag_82:\n              dup3\n              add\n              swap2\n              swap1\n              0x00\n              mstore\n              keccak256(0x00, 0x20)\n              swap1\n            tag_83:\n              dup2\n              sload\n              dup2\n              mstore\n              swap1\n              0x01\n              add\n              swap1\n              0x20\n              add\n              dup1\n              dup4\n              gt\n              tag_83\n              jumpi\n              dup3\n              swap1\n              sub\n              0x1f\n              and\n              dup3\n              add\n              swap2\n            tag_81:\n              pop\n              pop\n              pop\n              pop\n              pop\n              dup2\n              mstore\n              0x20\n              add\n              0x02\n              dup3\n              add\n              dup1\n              sload\n              tag_84\n              swap1\n              tag_50\n              jump\t// in\n            tag_84:\n              dup1\n              0x1f\n              add\n              0x20\n              dup1\n              swap2\n              div\n              mul\n              0x20\n              add\n              mload(0x40)\n              swap1\n              dup2\n              add\n              0x40\n              mstore\n              dup1\n              swap3\n              swap2\n              swap1\n              dup2\n              dup2\n              mstore\n              0x20\n              add\n              dup3\n              dup1\n              sload\n              tag_85\n              swap1\n              tag_50\n              jump\t// in\n            tag_85:\n              dup1\n              iszero\n              tag_86\n              jumpi\n              dup1\n              0x1f\n              lt\n              tag_87\n              jumpi\n              0x0100\n              dup1\n              dup4\n              sload\n              div\n              mul\n              dup4\n              mstore\n              swap2\n              0x20\n              add\n              swap2\n              jump(tag_86)\n            tag_87:\n              dup3\n              add\n              swap2\n              swap1\n              0x00\n              mstore\n              keccak256(0x00, 0x20)\n              swap1\n            tag_88:\n              dup2\n              sload\n              dup2\n              mstore\n              swap1\n              0x01\n              add\n              swap1\n              0x20\n              add\n              dup1\n              dup4\n              gt\n              tag_88\n              jumpi\n              dup3\n              swap1\n              sub\n              0x1f\n              and\n              dup3\n              add\n              swap2\n            tag_86:\n              pop\n              pop\n              pop\n              pop\n              pop\n              dup2\n              mstore\n              0x20\n              add\n              0x03\n              dup3\n              add\n              sload\n              dup2\n              mstore\n              pop\n              pop\n              dup2\n              mstore\n              0x20\n              add\n              swap1\n              0x01\n              add\n              swap1\n              jump(tag_76)\n            tag_77:\n              pop\n              pop\n              pop\n              pop\n              swap1\n              pop\n              swap3\n              pop\n              swap3\n              pop\n              swap3\n              pop\n                /* \"Devote.sol\":2179:2397  function details()... */\n              swap1\n              swap2\n              swap3\n              jump\t// out\n                /* \"Devote.sol\":2405:2796  function pickWinner() public view onlyManager returns (string memory) {... */\n            tag_33:\n                /* \"Devote.sol\":2460:2473  string memory */\n              0x60\n                /* \"Devote.sol\":901:906  owner */\n              0x00\n              dup1\n              sload\n              swap1\n              0x0100\n              exp\n              swap1\n              div\n              0xffffffffffffffffffffffffffffffffffffffff\n              and\n                /* \"Devote.sol\":887:906  msg.sender == owner */\n              0xffffffffffffffffffffffffffffffffffffffff\n              and\n                /* \"Devote.sol\":887:897  msg.sender */\n              caller\n                /* \"Devote.sol\":887:906  msg.sender == owner */\n              0xffffffffffffffffffffffffffffffffffffffff\n              and\n              eq\n                /* \"Devote.sol\":879:946  require(msg.sender == owner, \"Only manager can call this function\") */\n              tag_90\n              jumpi\n              mload(0x40)\n              0x08c379a000000000000000000000000000000000000000000000000000000000\n              dup2\n              mstore\n              0x04\n              add\n              tag_91\n              swap1\n              tag_92\n              jump\t// in\n            tag_91:\n              mload(0x40)\n              dup1\n              swap2\n              sub\n              swap1\n              revert\n            tag_90:\n                /* \"Devote.sol\":2486:2506  string memory winner */\n              0x60\n                /* \"Devote.sol\":2517:2529  uint256 curr */\n              0x00\n                /* \"Devote.sol\":2549:2558  uint256 i */\n              dup1\n                /* \"Devote.sol\":2544:2765  for (uint256 i = 0; i < candidates.length; i++) {... */\n            tag_94:\n                /* \"Devote.sol\":2568:2578  candidates */\n              0x03\n                /* \"Devote.sol\":2568:2585  candidates.length */\n              dup1\n              sload\n              swap1\n              pop\n                /* \"Devote.sol\":2564:2565  i */\n              dup2\n                /* \"Devote.sol\":2564:2585  i < candidates.length */\n              lt\n                /* \"Devote.sol\":2544:2765  for (uint256 i = 0; i < candidates.length; i++) {... */\n              iszero\n              tag_95\n              jumpi\n                /* \"Devote.sol\":2637:2641  curr */\n              dup2\n                /* \"Devote.sol\":2611:2621  candidates */\n              0x03\n                /* \"Devote.sol\":2622:2623  i */\n              dup3\n                /* \"Devote.sol\":2611:2624  candidates[i] */\n              dup2\n              sload\n              dup2\n              lt\n              tag_97\n              jumpi\n              tag_98\n              tag_99\n              jump\t// in\n            tag_98:\n            tag_97:\n              swap1\n              0x00\n              mstore\n              keccak256(0x00, 0x20)\n              swap1\n              0x04\n              mul\n              add\n                /* \"Devote.sol\":2611:2634  candidates[i].voteCount */\n              0x03\n              add\n              sload\n                /* \"Devote.sol\":2611:2641  candidates[i].voteCount > curr */\n              gt\n                /* \"Devote.sol\":2607:2754  if (candidates[i].voteCount > curr) {... */\n              iszero\n              tag_101\n              jumpi\n                /* \"Devote.sol\":2671:2681  candidates */\n              0x03\n                /* \"Devote.sol\":2682:2683  i */\n              dup2\n                /* \"Devote.sol\":2671:2684  candidates[i] */\n              dup2\n              sload\n              dup2\n              lt\n              tag_102\n              jumpi\n              tag_103\n              tag_99\n              jump\t// in\n            tag_103:\n            tag_102:\n              swap1\n              0x00\n              mstore\n              keccak256(0x00, 0x20)\n              swap1\n              0x04\n              mul\n              add\n                /* \"Devote.sol\":2671:2689  candidates[i].name */\n              0x01\n              add\n                /* \"Devote.sol\":2662:2689  winner = candidates[i].name */\n              dup1\n              sload\n              tag_105\n              swap1\n              tag_50\n              jump\t// in\n            tag_105:\n              dup1\n              0x1f\n              add\n              0x20\n              dup1\n              swap2\n              div\n              mul\n              0x20\n              add\n              mload(0x40)\n              swap1\n              dup2\n              add\n              0x40\n              mstore\n              dup1\n              swap3\n              swap2\n              swap1\n              dup2\n              dup2\n              mstore\n              0x20\n              add\n              dup3\n              dup1\n              sload\n              tag_106\n              swap1\n              tag_50\n              jump\t// in\n            tag_106:\n              dup1\n              iszero\n              tag_107\n              jumpi\n              dup1\n              0x1f\n              lt\n              tag_108\n              jumpi\n              0x0100\n              dup1\n              dup4\n              sload\n              div\n              mul\n              dup4\n              mstore\n              swap2\n              0x20\n              add\n              swap2\n              jump(tag_107)\n            tag_108:\n              dup3\n              add\n              swap2\n              swap1\n              0x00\n              mstore\n              keccak256(0x00, 0x20)\n              swap1\n            tag_109:\n              dup2\n              sload\n              dup2\n              mstore\n              swap1\n              0x01\n              add\n              swap1\n              0x20\n              add\n              dup1\n              dup4\n              gt\n              tag_109\n              jumpi\n              dup3\n              swap1\n              sub\n              0x1f\n              and\n              dup3\n              add\n              swap2\n            tag_107:\n              pop\n              pop\n              pop\n              pop\n              pop\n              swap3\n              pop\n                /* \"Devote.sol\":2715:2725  candidates */\n              0x03\n                /* \"Devote.sol\":2726:2727  i */\n              dup2\n                /* \"Devote.sol\":2715:2728  candidates[i] */\n              dup2\n              sload\n              dup2\n              lt\n              tag_110\n              jumpi\n              tag_111\n              tag_99\n              jump\t// in\n            tag_111:\n            tag_110:\n              swap1\n              0x00\n              mstore\n              keccak256(0x00, 0x20)\n              swap1\n              0x04\n              mul\n              add\n                /* \"Devote.sol\":2715:2738  candidates[i].voteCount */\n              0x03\n              add\n              sload\n                /* \"Devote.sol\":2708:2738  curr = candidates[i].voteCount */\n              swap2\n              pop\n                /* \"Devote.sol\":2607:2754  if (candidates[i].voteCount > curr) {... */\n            tag_101:\n                /* \"Devote.sol\":2587:2590  i++ */\n              dup1\n              dup1\n              tag_113\n              swap1\n              tag_114\n              jump\t// in\n            tag_113:\n              swap2\n              pop\n              pop\n                /* \"Devote.sol\":2544:2765  for (uint256 i = 0; i < candidates.length; i++) {... */\n              jump(tag_94)\n            tag_95:\n              pop\n                /* \"Devote.sol\":2782:2788  winner */\n              dup2\n                /* \"Devote.sol\":2775:2788  return winner */\n              swap3\n              pop\n              pop\n              pop\n                /* \"Devote.sol\":2405:2796  function pickWinner() public view onlyManager returns (string memory) {... */\n              swap1\n              jump\t// out\n                /* \"Devote.sol\":709:729  address public owner */\n            tag_36:\n              0x00\n              dup1\n              sload\n              swap1\n              0x0100\n              exp\n              swap1\n              div\n              0xffffffffffffffffffffffffffffffffffffffff\n              and\n              dup2\n              jump\t// out\n                /* \"Devote.sol\":1704:2171  function vote(string memory idHash, uint256 index) public {... */\n            tag_42:\n                /* \"Devote.sol\":1820:1821  1 */\n              0x01\n                /* \"Devote.sol\":1795:1801  voters */\n              0x02\n                /* \"Devote.sol\":1802:1808  idHash */\n              dup4\n                /* \"Devote.sol\":1795:1809  voters[idHash] */\n              mload(0x40)\n              tag_116\n              swap2\n              swap1\n              tag_117\n              jump\t// in\n            tag_116:\n              swap1\n              dup2\n              mstore\n              0x20\n              add\n              mload(0x40)\n              dup1\n              swap2\n              sub\n              swap1\n              keccak256\n                /* \"Devote.sol\":1795:1816  voters[idHash].weight */\n              0x01\n              add\n              sload\n                /* \"Devote.sol\":1795:1821  voters[idHash].weight == 1 */\n              eq\n                /* \"Devote.sol\":1773:1895  require(... */\n              tag_118\n              jumpi\n              mload(0x40)\n              0x08c379a000000000000000000000000000000000000000000000000000000000\n              dup2\n              mstore\n              0x04\n              add\n              tag_119\n              swap1\n              tag_120\n              jump\t// in\n            tag_119:\n              mload(0x40)\n              dup1\n              swap2\n              sub\n              swap1\n              revert\n            tag_118:\n                /* \"Devote.sol\":1915:1921  voters */\n              0x02\n                /* \"Devote.sol\":1922:1928  idHash */\n              dup3\n                /* \"Devote.sol\":1915:1929  voters[idHash] */\n              mload(0x40)\n              tag_121\n              swap2\n              swap1\n              tag_117\n              jump\t// in\n            tag_121:\n              swap1\n              dup2\n              mstore\n              0x20\n              add\n              mload(0x40)\n              dup1\n              swap2\n              sub\n              swap1\n              keccak256\n                /* \"Devote.sol\":1915:1935  voters[idHash].voted */\n              0x02\n              add\n              0x00\n              swap1\n              sload\n              swap1\n              0x0100\n              exp\n              swap1\n              div\n              0xff\n              and\n                /* \"Devote.sol\":1914:1935  !voters[idHash].voted */\n              iszero\n                /* \"Devote.sol\":1906:1959  require(!voters[idHash].voted, \"Vote already casted\") */\n              tag_122\n              jumpi\n              mload(0x40)\n              0x08c379a000000000000000000000000000000000000000000000000000000000\n              dup2\n              mstore\n              0x04\n              add\n              tag_123\n              swap1\n              tag_124\n              jump\t// in\n            tag_123:\n              mload(0x40)\n              dup1\n              swap2\n              sub\n              swap1\n              revert\n            tag_122:\n                /* \"Devote.sol\":1986:1996  candidates */\n              0x03\n                /* \"Devote.sol\":1986:2003  candidates.length */\n              dup1\n              sload\n              swap1\n              pop\n                /* \"Devote.sol\":1978:1983  index */\n              dup2\n                /* \"Devote.sol\":1978:2003  index < candidates.length */\n              lt\n                /* \"Devote.sol\":1970:2025  require(index < candidates.length, \"Invalid candidate\") */\n              tag_125\n              jumpi\n              mload(0x40)\n              0x08c379a000000000000000000000000000000000000000000000000000000000\n              dup2\n              mstore\n              0x04\n              add\n              tag_126\n              swap1\n              tag_127\n              jump\t// in\n            tag_126:\n              mload(0x40)\n              dup1\n              swap2\n              sub\n              swap1\n              revert\n            tag_125:\n                /* \"Devote.sol\":2036:2046  candidates */\n              0x03\n                /* \"Devote.sol\":2047:2052  index */\n              dup2\n                /* \"Devote.sol\":2036:2053  candidates[index] */\n              dup2\n              sload\n              dup2\n              lt\n              tag_128\n              jumpi\n              tag_129\n              tag_99\n              jump\t// in\n            tag_129:\n            tag_128:\n              swap1\n              0x00\n              mstore\n              keccak256(0x00, 0x20)\n              swap1\n              0x04\n              mul\n              add\n                /* \"Devote.sol\":2036:2063  candidates[index].voteCount */\n              0x03\n              add\n              0x00\n                /* \"Devote.sol\":2036:2065  candidates[index].voteCount++ */\n              dup2\n              sload\n              dup1\n              swap3\n              swap2\n              swap1\n              tag_131\n              swap1\n              tag_114\n              jump\t// in\n            tag_131:\n              swap2\n              swap1\n              pop\n              sstore\n              pop\n                /* \"Devote.sol\":2099:2103  true */\n              0x01\n                /* \"Devote.sol\":2076:2082  voters */\n              0x02\n                /* \"Devote.sol\":2083:2089  idHash */\n              dup4\n                /* \"Devote.sol\":2076:2090  voters[idHash] */\n              mload(0x40)\n              tag_132\n              swap2\n              swap1\n              tag_117\n              jump\t// in\n            tag_132:\n              swap1\n              dup2\n              mstore\n              0x20\n              add\n              mload(0x40)\n              dup1\n              swap2\n              sub\n              swap1\n              keccak256\n                /* \"Devote.sol\":2076:2096  voters[idHash].voted */\n              0x02\n              add\n              0x00\n                /* \"Devote.sol\":2076:2103  voters[idHash].voted = true */\n              0x0100\n              exp\n              dup2\n              sload\n              dup2\n              0xff\n              mul\n              not\n              and\n              swap1\n              dup4\n              iszero\n              iszero\n              mul\n              or\n              swap1\n              sstore\n              pop\n                /* \"Devote.sol\":2136:2146  candidates */\n              0x03\n                /* \"Devote.sol\":2147:2152  index */\n              dup2\n                /* \"Devote.sol\":2136:2153  candidates[index] */\n              dup2\n              sload\n              dup2\n              lt\n              tag_133\n              jumpi\n              tag_134\n              tag_99\n              jump\t// in\n            tag_134:\n            tag_133:\n              swap1\n              0x00\n              mstore\n              keccak256(0x00, 0x20)\n              swap1\n              0x04\n              mul\n              add\n                /* \"Devote.sol\":2136:2163  candidates[index].uniqueAdd */\n              0x00\n              add\n              0x00\n              swap1\n              sload\n              swap1\n              0x0100\n              exp\n              swap1\n              div\n              0xffffffffffffffffffffffffffffffffffffffff\n              and\n                /* \"Devote.sol\":2114:2120  voters */\n              0x02\n                /* \"Devote.sol\":2121:2127  idHash */\n              dup4\n                /* \"Devote.sol\":2114:2128  voters[idHash] */\n              mload(0x40)\n              tag_136\n              swap2\n              swap1\n              tag_117\n              jump\t// in\n            tag_136:\n              swap1\n              dup2\n              mstore\n              0x20\n              add\n              mload(0x40)\n              dup1\n              swap2\n              sub\n              swap1\n              keccak256\n                /* \"Devote.sol\":2114:2133  voters[idHash].vote */\n              0x02\n              add\n              0x01\n                /* \"Devote.sol\":2114:2163  voters[idHash].vote = candidates[index].uniqueAdd */\n              0x0100\n              exp\n              dup2\n              sload\n              dup2\n              0xffffffffffffffffffffffffffffffffffffffff\n              mul\n              not\n              and\n              swap1\n              dup4\n              0xffffffffffffffffffffffffffffffffffffffff\n              and\n              mul\n              or\n              swap1\n              sstore\n              pop\n                /* \"Devote.sol\":1704:2171  function vote(string memory idHash, uint256 index) public {... */\n              pop\n              pop\n              jump\t// out\n                /* \"Devote.sol\":1397:1696  function nominate(string memory _name, string memory _partyName) public {... */\n            tag_46:\n                /* \"Devote.sol\":1480:1490  candidates */\n              0x03\n                /* \"Devote.sol\":1510:1677  Candidate({... */\n              mload(0x40)\n              dup1\n              0x80\n              add\n              0x40\n              mstore\n              dup1\n                /* \"Devote.sol\":1550:1560  msg.sender */\n              caller\n                /* \"Devote.sol\":1510:1677  Candidate({... */\n              0xffffffffffffffffffffffffffffffffffffffff\n              and\n              dup2\n              mstore\n              0x20\n              add\n                /* \"Devote.sol\":1585:1590  _name */\n              dup5\n                /* \"Devote.sol\":1510:1677  Candidate({... */\n              dup2\n              mstore\n              0x20\n              add\n                /* \"Devote.sol\":1620:1630  _partyName */\n              dup4\n                /* \"Devote.sol\":1510:1677  Candidate({... */\n              dup2\n              mstore\n              0x20\n              add\n                /* \"Devote.sol\":1660:1661  0 */\n              0x00\n                /* \"Devote.sol\":1510:1677  Candidate({... */\n              dup2\n              mstore\n              pop\n                /* \"Devote.sol\":1480:1688  candidates.push(... */\n              swap1\n              dup1\n              0x01\n              dup2\n              sload\n              add\n              dup1\n              dup3\n              sstore\n              dup1\n              swap2\n              pop\n              pop\n              0x01\n              swap1\n              sub\n              swap1\n              0x00\n              mstore\n              keccak256(0x00, 0x20)\n              swap1\n              0x04\n              mul\n              add\n              0x00\n              swap1\n              swap2\n              swap1\n              swap2\n              swap1\n              swap2\n              pop\n              0x00\n              dup3\n              add\n              mload\n              dup2\n              0x00\n              add\n              exp(0x0100, 0x00)\n              dup2\n              sload\n              dup2\n              0xffffffffffffffffffffffffffffffffffffffff\n              mul\n              not\n              and\n              swap1\n              dup4\n              0xffffffffffffffffffffffffffffffffffffffff\n              and\n              mul\n              or\n              swap1\n              sstore\n              pop\n              0x20\n              dup3\n              add\n              mload\n              dup2\n              0x01\n              add\n              swap1\n              dup1\n              mload\n              swap1\n              0x20\n              add\n              swap1\n              tag_139\n              swap3\n              swap2\n              swap1\n              tag_140\n              jump\t// in\n            tag_139:\n              pop\n              0x40\n              dup3\n              add\n              mload\n              dup2\n              0x02\n              add\n              swap1\n              dup1\n              mload\n              swap1\n              0x20\n              add\n              swap1\n              tag_141\n              swap3\n              swap2\n              swap1\n              tag_140\n              jump\t// in\n            tag_141:\n              pop\n              0x60\n              dup3\n              add\n              mload\n              dup2\n              0x03\n              add\n              sstore\n              pop\n              pop\n                /* \"Devote.sol\":1397:1696  function nominate(string memory _name, string memory _partyName) public {... */\n              pop\n              pop\n              jump\t// out\n            tag_140:\n              dup3\n              dup1\n              sload\n              tag_142\n              swap1\n              tag_50\n              jump\t// in\n            tag_142:\n              swap1\n              0x00\n              mstore\n              keccak256(0x00, 0x20)\n              swap1\n              0x1f\n              add\n              0x20\n              swap1\n              div\n              dup2\n              add\n              swap3\n              dup3\n              tag_144\n              jumpi\n              0x00\n              dup6\n              sstore\n              jump(tag_143)\n            tag_144:\n              dup3\n              0x1f\n              lt\n              tag_145\n              jumpi\n              dup1\n              mload\n              not(0xff)\n              and\n              dup4\n              dup1\n              add\n              or\n              dup6\n              sstore\n              jump(tag_143)\n            tag_145:\n              dup3\n              dup1\n              add\n              0x01\n              add\n              dup6\n              sstore\n              dup3\n              iszero\n              tag_143\n              jumpi\n              swap2\n              dup3\n              add\n            tag_146:\n              dup3\n              dup2\n              gt\n              iszero\n              tag_147\n              jumpi\n              dup3\n              mload\n              dup3\n              sstore\n              swap2\n              0x20\n              add\n              swap2\n              swap1\n              0x01\n              add\n              swap1\n              jump(tag_146)\n            tag_147:\n            tag_143:\n              pop\n              swap1\n              pop\n              tag_148\n              swap2\n              swap1\n              tag_149\n              jump\t// in\n            tag_148:\n              pop\n              swap1\n              jump\t// out\n            tag_149:\n            tag_150:\n              dup1\n              dup3\n              gt\n              iszero\n              tag_151\n              jumpi\n              0x00\n              dup2\n              0x00\n              swap1\n              sstore\n              pop\n              0x01\n              add\n              jump(tag_150)\n            tag_151:\n              pop\n              swap1\n              jump\t// out\n                /* \"#utility.yul\":7:82   */\n            tag_152:\n                /* \"#utility.yul\":40:46   */\n              0x00\n                /* \"#utility.yul\":73:75   */\n              0x40\n                /* \"#utility.yul\":67:76   */\n              mload\n                /* \"#utility.yul\":57:76   */\n              swap1\n              pop\n                /* \"#utility.yul\":7:82   */\n              swap1\n              jump\t// out\n                /* \"#utility.yul\":88:205   */\n            tag_153:\n                /* \"#utility.yul\":197:198   */\n              0x00\n                /* \"#utility.yul\":194:195   */\n              dup1\n                /* \"#utility.yul\":187:199   */\n              revert\n                /* \"#utility.yul\":211:328   */\n            tag_154:\n                /* \"#utility.yul\":320:321   */\n              0x00\n                /* \"#utility.yul\":317:318   */\n              dup1\n                /* \"#utility.yul\":310:322   */\n              revert\n                /* \"#utility.yul\":334:411   */\n            tag_155:\n                /* \"#utility.yul\":371:378   */\n              0x00\n                /* \"#utility.yul\":400:405   */\n              dup2\n                /* \"#utility.yul\":389:405   */\n              swap1\n              pop\n                /* \"#utility.yul\":334:411   */\n              swap2\n              swap1\n              pop\n              jump\t// out\n                /* \"#utility.yul\":417:539   */\n            tag_156:\n                /* \"#utility.yul\":490:514   */\n              tag_207\n                /* \"#utility.yul\":508:513   */\n              dup2\n                /* \"#utility.yul\":490:514   */\n              tag_155\n              jump\t// in\n            tag_207:\n                /* \"#utility.yul\":483:488   */\n              dup2\n                /* \"#utility.yul\":480:515   */\n              eq\n                /* \"#utility.yul\":470:533   */\n              tag_208\n              jumpi\n                /* \"#utility.yul\":529:530   */\n              0x00\n                /* \"#utility.yul\":526:527   */\n              dup1\n                /* \"#utility.yul\":519:531   */\n              revert\n                /* \"#utility.yul\":470:533   */\n            tag_208:\n                /* \"#utility.yul\":417:539   */\n              pop\n              jump\t// out\n                /* \"#utility.yul\":545:684   */\n            tag_157:\n                /* \"#utility.yul\":591:596   */\n              0x00\n                /* \"#utility.yul\":629:635   */\n              dup2\n                /* \"#utility.yul\":616:636   */\n              calldataload\n                /* \"#utility.yul\":607:636   */\n              swap1\n              pop\n                /* \"#utility.yul\":645:678   */\n              tag_210\n                /* \"#utility.yul\":672:677   */\n              dup2\n                /* \"#utility.yul\":645:678   */\n              tag_156\n              jump\t// in\n            tag_210:\n                /* \"#utility.yul\":545:684   */\n              swap3\n              swap2\n              pop\n              pop\n              jump\t// out\n                /* \"#utility.yul\":690:1019   */\n            tag_14:\n                /* \"#utility.yul\":749:755   */\n              0x00\n                /* \"#utility.yul\":798:800   */\n              0x20\n                /* \"#utility.yul\":786:795   */\n              dup3\n                /* \"#utility.yul\":777:784   */\n              dup5\n                /* \"#utility.yul\":773:796   */\n              sub\n                /* \"#utility.yul\":769:801   */\n              slt\n                /* \"#utility.yul\":766:885   */\n              iszero\n              tag_212\n              jumpi\n                /* \"#utility.yul\":804:883   */\n              tag_213\n              tag_153\n              jump\t// in\n            tag_213:\n                /* \"#utility.yul\":766:885   */\n            tag_212:\n                /* \"#utility.yul\":924:925   */\n              0x00\n                /* \"#utility.yul\":949:1002   */\n              tag_214\n                /* \"#utility.yul\":994:1001   */\n              dup5\n                /* \"#utility.yul\":985:991   */\n              dup3\n                /* \"#utility.yul\":974:983   */\n              dup6\n                /* \"#utility.yul\":970:992   */\n              add\n                /* \"#utility.yul\":949:1002   */\n              tag_157\n              jump\t// in\n            tag_214:\n                /* \"#utility.yul\":939:1002   */\n              swap2\n              pop\n                /* \"#utility.yul\":895:1012   */\n              pop\n                /* \"#utility.yul\":690:1019   */\n              swap3\n              swap2\n              pop\n              pop\n              jump\t// out\n                /* \"#utility.yul\":1025:1151   */\n            tag_158:\n                /* \"#utility.yul\":1062:1069   */\n              0x00\n                /* \"#utility.yul\":1102:1144   */\n              0xffffffffffffffffffffffffffffffffffffffff\n                /* \"#utility.yul\":1095:1100   */\n              dup3\n                /* \"#utility.yul\":1091:1145   */\n              and\n                /* \"#utility.yul\":1080:1145   */\n              swap1\n              pop\n                /* \"#utility.yul\":1025:1151   */\n              swap2\n              swap1\n              pop\n              jump\t// out\n                /* \"#utility.yul\":1157:1253   */\n            tag_159:\n                /* \"#utility.yul\":1194:1201   */\n              0x00\n                /* \"#utility.yul\":1223:1247   */\n              tag_217\n                /* \"#utility.yul\":1241:1246   */\n              dup3\n                /* \"#utility.yul\":1223:1247   */\n              tag_158\n              jump\t// in\n            tag_217:\n                /* \"#utility.yul\":1212:1247   */\n              swap1\n              pop\n                /* \"#utility.yul\":1157:1253   */\n              swap2\n              swap1\n              pop\n              jump\t// out\n                /* \"#utility.yul\":1259:1377   */\n            tag_160:\n                /* \"#utility.yul\":1346:1370   */\n              tag_219\n                /* \"#utility.yul\":1364:1369   */\n              dup2\n                /* \"#utility.yul\":1346:1370   */\n              tag_159\n              jump\t// in\n            tag_219:\n                /* \"#utility.yul\":1341:1344   */\n              dup3\n                /* \"#utility.yul\":1334:1371   */\n              mstore\n                /* \"#utility.yul\":1259:1377   */\n              pop\n              pop\n              jump\t// out\n                /* \"#utility.yul\":1383:1482   */\n            tag_161:\n                /* \"#utility.yul\":1435:1441   */\n              0x00\n                /* \"#utility.yul\":1469:1474   */\n              dup2\n                /* \"#utility.yul\":1463:1475   */\n              mload\n                /* \"#utility.yul\":1453:1475   */\n              swap1\n              pop\n                /* \"#utility.yul\":1383:1482   */\n              swap2\n              swap1\n              pop\n              jump\t// out\n                /* \"#utility.yul\":1488:1657   */\n            tag_162:\n                /* \"#utility.yul\":1572:1583   */\n              0x00\n                /* \"#utility.yul\":1606:1612   */\n              dup3\n                /* \"#utility.yul\":1601:1604   */\n              dup3\n                /* \"#utility.yul\":1594:1613   */\n              mstore\n                /* \"#utility.yul\":1646:1650   */\n              0x20\n                /* \"#utility.yul\":1641:1644   */\n              dup3\n                /* \"#utility.yul\":1637:1651   */\n              add\n                /* \"#utility.yul\":1622:1651   */\n              swap1\n              pop\n                /* \"#utility.yul\":1488:1657   */\n              swap3\n              swap2\n              pop\n              pop\n              jump\t// out\n                /* \"#utility.yul\":1663:1970   */\n            tag_163:\n                /* \"#utility.yul\":1731:1732   */\n              0x00\n                /* \"#utility.yul\":1741:1854   */\n            tag_223:\n                /* \"#utility.yul\":1755:1761   */\n              dup4\n                /* \"#utility.yul\":1752:1753   */\n              dup2\n                /* \"#utility.yul\":1749:1762   */\n              lt\n                /* \"#utility.yul\":1741:1854   */\n              iszero\n              tag_225\n              jumpi\n                /* \"#utility.yul\":1840:1841   */\n              dup1\n                /* \"#utility.yul\":1835:1838   */\n              dup3\n                /* \"#utility.yul\":1831:1842   */\n              add\n                /* \"#utility.yul\":1825:1843   */\n              mload\n                /* \"#utility.yul\":1821:1822   */\n              dup2\n                /* \"#utility.yul\":1816:1819   */\n              dup5\n                /* \"#utility.yul\":1812:1823   */\n              add\n                /* \"#utility.yul\":1805:1844   */\n              mstore\n                /* \"#utility.yul\":1777:1779   */\n              0x20\n                /* \"#utility.yul\":1774:1775   */\n              dup2\n                /* \"#utility.yul\":1770:1780   */\n              add\n                /* \"#utility.yul\":1765:1780   */\n              swap1\n              pop\n                /* \"#utility.yul\":1741:1854   */\n              jump(tag_223)\n            tag_225:\n                /* \"#utility.yul\":1872:1878   */\n              dup4\n                /* \"#utility.yul\":1869:1870   */\n              dup2\n                /* \"#utility.yul\":1866:1879   */\n              gt\n                /* \"#utility.yul\":1863:1964   */\n              iszero\n              tag_226\n              jumpi\n                /* \"#utility.yul\":1952:1953   */\n              0x00\n                /* \"#utility.yul\":1943:1949   */\n              dup5\n                /* \"#utility.yul\":1938:1941   */\n              dup5\n                /* \"#utility.yul\":1934:1950   */\n              add\n                /* \"#utility.yul\":1927:1954   */\n              mstore\n                /* \"#utility.yul\":1863:1964   */\n            tag_226:\n                /* \"#utility.yul\":1712:1970   */\n              pop\n                /* \"#utility.yul\":1663:1970   */\n              pop\n              pop\n              pop\n              jump\t// out\n                /* \"#utility.yul\":1976:2078   */\n            tag_164:\n                /* \"#utility.yul\":2017:2023   */\n              0x00\n                /* \"#utility.yul\":2068:2070   */\n              0x1f\n                /* \"#utility.yul\":2064:2071   */\n              not\n                /* \"#utility.yul\":2059:2061   */\n              0x1f\n                /* \"#utility.yul\":2052:2057   */\n              dup4\n                /* \"#utility.yul\":2048:2062   */\n              add\n                /* \"#utility.yul\":2044:2072   */\n              and\n                /* \"#utility.yul\":2034:2072   */\n              swap1\n              pop\n                /* \"#utility.yul\":1976:2078   */\n              swap2\n              swap1\n              pop\n              jump\t// out\n                /* \"#utility.yul\":2084:2448   */\n            tag_165:\n                /* \"#utility.yul\":2172:2175   */\n              0x00\n                /* \"#utility.yul\":2200:2239   */\n              tag_229\n                /* \"#utility.yul\":2233:2238   */\n              dup3\n                /* \"#utility.yul\":2200:2239   */\n              tag_161\n              jump\t// in\n            tag_229:\n                /* \"#utility.yul\":2255:2326   */\n              tag_230\n                /* \"#utility.yul\":2319:2325   */\n              dup2\n                /* \"#utility.yul\":2314:2317   */\n              dup6\n                /* \"#utility.yul\":2255:2326   */\n              tag_162\n              jump\t// in\n            tag_230:\n                /* \"#utility.yul\":2248:2326   */\n              swap4\n              pop\n                /* \"#utility.yul\":2335:2387   */\n              tag_231\n                /* \"#utility.yul\":2380:2386   */\n              dup2\n                /* \"#utility.yul\":2375:2378   */\n              dup6\n                /* \"#utility.yul\":2368:2372   */\n              0x20\n                /* \"#utility.yul\":2361:2366   */\n              dup7\n                /* \"#utility.yul\":2357:2373   */\n              add\n                /* \"#utility.yul\":2335:2387   */\n              tag_163\n              jump\t// in\n            tag_231:\n                /* \"#utility.yul\":2412:2441   */\n              tag_232\n                /* \"#utility.yul\":2434:2440   */\n              dup2\n                /* \"#utility.yul\":2412:2441   */\n              tag_164\n              jump\t// in\n            tag_232:\n                /* \"#utility.yul\":2407:2410   */\n              dup5\n                /* \"#utility.yul\":2403:2442   */\n              add\n                /* \"#utility.yul\":2396:2442   */\n              swap2\n              pop\n                /* \"#utility.yul\":2176:2448   */\n              pop\n                /* \"#utility.yul\":2084:2448   */\n              swap3\n              swap2\n              pop\n              pop\n              jump\t// out\n                /* \"#utility.yul\":2454:2572   */\n            tag_166:\n                /* \"#utility.yul\":2541:2565   */\n              tag_234\n                /* \"#utility.yul\":2559:2564   */\n              dup2\n                /* \"#utility.yul\":2541:2565   */\n              tag_155\n              jump\t// in\n            tag_234:\n                /* \"#utility.yul\":2536:2539   */\n              dup3\n                /* \"#utility.yul\":2529:2566   */\n              mstore\n                /* \"#utility.yul\":2454:2572   */\n              pop\n              pop\n              jump\t// out\n                /* \"#utility.yul\":2578:3313   */\n            tag_17:\n                /* \"#utility.yul\":2795:2799   */\n              0x00\n                /* \"#utility.yul\":2833:2836   */\n              0x80\n                /* \"#utility.yul\":2822:2831   */\n              dup3\n                /* \"#utility.yul\":2818:2837   */\n              add\n                /* \"#utility.yul\":2810:2837   */\n              swap1\n              pop\n                /* \"#utility.yul\":2847:2918   */\n              tag_236\n                /* \"#utility.yul\":2915:2916   */\n              0x00\n                /* \"#utility.yul\":2904:2913   */\n              dup4\n                /* \"#utility.yul\":2900:2917   */\n              add\n                /* \"#utility.yul\":2891:2897   */\n              dup8\n                /* \"#utility.yul\":2847:2918   */\n              tag_160\n              jump\t// in\n            tag_236:\n                /* \"#utility.yul\":2965:2974   */\n              dup2\n                /* \"#utility.yul\":2959:2963   */\n              dup2\n                /* \"#utility.yul\":2955:2975   */\n              sub\n                /* \"#utility.yul\":2950:2952   */\n              0x20\n                /* \"#utility.yul\":2939:2948   */\n              dup4\n                /* \"#utility.yul\":2935:2953   */\n              add\n                /* \"#utility.yul\":2928:2976   */\n              mstore\n                /* \"#utility.yul\":2993:3071   */\n              tag_237\n                /* \"#utility.yul\":3066:3070   */\n              dup2\n                /* \"#utility.yul\":3057:3063   */\n              dup7\n                /* \"#utility.yul\":2993:3071   */\n              tag_165\n              jump\t// in\n            tag_237:\n                /* \"#utility.yul\":2985:3071   */\n              swap1\n              pop\n                /* \"#utility.yul\":3118:3127   */\n              dup2\n                /* \"#utility.yul\":3112:3116   */\n              dup2\n                /* \"#utility.yul\":3108:3128   */\n              sub\n                /* \"#utility.yul\":3103:3105   */\n              0x40\n                /* \"#utility.yul\":3092:3101   */\n              dup4\n                /* \"#utility.yul\":3088:3106   */\n              add\n                /* \"#utility.yul\":3081:3129   */\n              mstore\n                /* \"#utility.yul\":3146:3224   */\n              tag_238\n                /* \"#utility.yul\":3219:3223   */\n              dup2\n                /* \"#utility.yul\":3210:3216   */\n              dup6\n                /* \"#utility.yul\":3146:3224   */\n              tag_165\n              jump\t// in\n            tag_238:\n                /* \"#utility.yul\":3138:3224   */\n              swap1\n              pop\n                /* \"#utility.yul\":3234:3306   */\n              tag_239\n                /* \"#utility.yul\":3302:3304   */\n              0x60\n                /* \"#utility.yul\":3291:3300   */\n              dup4\n                /* \"#utility.yul\":3287:3305   */\n              add\n                /* \"#utility.yul\":3278:3284   */\n              dup5\n                /* \"#utility.yul\":3234:3306   */\n              tag_166\n              jump\t// in\n            tag_239:\n                /* \"#utility.yul\":2578:3313   */\n              swap6\n              swap5\n              pop\n              pop\n              pop\n              pop\n              pop\n              jump\t// out\n                /* \"#utility.yul\":3319:3632   */\n            tag_21:\n                /* \"#utility.yul\":3432:3436   */\n              0x00\n                /* \"#utility.yul\":3470:3472   */\n              0x20\n                /* \"#utility.yul\":3459:3468   */\n              dup3\n                /* \"#utility.yul\":3455:3473   */\n              add\n                /* \"#utility.yul\":3447:3473   */\n              swap1\n              pop\n                /* \"#utility.yul\":3519:3528   */\n              dup2\n                /* \"#utility.yul\":3513:3517   */\n              dup2\n                /* \"#utility.yul\":3509:3529   */\n              sub\n                /* \"#utility.yul\":3505:3506   */\n              0x00\n                /* \"#utility.yul\":3494:3503   */\n              dup4\n                /* \"#utility.yul\":3490:3507   */\n              add\n                /* \"#utility.yul\":3483:3530   */\n              mstore\n                /* \"#utility.yul\":3547:3625   */\n              tag_241\n                /* \"#utility.yul\":3620:3624   */\n              dup2\n                /* \"#utility.yul\":3611:3617   */\n              dup5\n                /* \"#utility.yul\":3547:3625   */\n              tag_165\n              jump\t// in\n            tag_241:\n                /* \"#utility.yul\":3539:3625   */\n              swap1\n              pop\n                /* \"#utility.yul\":3319:3632   */\n              swap3\n              swap2\n              pop\n              pop\n              jump\t// out\n                /* \"#utility.yul\":3638:3755   */\n            tag_167:\n                /* \"#utility.yul\":3747:3748   */\n              0x00\n                /* \"#utility.yul\":3744:3745   */\n              dup1\n                /* \"#utility.yul\":3737:3749   */\n              revert\n                /* \"#utility.yul\":3761:3878   */\n            tag_168:\n                /* \"#utility.yul\":3870:3871   */\n              0x00\n                /* \"#utility.yul\":3867:3868   */\n              dup1\n                /* \"#utility.yul\":3860:3872   */\n              revert\n                /* \"#utility.yul\":3884:4064   */\n            tag_169:\n                /* \"#utility.yul\":3932:4009   */\n              0x4e487b7100000000000000000000000000000000000000000000000000000000\n                /* \"#utility.yul\":3929:3930   */\n              0x00\n                /* \"#utility.yul\":3922:4010   */\n              mstore\n                /* \"#utility.yul\":4029:4033   */\n              0x41\n                /* \"#utility.yul\":4026:4027   */\n              0x04\n                /* \"#utility.yul\":4019:4034   */\n              mstore\n                /* \"#utility.yul\":4053:4057   */\n              0x24\n                /* \"#utility.yul\":4050:4051   */\n              0x00\n                /* \"#utility.yul\":4043:4058   */\n              revert\n                /* \"#utility.yul\":4070:4351   */\n            tag_170:\n                /* \"#utility.yul\":4153:4180   */\n              tag_246\n                /* \"#utility.yul\":4175:4179   */\n              dup3\n                /* \"#utility.yul\":4153:4180   */\n              tag_164\n              jump\t// in\n            tag_246:\n                /* \"#utility.yul\":4145:4151   */\n              dup2\n                /* \"#utility.yul\":4141:4181   */\n              add\n                /* \"#utility.yul\":4283:4289   */\n              dup2\n                /* \"#utility.yul\":4271:4281   */\n              dup2\n                /* \"#utility.yul\":4268:4290   */\n              lt\n                /* \"#utility.yul\":4247:4265   */\n              0xffffffffffffffff\n                /* \"#utility.yul\":4235:4245   */\n              dup3\n                /* \"#utility.yul\":4232:4266   */\n              gt\n                /* \"#utility.yul\":4229:4291   */\n              or\n                /* \"#utility.yul\":4226:4314   */\n              iszero\n              tag_247\n              jumpi\n                /* \"#utility.yul\":4294:4312   */\n              tag_248\n              tag_169\n              jump\t// in\n            tag_248:\n                /* \"#utility.yul\":4226:4314   */\n            tag_247:\n                /* \"#utility.yul\":4334:4344   */\n              dup1\n                /* \"#utility.yul\":4330:4332   */\n              0x40\n                /* \"#utility.yul\":4323:4345   */\n              mstore\n                /* \"#utility.yul\":4113:4351   */\n              pop\n                /* \"#utility.yul\":4070:4351   */\n              pop\n              pop\n              jump\t// out\n                /* \"#utility.yul\":4357:4486   */\n            tag_171:\n                /* \"#utility.yul\":4391:4397   */\n              0x00\n                /* \"#utility.yul\":4418:4438   */\n              tag_250\n              tag_152\n              jump\t// in\n            tag_250:\n                /* \"#utility.yul\":4408:4438   */\n              swap1\n              pop\n                /* \"#utility.yul\":4447:4480   */\n              tag_251\n                /* \"#utility.yul\":4475:4479   */\n              dup3\n                /* \"#utility.yul\":4467:4473   */\n              dup3\n                /* \"#utility.yul\":4447:4480   */\n              tag_170\n              jump\t// in\n            tag_251:\n                /* \"#utility.yul\":4357:4486   */\n              swap2\n              swap1\n              pop\n              jump\t// out\n                /* \"#utility.yul\":4492:4800   */\n            tag_172:\n                /* \"#utility.yul\":4554:4558   */\n              0x00\n                /* \"#utility.yul\":4644:4662   */\n              0xffffffffffffffff\n                /* \"#utility.yul\":4636:4642   */\n              dup3\n                /* \"#utility.yul\":4633:4663   */\n              gt\n                /* \"#utility.yul\":4630:4686   */\n              iszero\n              tag_253\n              jumpi\n                /* \"#utility.yul\":4666:4684   */\n              tag_254\n              tag_169\n              jump\t// in\n            tag_254:\n                /* \"#utility.yul\":4630:4686   */\n            tag_253:\n                /* \"#utility.yul\":4704:4733   */\n              tag_255\n                /* \"#utility.yul\":4726:4732   */\n              dup3\n                /* \"#utility.yul\":4704:4733   */\n              tag_164\n              jump\t// in\n            tag_255:\n                /* \"#utility.yul\":4696:4733   */\n              swap1\n              pop\n                /* \"#utility.yul\":4788:4792   */\n              0x20\n                /* \"#utility.yul\":4782:4786   */\n              dup2\n                /* \"#utility.yul\":4778:4793   */\n              add\n                /* \"#utility.yul\":4770:4793   */\n              swap1\n              pop\n                /* \"#utility.yul\":4492:4800   */\n              swap2\n              swap1\n              pop\n              jump\t// out\n                /* \"#utility.yul\":4806:4960   */\n            tag_173:\n                /* \"#utility.yul\":4890:4896   */\n              dup3\n                /* \"#utility.yul\":4885:4888   */\n              dup2\n                /* \"#utility.yul\":4880:4883   */\n              dup4\n                /* \"#utility.yul\":4867:4897   */\n              calldatacopy\n                /* \"#utility.yul\":4952:4953   */\n              0x00\n                /* \"#utility.yul\":4943:4949   */\n              dup4\n                /* \"#utility.yul\":4938:4941   */\n              dup4\n                /* \"#utility.yul\":4934:4950   */\n              add\n                /* \"#utility.yul\":4927:4954   */\n              mstore\n                /* \"#utility.yul\":4806:4960   */\n              pop\n              pop\n              pop\n              jump\t// out\n                /* \"#utility.yul\":4966:5378   */\n            tag_174:\n                /* \"#utility.yul\":5044:5049   */\n              0x00\n                /* \"#utility.yul\":5069:5135   */\n              tag_258\n                /* \"#utility.yul\":5085:5134   */\n              tag_259\n                /* \"#utility.yul\":5127:5133   */\n              dup5\n                /* \"#utility.yul\":5085:5134   */\n              tag_172\n              jump\t// in\n            tag_259:\n                /* \"#utility.yul\":5069:5135   */\n              tag_171\n              jump\t// in\n            tag_258:\n                /* \"#utility.yul\":5060:5135   */\n              swap1\n              pop\n                /* \"#utility.yul\":5158:5164   */\n              dup3\n                /* \"#utility.yul\":5151:5156   */\n              dup2\n                /* \"#utility.yul\":5144:5165   */\n              mstore\n                /* \"#utility.yul\":5196:5200   */\n              0x20\n                /* \"#utility.yul\":5189:5194   */\n              dup2\n                /* \"#utility.yul\":5185:5201   */\n              add\n                /* \"#utility.yul\":5234:5237   */\n              dup5\n                /* \"#utility.yul\":5225:5231   */\n              dup5\n                /* \"#utility.yul\":5220:5223   */\n              dup5\n                /* \"#utility.yul\":5216:5232   */\n              add\n                /* \"#utility.yul\":5213:5238   */\n              gt\n                /* \"#utility.yul\":5210:5322   */\n              iszero\n              tag_260\n              jumpi\n                /* \"#utility.yul\":5241:5320   */\n              tag_261\n              tag_168\n              jump\t// in\n            tag_261:\n                /* \"#utility.yul\":5210:5322   */\n            tag_260:\n                /* \"#utility.yul\":5331:5372   */\n              tag_262\n                /* \"#utility.yul\":5365:5371   */\n              dup5\n                /* \"#utility.yul\":5360:5363   */\n              dup3\n                /* \"#utility.yul\":5355:5358   */\n              dup6\n                /* \"#utility.yul\":5331:5372   */\n              tag_173\n              jump\t// in\n            tag_262:\n                /* \"#utility.yul\":5050:5378   */\n              pop\n                /* \"#utility.yul\":4966:5378   */\n              swap4\n              swap3\n              pop\n              pop\n              pop\n              jump\t// out\n                /* \"#utility.yul\":5398:5738   */\n            tag_175:\n                /* \"#utility.yul\":5454:5459   */\n              0x00\n                /* \"#utility.yul\":5503:5506   */\n              dup3\n                /* \"#utility.yul\":5496:5500   */\n              0x1f\n                /* \"#utility.yul\":5488:5494   */\n              dup4\n                /* \"#utility.yul\":5484:5501   */\n              add\n                /* \"#utility.yul\":5480:5507   */\n              slt\n                /* \"#utility.yul\":5470:5592   */\n              tag_264\n              jumpi\n                /* \"#utility.yul\":5511:5590   */\n              tag_265\n              tag_167\n              jump\t// in\n            tag_265:\n                /* \"#utility.yul\":5470:5592   */\n            tag_264:\n                /* \"#utility.yul\":5628:5634   */\n              dup2\n                /* \"#utility.yul\":5615:5635   */\n              calldataload\n                /* \"#utility.yul\":5653:5732   */\n              tag_266\n                /* \"#utility.yul\":5728:5731   */\n              dup5\n                /* \"#utility.yul\":5720:5726   */\n              dup3\n                /* \"#utility.yul\":5713:5717   */\n              0x20\n                /* \"#utility.yul\":5705:5711   */\n              dup7\n                /* \"#utility.yul\":5701:5718   */\n              add\n                /* \"#utility.yul\":5653:5732   */\n              tag_174\n              jump\t// in\n            tag_266:\n                /* \"#utility.yul\":5644:5732   */\n              swap2\n              pop\n                /* \"#utility.yul\":5460:5738   */\n              pop\n                /* \"#utility.yul\":5398:5738   */\n              swap3\n              swap2\n              pop\n              pop\n              jump\t// out\n                /* \"#utility.yul\":5744:6253   */\n            tag_24:\n                /* \"#utility.yul\":5813:5819   */\n              0x00\n                /* \"#utility.yul\":5862:5864   */\n              0x20\n                /* \"#utility.yul\":5850:5859   */\n              dup3\n                /* \"#utility.yul\":5841:5848   */\n              dup5\n                /* \"#utility.yul\":5837:5860   */\n              sub\n                /* \"#utility.yul\":5833:5865   */\n              slt\n                /* \"#utility.yul\":5830:5949   */\n              iszero\n              tag_268\n              jumpi\n                /* \"#utility.yul\":5868:5947   */\n              tag_269\n              tag_153\n              jump\t// in\n            tag_269:\n                /* \"#utility.yul\":5830:5949   */\n            tag_268:\n                /* \"#utility.yul\":6016:6017   */\n              0x00\n                /* \"#utility.yul\":6005:6014   */\n              dup3\n                /* \"#utility.yul\":6001:6018   */\n              add\n                /* \"#utility.yul\":5988:6019   */\n              calldataload\n                /* \"#utility.yul\":6046:6064   */\n              0xffffffffffffffff\n                /* \"#utility.yul\":6038:6044   */\n              dup2\n                /* \"#utility.yul\":6035:6065   */\n              gt\n                /* \"#utility.yul\":6032:6149   */\n              iszero\n              tag_270\n              jumpi\n                /* \"#utility.yul\":6068:6147   */\n              tag_271\n              tag_154\n              jump\t// in\n            tag_271:\n                /* \"#utility.yul\":6032:6149   */\n            tag_270:\n                /* \"#utility.yul\":6173:6236   */\n              tag_272\n                /* \"#utility.yul\":6228:6235   */\n              dup5\n                /* \"#utility.yul\":6219:6225   */\n              dup3\n                /* \"#utility.yul\":6208:6217   */\n              dup6\n                /* \"#utility.yul\":6204:6226   */\n              add\n                /* \"#utility.yul\":6173:6236   */\n              tag_175\n              jump\t// in\n            tag_272:\n                /* \"#utility.yul\":6163:6236   */\n              swap2\n              pop\n                /* \"#utility.yul\":5959:6246   */\n              pop\n                /* \"#utility.yul\":5744:6253   */\n              swap3\n              swap2\n              pop\n              pop\n              jump\t// out\n                /* \"#utility.yul\":6259:6349   */\n            tag_176:\n                /* \"#utility.yul\":6293:6300   */\n              0x00\n                /* \"#utility.yul\":6336:6341   */\n              dup2\n                /* \"#utility.yul\":6329:6342   */\n              iszero\n                /* \"#utility.yul\":6322:6343   */\n              iszero\n                /* \"#utility.yul\":6311:6343   */\n              swap1\n              pop\n                /* \"#utility.yul\":6259:6349   */\n              swap2\n              swap1\n              pop\n              jump\t// out\n                /* \"#utility.yul\":6355:6464   */\n            tag_177:\n                /* \"#utility.yul\":6436:6457   */\n              tag_275\n                /* \"#utility.yul\":6451:6456   */\n              dup2\n                /* \"#utility.yul\":6436:6457   */\n              tag_176\n              jump\t// in\n            tag_275:\n                /* \"#utility.yul\":6431:6434   */\n              dup3\n                /* \"#utility.yul\":6424:6458   */\n              mstore\n                /* \"#utility.yul\":6355:6464   */\n              pop\n              pop\n              jump\t// out\n                /* \"#utility.yul\":6470:7102   */\n            tag_27:\n                /* \"#utility.yul\":6661:6665   */\n              0x00\n                /* \"#utility.yul\":6699:6702   */\n              0x80\n                /* \"#utility.yul\":6688:6697   */\n              dup3\n                /* \"#utility.yul\":6684:6703   */\n              add\n                /* \"#utility.yul\":6676:6703   */\n              swap1\n              pop\n                /* \"#utility.yul\":6749:6758   */\n              dup2\n                /* \"#utility.yul\":6743:6747   */\n              dup2\n                /* \"#utility.yul\":6739:6759   */\n              sub\n                /* \"#utility.yul\":6735:6736   */\n              0x00\n                /* \"#utility.yul\":6724:6733   */\n              dup4\n                /* \"#utility.yul\":6720:6737   */\n              add\n                /* \"#utility.yul\":6713:6760   */\n              mstore\n                /* \"#utility.yul\":6777:6855   */\n              tag_277\n                /* \"#utility.yul\":6850:6854   */\n              dup2\n                /* \"#utility.yul\":6841:6847   */\n              dup8\n                /* \"#utility.yul\":6777:6855   */\n              tag_165\n              jump\t// in\n            tag_277:\n                /* \"#utility.yul\":6769:6855   */\n              swap1\n              pop\n                /* \"#utility.yul\":6865:6937   */\n              tag_278\n                /* \"#utility.yul\":6933:6935   */\n              0x20\n                /* \"#utility.yul\":6922:6931   */\n              dup4\n                /* \"#utility.yul\":6918:6936   */\n              add\n                /* \"#utility.yul\":6909:6915   */\n              dup7\n                /* \"#utility.yul\":6865:6937   */\n              tag_166\n              jump\t// in\n            tag_278:\n                /* \"#utility.yul\":6947:7013   */\n              tag_279\n                /* \"#utility.yul\":7009:7011   */\n              0x40\n                /* \"#utility.yul\":6998:7007   */\n              dup4\n                /* \"#utility.yul\":6994:7012   */\n              add\n                /* \"#utility.yul\":6985:6991   */\n              dup6\n                /* \"#utility.yul\":6947:7013   */\n              tag_177\n              jump\t// in\n            tag_279:\n                /* \"#utility.yul\":7023:7095   */\n              tag_280\n                /* \"#utility.yul\":7091:7093   */\n              0x60\n                /* \"#utility.yul\":7080:7089   */\n              dup4\n                /* \"#utility.yul\":7076:7094   */\n              add\n                /* \"#utility.yul\":7067:7073   */\n              dup5\n                /* \"#utility.yul\":7023:7095   */\n              tag_160\n              jump\t// in\n            tag_280:\n                /* \"#utility.yul\":6470:7102   */\n              swap6\n              swap5\n              pop\n              pop\n              pop\n              pop\n              pop\n              jump\t// out\n                /* \"#utility.yul\":7108:7247   */\n            tag_178:\n                /* \"#utility.yul\":7200:7206   */\n              0x00\n                /* \"#utility.yul\":7234:7239   */\n              dup2\n                /* \"#utility.yul\":7228:7240   */\n              mload\n                /* \"#utility.yul\":7218:7240   */\n              swap1\n              pop\n                /* \"#utility.yul\":7108:7247   */\n              swap2\n              swap1\n              pop\n              jump\t// out\n                /* \"#utility.yul\":7253:7462   */\n            tag_179:\n                /* \"#utility.yul\":7377:7388   */\n              0x00\n                /* \"#utility.yul\":7411:7417   */\n              dup3\n                /* \"#utility.yul\":7406:7409   */\n              dup3\n                /* \"#utility.yul\":7399:7418   */\n              mstore\n                /* \"#utility.yul\":7451:7455   */\n              0x20\n                /* \"#utility.yul\":7446:7449   */\n              dup3\n                /* \"#utility.yul\":7442:7456   */\n              add\n                /* \"#utility.yul\":7427:7456   */\n              swap1\n              pop\n                /* \"#utility.yul\":7253:7462   */\n              swap3\n              swap2\n              pop\n              pop\n              jump\t// out\n                /* \"#utility.yul\":7468:7625   */\n            tag_180:\n                /* \"#utility.yul\":7560:7564   */\n              0x00\n                /* \"#utility.yul\":7583:7586   */\n              dup2\n                /* \"#utility.yul\":7575:7586   */\n              swap1\n              pop\n                /* \"#utility.yul\":7613:7617   */\n              0x20\n                /* \"#utility.yul\":7608:7611   */\n              dup3\n                /* \"#utility.yul\":7604:7618   */\n              add\n                /* \"#utility.yul\":7596:7618   */\n              swap1\n              pop\n                /* \"#utility.yul\":7468:7625   */\n              swap2\n              swap1\n              pop\n              jump\t// out\n                /* \"#utility.yul\":7631:7739   */\n            tag_181:\n                /* \"#utility.yul\":7708:7732   */\n              tag_285\n                /* \"#utility.yul\":7726:7731   */\n              dup2\n                /* \"#utility.yul\":7708:7732   */\n              tag_159\n              jump\t// in\n            tag_285:\n                /* \"#utility.yul\":7703:7706   */\n              dup3\n                /* \"#utility.yul\":7696:7733   */\n              mstore\n                /* \"#utility.yul\":7631:7739   */\n              pop\n              pop\n              jump\t// out\n                /* \"#utility.yul\":7745:7904   */\n            tag_182:\n                /* \"#utility.yul\":7819:7830   */\n              0x00\n                /* \"#utility.yul\":7853:7859   */\n              dup3\n                /* \"#utility.yul\":7848:7851   */\n              dup3\n                /* \"#utility.yul\":7841:7860   */\n              mstore\n                /* \"#utility.yul\":7893:7897   */\n              0x20\n                /* \"#utility.yul\":7888:7891   */\n              dup3\n                /* \"#utility.yul\":7884:7898   */\n              add\n                /* \"#utility.yul\":7869:7898   */\n              swap1\n              pop\n                /* \"#utility.yul\":7745:7904   */\n              swap3\n              swap2\n              pop\n              pop\n              jump\t// out\n                /* \"#utility.yul\":7910:8254   */\n            tag_183:\n                /* \"#utility.yul\":7988:7991   */\n              0x00\n                /* \"#utility.yul\":8016:8055   */\n              tag_288\n                /* \"#utility.yul\":8049:8054   */\n              dup3\n                /* \"#utility.yul\":8016:8055   */\n              tag_161\n              jump\t// in\n            tag_288:\n                /* \"#utility.yul\":8071:8132   */\n              tag_289\n                /* \"#utility.yul\":8125:8131   */\n              dup2\n                /* \"#utility.yul\":8120:8123   */\n              dup6\n                /* \"#utility.yul\":8071:8132   */\n              tag_182\n              jump\t// in\n            tag_289:\n                /* \"#utility.yul\":8064:8132   */\n              swap4\n              pop\n                /* \"#utility.yul\":8141:8193   */\n              tag_290\n                /* \"#utility.yul\":8186:8192   */\n              dup2\n                /* \"#utility.yul\":8181:8184   */\n              dup6\n                /* \"#utility.yul\":8174:8178   */\n              0x20\n                /* \"#utility.yul\":8167:8172   */\n              dup7\n                /* \"#utility.yul\":8163:8179   */\n              add\n                /* \"#utility.yul\":8141:8193   */\n              tag_163\n              jump\t// in\n            tag_290:\n                /* \"#utility.yul\":8218:8247   */\n              tag_291\n                /* \"#utility.yul\":8240:8246   */\n              dup2\n                /* \"#utility.yul\":8218:8247   */\n              tag_164\n              jump\t// in\n            tag_291:\n                /* \"#utility.yul\":8213:8216   */\n              dup5\n                /* \"#utility.yul\":8209:8248   */\n              add\n                /* \"#utility.yul\":8202:8248   */\n              swap2\n              pop\n                /* \"#utility.yul\":7992:8254   */\n              pop\n                /* \"#utility.yul\":7910:8254   */\n              swap3\n              swap2\n              pop\n              pop\n              jump\t// out\n                /* \"#utility.yul\":8260:8368   */\n            tag_184:\n                /* \"#utility.yul\":8337:8361   */\n              tag_293\n                /* \"#utility.yul\":8355:8360   */\n              dup2\n                /* \"#utility.yul\":8337:8361   */\n              tag_155\n              jump\t// in\n            tag_293:\n                /* \"#utility.yul\":8332:8335   */\n              dup3\n                /* \"#utility.yul\":8325:8362   */\n              mstore\n                /* \"#utility.yul\":8260:8368   */\n              pop\n              pop\n              jump\t// out\n                /* \"#utility.yul\":8436:9466   */\n            tag_185:\n                /* \"#utility.yul\":8545:8548   */\n              0x00\n                /* \"#utility.yul\":8581:8585   */\n              0x80\n                /* \"#utility.yul\":8576:8579   */\n              dup4\n                /* \"#utility.yul\":8572:8586   */\n              add\n                /* \"#utility.yul\":8673:8677   */\n              0x00\n                /* \"#utility.yul\":8666:8671   */\n              dup4\n                /* \"#utility.yul\":8662:8678   */\n              add\n                /* \"#utility.yul\":8656:8679   */\n              mload\n                /* \"#utility.yul\":8692:8755   */\n              tag_295\n                /* \"#utility.yul\":8749:8753   */\n              0x00\n                /* \"#utility.yul\":8744:8747   */\n              dup7\n                /* \"#utility.yul\":8740:8754   */\n              add\n                /* \"#utility.yul\":8726:8738   */\n              dup3\n                /* \"#utility.yul\":8692:8755   */\n              tag_181\n              jump\t// in\n            tag_295:\n                /* \"#utility.yul\":8596:8765   */\n              pop\n                /* \"#utility.yul\":8847:8851   */\n              0x20\n                /* \"#utility.yul\":8840:8845   */\n              dup4\n                /* \"#utility.yul\":8836:8852   */\n              add\n                /* \"#utility.yul\":8830:8853   */\n              mload\n                /* \"#utility.yul\":8900:8903   */\n              dup5\n                /* \"#utility.yul\":8894:8898   */\n              dup3\n                /* \"#utility.yul\":8890:8904   */\n              sub\n                /* \"#utility.yul\":8883:8887   */\n              0x20\n                /* \"#utility.yul\":8878:8881   */\n              dup7\n                /* \"#utility.yul\":8874:8888   */\n              add\n                /* \"#utility.yul\":8867:8905   */\n              mstore\n                /* \"#utility.yul\":8926:8999   */\n              tag_296\n                /* \"#utility.yul\":8994:8998   */\n              dup3\n                /* \"#utility.yul\":8980:8992   */\n              dup3\n                /* \"#utility.yul\":8926:8999   */\n              tag_183\n              jump\t// in\n            tag_296:\n                /* \"#utility.yul\":8918:8999   */\n              swap2\n              pop\n                /* \"#utility.yul\":8775:9010   */\n              pop\n                /* \"#utility.yul\":9097:9101   */\n              0x40\n                /* \"#utility.yul\":9090:9095   */\n              dup4\n                /* \"#utility.yul\":9086:9102   */\n              add\n                /* \"#utility.yul\":9080:9103   */\n              mload\n                /* \"#utility.yul\":9150:9153   */\n              dup5\n                /* \"#utility.yul\":9144:9148   */\n              dup3\n                /* \"#utility.yul\":9140:9154   */\n              sub\n                /* \"#utility.yul\":9133:9137   */\n              0x40\n                /* \"#utility.yul\":9128:9131   */\n              dup7\n                /* \"#utility.yul\":9124:9138   */\n              add\n                /* \"#utility.yul\":9117:9155   */\n              mstore\n                /* \"#utility.yul\":9176:9249   */\n              tag_297\n                /* \"#utility.yul\":9244:9248   */\n              dup3\n                /* \"#utility.yul\":9230:9242   */\n              dup3\n                /* \"#utility.yul\":9176:9249   */\n              tag_183\n              jump\t// in\n            tag_297:\n                /* \"#utility.yul\":9168:9249   */\n              swap2\n              pop\n                /* \"#utility.yul\":9020:9260   */\n              pop\n                /* \"#utility.yul\":9347:9351   */\n              0x60\n                /* \"#utility.yul\":9340:9345   */\n              dup4\n                /* \"#utility.yul\":9336:9352   */\n              add\n                /* \"#utility.yul\":9330:9353   */\n              mload\n                /* \"#utility.yul\":9366:9429   */\n              tag_298\n                /* \"#utility.yul\":9423:9427   */\n              0x60\n                /* \"#utility.yul\":9418:9421   */\n              dup7\n                /* \"#utility.yul\":9414:9428   */\n              add\n                /* \"#utility.yul\":9400:9412   */\n              dup3\n                /* \"#utility.yul\":9366:9429   */\n              tag_184\n              jump\t// in\n            tag_298:\n                /* \"#utility.yul\":9270:9439   */\n              pop\n                /* \"#utility.yul\":9456:9460   */\n              dup1\n                /* \"#utility.yul\":9449:9460   */\n              swap2\n              pop\n                /* \"#utility.yul\":8550:9466   */\n              pop\n                /* \"#utility.yul\":8436:9466   */\n              swap3\n              swap2\n              pop\n              pop\n              jump\t// out\n                /* \"#utility.yul\":9472:9728   */\n            tag_186:\n                /* \"#utility.yul\":9591:9601   */\n              0x00\n                /* \"#utility.yul\":9626:9722   */\n              tag_300\n                /* \"#utility.yul\":9718:9721   */\n              dup4\n                /* \"#utility.yul\":9710:9716   */\n              dup4\n                /* \"#utility.yul\":9626:9722   */\n              tag_185\n              jump\t// in\n            tag_300:\n                /* \"#utility.yul\":9612:9722   */\n              swap1\n              pop\n                /* \"#utility.yul\":9472:9728   */\n              swap3\n              swap2\n              pop\n              pop\n              jump\t// out\n                /* \"#utility.yul\":9734:9872   */\n            tag_187:\n                /* \"#utility.yul\":9829:9833   */\n              0x00\n                /* \"#utility.yul\":9861:9865   */\n              0x20\n                /* \"#utility.yul\":9856:9859   */\n              dup3\n                /* \"#utility.yul\":9852:9866   */\n              add\n                /* \"#utility.yul\":9844:9866   */\n              swap1\n              pop\n                /* \"#utility.yul\":9734:9872   */\n              swap2\n              swap1\n              pop\n              jump\t// out\n                /* \"#utility.yul\":9944:11055   */\n            tag_188:\n                /* \"#utility.yul\":10113:10116   */\n              0x00\n                /* \"#utility.yul\":10142:10221   */\n              tag_303\n                /* \"#utility.yul\":10215:10220   */\n              dup3\n                /* \"#utility.yul\":10142:10221   */\n              tag_178\n              jump\t// in\n            tag_303:\n                /* \"#utility.yul\":10237:10348   */\n              tag_304\n                /* \"#utility.yul\":10341:10347   */\n              dup2\n                /* \"#utility.yul\":10336:10339   */\n              dup6\n                /* \"#utility.yul\":10237:10348   */\n              tag_179\n              jump\t// in\n            tag_304:\n                /* \"#utility.yul\":10230:10348   */\n              swap4\n              pop\n                /* \"#utility.yul\":10374:10377   */\n              dup4\n                /* \"#utility.yul\":10419:10423   */\n              0x20\n                /* \"#utility.yul\":10411:10417   */\n              dup3\n                /* \"#utility.yul\":10407:10424   */\n              mul\n                /* \"#utility.yul\":10402:10405   */\n              dup6\n                /* \"#utility.yul\":10398:10425   */\n              add\n                /* \"#utility.yul\":10449:10530   */\n              tag_305\n                /* \"#utility.yul\":10524:10529   */\n              dup6\n                /* \"#utility.yul\":10449:10530   */\n              tag_180\n              jump\t// in\n            tag_305:\n                /* \"#utility.yul\":10553:10560   */\n              dup1\n                /* \"#utility.yul\":10584:10585   */\n              0x00\n                /* \"#utility.yul\":10569:11010   */\n            tag_306:\n                /* \"#utility.yul\":10594:10600   */\n              dup6\n                /* \"#utility.yul\":10591:10592   */\n              dup2\n                /* \"#utility.yul\":10588:10601   */\n              lt\n                /* \"#utility.yul\":10569:11010   */\n              iszero\n              tag_308\n              jumpi\n                /* \"#utility.yul\":10665:10674   */\n              dup5\n                /* \"#utility.yul\":10659:10663   */\n              dup5\n                /* \"#utility.yul\":10655:10675   */\n              sub\n                /* \"#utility.yul\":10650:10653   */\n              dup10\n                /* \"#utility.yul\":10643:10676   */\n              mstore\n                /* \"#utility.yul\":10716:10722   */\n              dup2\n                /* \"#utility.yul\":10710:10723   */\n              mload\n                /* \"#utility.yul\":10744:10858   */\n              tag_309\n                /* \"#utility.yul\":10853:10857   */\n              dup6\n                /* \"#utility.yul\":10838:10851   */\n              dup3\n                /* \"#utility.yul\":10744:10858   */\n              tag_186\n              jump\t// in\n            tag_309:\n                /* \"#utility.yul\":10736:10858   */\n              swap5\n              pop\n                /* \"#utility.yul\":10881:10966   */\n              tag_310\n                /* \"#utility.yul\":10959:10965   */\n              dup4\n                /* \"#utility.yul\":10881:10966   */\n              tag_187\n              jump\t// in\n            tag_310:\n                /* \"#utility.yul\":10871:10966   */\n              swap3\n              pop\n                /* \"#utility.yul\":10995:10999   */\n              0x20\n                /* \"#utility.yul\":10990:10993   */\n              dup11\n                /* \"#utility.yul\":10986:11000   */\n              add\n                /* \"#utility.yul\":10979:11000   */\n              swap10\n              pop\n                /* \"#utility.yul\":10629:11010   */\n              pop\n                /* \"#utility.yul\":10616:10617   */\n              0x01\n                /* \"#utility.yul\":10613:10614   */\n              dup2\n                /* \"#utility.yul\":10609:10618   */\n              add\n                /* \"#utility.yul\":10604:10618   */\n              swap1\n              pop\n                /* \"#utility.yul\":10569:11010   */\n              jump(tag_306)\n            tag_308:\n                /* \"#utility.yul\":10573:10587   */\n              pop\n                /* \"#utility.yul\":11026:11030   */\n              dup3\n                /* \"#utility.yul\":11019:11030   */\n              swap8\n              pop\n                /* \"#utility.yul\":11046:11049   */\n              dup8\n                /* \"#utility.yul\":11039:11049   */\n              swap6\n              pop\n                /* \"#utility.yul\":10118:11055   */\n              pop\n              pop\n              pop\n              pop\n              pop\n                /* \"#utility.yul\":9944:11055   */\n              swap3\n              swap2\n              pop\n              pop\n              jump\t// out\n                /* \"#utility.yul\":11061:11845   */\n            tag_31:\n                /* \"#utility.yul\":11330:11334   */\n              0x00\n                /* \"#utility.yul\":11368:11370   */\n              0x60\n                /* \"#utility.yul\":11357:11366   */\n              dup3\n                /* \"#utility.yul\":11353:11371   */\n              add\n                /* \"#utility.yul\":11345:11371   */\n              swap1\n              pop\n                /* \"#utility.yul\":11381:11452   */\n              tag_312\n                /* \"#utility.yul\":11449:11450   */\n              0x00\n                /* \"#utility.yul\":11438:11447   */\n              dup4\n                /* \"#utility.yul\":11434:11451   */\n              add\n                /* \"#utility.yul\":11425:11431   */\n              dup7\n                /* \"#utility.yul\":11381:11452   */\n              tag_160\n              jump\t// in\n            tag_312:\n                /* \"#utility.yul\":11499:11508   */\n              dup2\n                /* \"#utility.yul\":11493:11497   */\n              dup2\n                /* \"#utility.yul\":11489:11509   */\n              sub\n                /* \"#utility.yul\":11484:11486   */\n              0x20\n                /* \"#utility.yul\":11473:11482   */\n              dup4\n                /* \"#utility.yul\":11469:11487   */\n              add\n                /* \"#utility.yul\":11462:11510   */\n              mstore\n                /* \"#utility.yul\":11527:11605   */\n              tag_313\n                /* \"#utility.yul\":11600:11604   */\n              dup2\n                /* \"#utility.yul\":11591:11597   */\n              dup6\n                /* \"#utility.yul\":11527:11605   */\n              tag_165\n              jump\t// in\n            tag_313:\n                /* \"#utility.yul\":11519:11605   */\n              swap1\n              pop\n                /* \"#utility.yul\":11652:11661   */\n              dup2\n                /* \"#utility.yul\":11646:11650   */\n              dup2\n                /* \"#utility.yul\":11642:11662   */\n              sub\n                /* \"#utility.yul\":11637:11639   */\n              0x40\n                /* \"#utility.yul\":11626:11635   */\n              dup4\n                /* \"#utility.yul\":11622:11640   */\n              add\n                /* \"#utility.yul\":11615:11663   */\n              mstore\n                /* \"#utility.yul\":11680:11838   */\n              tag_314\n                /* \"#utility.yul\":11833:11837   */\n              dup2\n                /* \"#utility.yul\":11824:11830   */\n              dup5\n                /* \"#utility.yul\":11680:11838   */\n              tag_188\n              jump\t// in\n            tag_314:\n                /* \"#utility.yul\":11672:11838   */\n              swap1\n              pop\n                /* \"#utility.yul\":11061:11845   */\n              swap5\n              swap4\n              pop\n              pop\n              pop\n              pop\n              jump\t// out\n                /* \"#utility.yul\":11851:12073   */\n            tag_38:\n                /* \"#utility.yul\":11944:11948   */\n              0x00\n                /* \"#utility.yul\":11982:11984   */\n              0x20\n                /* \"#utility.yul\":11971:11980   */\n              dup3\n                /* \"#utility.yul\":11967:11985   */\n              add\n                /* \"#utility.yul\":11959:11985   */\n              swap1\n              pop\n                /* \"#utility.yul\":11995:12066   */\n              tag_316\n                /* \"#utility.yul\":12063:12064   */\n              0x00\n                /* \"#utility.yul\":12052:12061   */\n              dup4\n                /* \"#utility.yul\":12048:12065   */\n              add\n                /* \"#utility.yul\":12039:12045   */\n              dup5\n                /* \"#utility.yul\":11995:12066   */\n              tag_160\n              jump\t// in\n            tag_316:\n                /* \"#utility.yul\":11851:12073   */\n              swap3\n              swap2\n              pop\n              pop\n              jump\t// out\n                /* \"#utility.yul\":12079:12733   */\n            tag_41:\n                /* \"#utility.yul\":12157:12163   */\n              0x00\n                /* \"#utility.yul\":12165:12171   */\n              dup1\n                /* \"#utility.yul\":12214:12216   */\n              0x40\n                /* \"#utility.yul\":12202:12211   */\n              dup4\n                /* \"#utility.yul\":12193:12200   */\n              dup6\n                /* \"#utility.yul\":12189:12212   */\n              sub\n                /* \"#utility.yul\":12185:12217   */\n              slt\n                /* \"#utility.yul\":12182:12301   */\n              iszero\n              tag_318\n              jumpi\n                /* \"#utility.yul\":12220:12299   */\n              tag_319\n              tag_153\n              jump\t// in\n            tag_319:\n                /* \"#utility.yul\":12182:12301   */\n            tag_318:\n                /* \"#utility.yul\":12368:12369   */\n              0x00\n                /* \"#utility.yul\":12357:12366   */\n              dup4\n                /* \"#utility.yul\":12353:12370   */\n              add\n                /* \"#utility.yul\":12340:12371   */\n              calldataload\n                /* \"#utility.yul\":12398:12416   */\n              0xffffffffffffffff\n                /* \"#utility.yul\":12390:12396   */\n              dup2\n                /* \"#utility.yul\":12387:12417   */\n              gt\n                /* \"#utility.yul\":12384:12501   */\n              iszero\n              tag_320\n              jumpi\n                /* \"#utility.yul\":12420:12499   */\n              tag_321\n              tag_154\n              jump\t// in\n            tag_321:\n                /* \"#utility.yul\":12384:12501   */\n            tag_320:\n                /* \"#utility.yul\":12525:12588   */\n              tag_322\n                /* \"#utility.yul\":12580:12587   */\n              dup6\n                /* \"#utility.yul\":12571:12577   */\n              dup3\n                /* \"#utility.yul\":12560:12569   */\n              dup7\n                /* \"#utility.yul\":12556:12578   */\n              add\n                /* \"#utility.yul\":12525:12588   */\n              tag_175\n              jump\t// in\n            tag_322:\n                /* \"#utility.yul\":12515:12588   */\n              swap3\n              pop\n                /* \"#utility.yul\":12311:12598   */\n              pop\n                /* \"#utility.yul\":12637:12639   */\n              0x20\n                /* \"#utility.yul\":12663:12716   */\n              tag_323\n                /* \"#utility.yul\":12708:12715   */\n              dup6\n                /* \"#utility.yul\":12699:12705   */\n              dup3\n                /* \"#utility.yul\":12688:12697   */\n              dup7\n                /* \"#utility.yul\":12684:12706   */\n              add\n                /* \"#utility.yul\":12663:12716   */\n              tag_157\n              jump\t// in\n            tag_323:\n                /* \"#utility.yul\":12653:12716   */\n              swap2\n              pop\n                /* \"#utility.yul\":12608:12726   */\n              pop\n                /* \"#utility.yul\":12079:12733   */\n              swap3\n              pop\n              swap3\n              swap1\n              pop\n              jump\t// out\n                /* \"#utility.yul\":12739:13573   */\n            tag_45:\n                /* \"#utility.yul\":12827:12833   */\n              0x00\n                /* \"#utility.yul\":12835:12841   */\n              dup1\n                /* \"#utility.yul\":12884:12886   */\n              0x40\n                /* \"#utility.yul\":12872:12881   */\n              dup4\n                /* \"#utility.yul\":12863:12870   */\n              dup6\n                /* \"#utility.yul\":12859:12882   */\n              sub\n                /* \"#utility.yul\":12855:12887   */\n              slt\n                /* \"#utility.yul\":12852:12971   */\n              iszero\n              tag_325\n              jumpi\n                /* \"#utility.yul\":12890:12969   */\n              tag_326\n              tag_153\n              jump\t// in\n            tag_326:\n                /* \"#utility.yul\":12852:12971   */\n            tag_325:\n                /* \"#utility.yul\":13038:13039   */\n              0x00\n                /* \"#utility.yul\":13027:13036   */\n              dup4\n                /* \"#utility.yul\":13023:13040   */\n              add\n                /* \"#utility.yul\":13010:13041   */\n              calldataload\n                /* \"#utility.yul\":13068:13086   */\n              0xffffffffffffffff\n                /* \"#utility.yul\":13060:13066   */\n              dup2\n                /* \"#utility.yul\":13057:13087   */\n              gt\n                /* \"#utility.yul\":13054:13171   */\n              iszero\n              tag_327\n              jumpi\n                /* \"#utility.yul\":13090:13169   */\n              tag_328\n              tag_154\n              jump\t// in\n            tag_328:\n                /* \"#utility.yul\":13054:13171   */\n            tag_327:\n                /* \"#utility.yul\":13195:13258   */\n              tag_329\n                /* \"#utility.yul\":13250:13257   */\n              dup6\n                /* \"#utility.yul\":13241:13247   */\n              dup3\n                /* \"#utility.yul\":13230:13239   */\n              dup7\n                /* \"#utility.yul\":13226:13248   */\n              add\n                /* \"#utility.yul\":13195:13258   */\n              tag_175\n              jump\t// in\n            tag_329:\n                /* \"#utility.yul\":13185:13258   */\n              swap3\n              pop\n                /* \"#utility.yul\":12981:13268   */\n              pop\n                /* \"#utility.yul\":13335:13337   */\n              0x20\n                /* \"#utility.yul\":13324:13333   */\n              dup4\n                /* \"#utility.yul\":13320:13338   */\n              add\n                /* \"#utility.yul\":13307:13339   */\n              calldataload\n                /* \"#utility.yul\":13366:13384   */\n              0xffffffffffffffff\n                /* \"#utility.yul\":13358:13364   */\n              dup2\n                /* \"#utility.yul\":13355:13385   */\n              gt\n                /* \"#utility.yul\":13352:13469   */\n              iszero\n              tag_330\n              jumpi\n                /* \"#utility.yul\":13388:13467   */\n              tag_331\n              tag_154\n              jump\t// in\n            tag_331:\n                /* \"#utility.yul\":13352:13469   */\n            tag_330:\n                /* \"#utility.yul\":13493:13556   */\n              tag_332\n                /* \"#utility.yul\":13548:13555   */\n              dup6\n                /* \"#utility.yul\":13539:13545   */\n              dup3\n                /* \"#utility.yul\":13528:13537   */\n              dup7\n                /* \"#utility.yul\":13524:13546   */\n              add\n                /* \"#utility.yul\":13493:13556   */\n              tag_175\n              jump\t// in\n            tag_332:\n                /* \"#utility.yul\":13483:13556   */\n              swap2\n              pop\n                /* \"#utility.yul\":13278:13566   */\n              pop\n                /* \"#utility.yul\":12739:13573   */\n              swap3\n              pop\n              swap3\n              swap1\n              pop\n              jump\t// out\n                /* \"#utility.yul\":13579:13759   */\n            tag_189:\n                /* \"#utility.yul\":13627:13704   */\n              0x4e487b7100000000000000000000000000000000000000000000000000000000\n                /* \"#utility.yul\":13624:13625   */\n              0x00\n                /* \"#utility.yul\":13617:13705   */\n              mstore\n                /* \"#utility.yul\":13724:13728   */\n              0x22\n                /* \"#utility.yul\":13721:13722   */\n              0x04\n                /* \"#utility.yul\":13714:13729   */\n              mstore\n                /* \"#utility.yul\":13748:13752   */\n              0x24\n                /* \"#utility.yul\":13745:13746   */\n              0x00\n                /* \"#utility.yul\":13738:13753   */\n              revert\n                /* \"#utility.yul\":13765:14085   */\n            tag_50:\n                /* \"#utility.yul\":13809:13815   */\n              0x00\n                /* \"#utility.yul\":13846:13847   */\n              0x02\n                /* \"#utility.yul\":13840:13844   */\n              dup3\n                /* \"#utility.yul\":13836:13848   */\n              div\n                /* \"#utility.yul\":13826:13848   */\n              swap1\n              pop\n                /* \"#utility.yul\":13893:13894   */\n              0x01\n                /* \"#utility.yul\":13887:13891   */\n              dup3\n                /* \"#utility.yul\":13883:13895   */\n              and\n                /* \"#utility.yul\":13914:13932   */\n              dup1\n                /* \"#utility.yul\":13904:13985   */\n              tag_335\n              jumpi\n                /* \"#utility.yul\":13970:13974   */\n              0x7f\n                /* \"#utility.yul\":13962:13968   */\n              dup3\n                /* \"#utility.yul\":13958:13975   */\n              and\n                /* \"#utility.yul\":13948:13975   */\n              swap2\n              pop\n                /* \"#utility.yul\":13904:13985   */\n            tag_335:\n                /* \"#utility.yul\":14032:14034   */\n              0x20\n                /* \"#utility.yul\":14024:14030   */\n              dup3\n                /* \"#utility.yul\":14021:14035   */\n              lt\n                /* \"#utility.yul\":14001:14019   */\n              dup2\n                /* \"#utility.yul\":13998:14036   */\n              eq\n                /* \"#utility.yul\":13995:14079   */\n              iszero\n              tag_336\n              jumpi\n                /* \"#utility.yul\":14051:14069   */\n              tag_337\n              tag_189\n              jump\t// in\n            tag_337:\n                /* \"#utility.yul\":13995:14079   */\n            tag_336:\n                /* \"#utility.yul\":13816:14085   */\n              pop\n                /* \"#utility.yul\":13765:14085   */\n              swap2\n              swap1\n              pop\n              jump\t// out\n                /* \"#utility.yul\":14091:14313   */\n            tag_190:\n                /* \"#utility.yul\":14231:14265   */\n              0x4f6e6c79206d616e616765722063616e2063616c6c20746869732066756e6374\n                /* \"#utility.yul\":14227:14228   */\n              0x00\n                /* \"#utility.yul\":14219:14225   */\n              dup3\n                /* \"#utility.yul\":14215:14229   */\n              add\n                /* \"#utility.yul\":14208:14266   */\n              mstore\n                /* \"#utility.yul\":14300:14305   */\n              0x696f6e0000000000000000000000000000000000000000000000000000000000\n                /* \"#utility.yul\":14295:14297   */\n              0x20\n                /* \"#utility.yul\":14287:14293   */\n              dup3\n                /* \"#utility.yul\":14283:14298   */\n              add\n                /* \"#utility.yul\":14276:14306   */\n              mstore\n                /* \"#utility.yul\":14091:14313   */\n              pop\n              jump\t// out\n                /* \"#utility.yul\":14319:14685   */\n            tag_191:\n                /* \"#utility.yul\":14461:14464   */\n              0x00\n                /* \"#utility.yul\":14482:14549   */\n              tag_340\n                /* \"#utility.yul\":14546:14548   */\n              0x23\n                /* \"#utility.yul\":14541:14544   */\n              dup4\n                /* \"#utility.yul\":14482:14549   */\n              tag_162\n              jump\t// in\n            tag_340:\n                /* \"#utility.yul\":14475:14549   */\n              swap2\n              pop\n                /* \"#utility.yul\":14558:14651   */\n              tag_341\n                /* \"#utility.yul\":14647:14650   */\n              dup3\n                /* \"#utility.yul\":14558:14651   */\n              tag_190\n              jump\t// in\n            tag_341:\n                /* \"#utility.yul\":14676:14678   */\n              0x40\n                /* \"#utility.yul\":14671:14674   */\n              dup3\n                /* \"#utility.yul\":14667:14679   */\n              add\n                /* \"#utility.yul\":14660:14679   */\n              swap1\n              pop\n                /* \"#utility.yul\":14319:14685   */\n              swap2\n              swap1\n              pop\n              jump\t// out\n                /* \"#utility.yul\":14691:15110   */\n            tag_92:\n                /* \"#utility.yul\":14857:14861   */\n              0x00\n                /* \"#utility.yul\":14895:14897   */\n              0x20\n                /* \"#utility.yul\":14884:14893   */\n              dup3\n                /* \"#utility.yul\":14880:14898   */\n              add\n                /* \"#utility.yul\":14872:14898   */\n              swap1\n              pop\n                /* \"#utility.yul\":14944:14953   */\n              dup2\n                /* \"#utility.yul\":14938:14942   */\n              dup2\n                /* \"#utility.yul\":14934:14954   */\n              sub\n                /* \"#utility.yul\":14930:14931   */\n              0x00\n                /* \"#utility.yul\":14919:14928   */\n              dup4\n                /* \"#utility.yul\":14915:14932   */\n              add\n                /* \"#utility.yul\":14908:14955   */\n              mstore\n                /* \"#utility.yul\":14972:15103   */\n              tag_343\n                /* \"#utility.yul\":15098:15102   */\n              dup2\n                /* \"#utility.yul\":14972:15103   */\n              tag_191\n              jump\t// in\n            tag_343:\n                /* \"#utility.yul\":14964:15103   */\n              swap1\n              pop\n                /* \"#utility.yul\":14691:15110   */\n              swap2\n              swap1\n              pop\n              jump\t// out\n                /* \"#utility.yul\":15116:15296   */\n            tag_99:\n                /* \"#utility.yul\":15164:15241   */\n              0x4e487b7100000000000000000000000000000000000000000000000000000000\n                /* \"#utility.yul\":15161:15162   */\n              0x00\n                /* \"#utility.yul\":15154:15242   */\n              mstore\n                /* \"#utility.yul\":15261:15265   */\n              0x32\n                /* \"#utility.yul\":15258:15259   */\n              0x04\n                /* \"#utility.yul\":15251:15266   */\n              mstore\n                /* \"#utility.yul\":15285:15289   */\n              0x24\n                /* \"#utility.yul\":15282:15283   */\n              0x00\n                /* \"#utility.yul\":15275:15290   */\n              revert\n                /* \"#utility.yul\":15302:15482   */\n            tag_192:\n                /* \"#utility.yul\":15350:15427   */\n              0x4e487b7100000000000000000000000000000000000000000000000000000000\n                /* \"#utility.yul\":15347:15348   */\n              0x00\n                /* \"#utility.yul\":15340:15428   */\n              mstore\n                /* \"#utility.yul\":15447:15451   */\n              0x11\n                /* \"#utility.yul\":15444:15445   */\n              0x04\n                /* \"#utility.yul\":15437:15452   */\n              mstore\n                /* \"#utility.yul\":15471:15475   */\n              0x24\n                /* \"#utility.yul\":15468:15469   */\n              0x00\n                /* \"#utility.yul\":15461:15476   */\n              revert\n                /* \"#utility.yul\":15488:15721   */\n            tag_114:\n                /* \"#utility.yul\":15527:15530   */\n              0x00\n                /* \"#utility.yul\":15550:15574   */\n              tag_347\n                /* \"#utility.yul\":15568:15573   */\n              dup3\n                /* \"#utility.yul\":15550:15574   */\n              tag_155\n              jump\t// in\n            tag_347:\n                /* \"#utility.yul\":15541:15574   */\n              swap2\n              pop\n                /* \"#utility.yul\":15596:15662   */\n              0xffffffffffffffffffffffffffffffffffffffffffffffffffffffffffffffff\n                /* \"#utility.yul\":15589:15594   */\n              dup3\n                /* \"#utility.yul\":15586:15663   */\n              eq\n                /* \"#utility.yul\":15583:15686   */\n              iszero\n              tag_348\n              jumpi\n                /* \"#utility.yul\":15666:15684   */\n              tag_349\n              tag_192\n              jump\t// in\n            tag_349:\n                /* \"#utility.yul\":15583:15686   */\n            tag_348:\n                /* \"#utility.yul\":15713:15714   */\n              0x01\n                /* \"#utility.yul\":15706:15711   */\n              dup3\n                /* \"#utility.yul\":15702:15715   */\n              add\n                /* \"#utility.yul\":15695:15715   */\n              swap1\n              pop\n                /* \"#utility.yul\":15488:15721   */\n              swap2\n              swap1\n              pop\n              jump\t// out\n                /* \"#utility.yul\":15727:15875   */\n            tag_193:\n                /* \"#utility.yul\":15829:15840   */\n              0x00\n                /* \"#utility.yul\":15866:15869   */\n              dup2\n                /* \"#utility.yul\":15851:15869   */\n              swap1\n              pop\n                /* \"#utility.yul\":15727:15875   */\n              swap3\n              swap2\n              pop\n              pop\n              jump\t// out\n                /* \"#utility.yul\":15881:16258   */\n            tag_194:\n                /* \"#utility.yul\":15987:15990   */\n              0x00\n                /* \"#utility.yul\":16015:16054   */\n              tag_352\n                /* \"#utility.yul\":16048:16053   */\n              dup3\n                /* \"#utility.yul\":16015:16054   */\n              tag_161\n              jump\t// in\n            tag_352:\n                /* \"#utility.yul\":16070:16159   */\n              tag_353\n                /* \"#utility.yul\":16152:16158   */\n              dup2\n                /* \"#utility.yul\":16147:16150   */\n              dup6\n                /* \"#utility.yul\":16070:16159   */\n              tag_193\n              jump\t// in\n            tag_353:\n                /* \"#utility.yul\":16063:16159   */\n              swap4\n              pop\n                /* \"#utility.yul\":16168:16220   */\n              tag_354\n                /* \"#utility.yul\":16213:16219   */\n              dup2\n                /* \"#utility.yul\":16208:16211   */\n              dup6\n                /* \"#utility.yul\":16201:16205   */\n              0x20\n                /* \"#utility.yul\":16194:16199   */\n              dup7\n                /* \"#utility.yul\":16190:16206   */\n              add\n                /* \"#utility.yul\":16168:16220   */\n              tag_163\n              jump\t// in\n            tag_354:\n                /* \"#utility.yul\":16245:16251   */\n              dup1\n                /* \"#utility.yul\":16240:16243   */\n              dup5\n                /* \"#utility.yul\":16236:16252   */\n              add\n                /* \"#utility.yul\":16229:16252   */\n              swap2\n              pop\n                /* \"#utility.yul\":15991:16258   */\n              pop\n                /* \"#utility.yul\":15881:16258   */\n              swap3\n              swap2\n              pop\n              pop\n              jump\t// out\n                /* \"#utility.yul\":16264:16539   */\n            tag_117:\n                /* \"#utility.yul\":16396:16399   */\n              0x00\n                /* \"#utility.yul\":16418:16513   */\n              tag_356\n                /* \"#utility.yul\":16509:16512   */\n              dup3\n                /* \"#utility.yul\":16500:16506   */\n              dup5\n                /* \"#utility.yul\":16418:16513   */\n              tag_194\n              jump\t// in\n            tag_356:\n                /* \"#utility.yul\":16411:16513   */\n              swap2\n              pop\n                /* \"#utility.yul\":16530:16533   */\n              dup2\n                /* \"#utility.yul\":16523:16533   */\n              swap1\n              pop\n                /* \"#utility.yul\":16264:16539   */\n              swap3\n              swap2\n              pop\n              pop\n              jump\t// out\n                /* \"#utility.yul\":16545:16778   */\n            tag_195:\n                /* \"#utility.yul\":16685:16719   */\n              0x596f7520617265206e6f7420656c696769626c6520746f20766f746520666f72\n                /* \"#utility.yul\":16681:16682   */\n              0x00\n                /* \"#utility.yul\":16673:16679   */\n              dup3\n                /* \"#utility.yul\":16669:16683   */\n              add\n                /* \"#utility.yul\":16662:16720   */\n              mstore\n                /* \"#utility.yul\":16754:16770   */\n              0x207468697320656c656374696f6e000000000000000000000000000000000000\n                /* \"#utility.yul\":16749:16751   */\n              0x20\n                /* \"#utility.yul\":16741:16747   */\n              dup3\n                /* \"#utility.yul\":16737:16752   */\n              add\n                /* \"#utility.yul\":16730:16771   */\n              mstore\n                /* \"#utility.yul\":16545:16778   */\n              pop\n              jump\t// out\n                /* \"#utility.yul\":16784:17150   */\n            tag_196:\n                /* \"#utility.yul\":16926:16929   */\n              0x00\n                /* \"#utility.yul\":16947:17014   */\n              tag_359\n                /* \"#utility.yul\":17011:17013   */\n              0x2e\n                /* \"#utility.yul\":17006:17009   */\n              dup4\n                /* \"#utility.yul\":16947:17014   */\n              tag_162\n              jump\t// in\n            tag_359:\n                /* \"#utility.yul\":16940:17014   */\n              swap2\n              pop\n                /* \"#utility.yul\":17023:17116   */\n              tag_360\n                /* \"#utility.yul\":17112:17115   */\n              dup3\n                /* \"#utility.yul\":17023:17116   */\n              tag_195\n              jump\t// in\n            tag_360:\n                /* \"#utility.yul\":17141:17143   */\n              0x40\n                /* \"#utility.yul\":17136:17139   */\n              dup3\n                /* \"#utility.yul\":17132:17144   */\n              add\n                /* \"#utility.yul\":17125:17144   */\n              swap1\n              pop\n                /* \"#utility.yul\":16784:17150   */\n              swap2\n              swap1\n              pop\n              jump\t// out\n                /* \"#utility.yul\":17156:17575   */\n            tag_120:\n                /* \"#utility.yul\":17322:17326   */\n              0x00\n                /* \"#utility.yul\":17360:17362   */\n              0x20\n                /* \"#utility.yul\":17349:17358   */\n              dup3\n                /* \"#utility.yul\":17345:17363   */\n              add\n                /* \"#utility.yul\":17337:17363   */\n              swap1\n              pop\n                /* \"#utility.yul\":17409:17418   */\n              dup2\n                /* \"#utility.yul\":17403:17407   */\n              dup2\n                /* \"#utility.yul\":17399:17419   */\n              sub\n                /* \"#utility.yul\":17395:17396   */\n              0x00\n                /* \"#utility.yul\":17384:17393   */\n              dup4\n                /* \"#utility.yul\":17380:17397   */\n              add\n                /* \"#utility.yul\":17373:17420   */\n              mstore\n                /* \"#utility.yul\":17437:17568   */\n              tag_362\n                /* \"#utility.yul\":17563:17567   */\n              dup2\n                /* \"#utility.yul\":17437:17568   */\n              tag_196\n              jump\t// in\n            tag_362:\n                /* \"#utility.yul\":17429:17568   */\n              swap1\n              pop\n                /* \"#utility.yul\":17156:17575   */\n              swap2\n              swap1\n              pop\n              jump\t// out\n                /* \"#utility.yul\":17581:17750   */\n            tag_197:\n                /* \"#utility.yul\":17721:17742   */\n              0x566f746520616c72656164792063617374656400000000000000000000000000\n                /* \"#utility.yul\":17717:17718   */\n              0x00\n                /* \"#utility.yul\":17709:17715   */\n              dup3\n                /* \"#utility.yul\":17705:17719   */\n              add\n                /* \"#utility.yul\":17698:17743   */\n              mstore\n                /* \"#utility.yul\":17581:17750   */\n              pop\n              jump\t// out\n                /* \"#utility.yul\":17756:18122   */\n            tag_198:\n                /* \"#utility.yul\":17898:17901   */\n              0x00\n                /* \"#utility.yul\":17919:17986   */\n              tag_365\n                /* \"#utility.yul\":17983:17985   */\n              0x13\n                /* \"#utility.yul\":17978:17981   */\n              dup4\n                /* \"#utility.yul\":17919:17986   */\n              tag_162\n              jump\t// in\n            tag_365:\n                /* \"#utility.yul\":17912:17986   */\n              swap2\n              pop\n                /* \"#utility.yul\":17995:18088   */\n              tag_366\n                /* \"#utility.yul\":18084:18087   */\n              dup3\n                /* \"#utility.yul\":17995:18088   */\n              tag_197\n              jump\t// in\n            tag_366:\n                /* \"#utility.yul\":18113:18115   */\n              0x20\n                /* \"#utility.yul\":18108:18111   */\n              dup3\n                /* \"#utility.yul\":18104:18116   */\n              add\n                /* \"#utility.yul\":18097:18116   */\n              swap1\n              pop\n                /* \"#utility.yul\":17756:18122   */\n              swap2\n              swap1\n              pop\n              jump\t// out\n                /* \"#utility.yul\":18128:18547   */\n            tag_124:\n                /* \"#utility.yul\":18294:18298   */\n              0x00\n                /* \"#utility.yul\":18332:18334   */\n              0x20\n                /* \"#utility.yul\":18321:18330   */\n              dup3\n                /* \"#utility.yul\":18317:18335   */\n              add\n                /* \"#utility.yul\":18309:18335   */\n              swap1\n              pop\n                /* \"#utility.yul\":18381:18390   */\n              dup2\n                /* \"#utility.yul\":18375:18379   */\n              dup2\n                /* \"#utility.yul\":18371:18391   */\n              sub\n                /* \"#utility.yul\":18367:18368   */\n              0x00\n                /* \"#utility.yul\":18356:18365   */\n              dup4\n                /* \"#utility.yul\":18352:18369   */\n              add\n                /* \"#utility.yul\":18345:18392   */\n              mstore\n                /* \"#utility.yul\":18409:18540   */\n              tag_368\n                /* \"#utility.yul\":18535:18539   */\n              dup2\n                /* \"#utility.yul\":18409:18540   */\n              tag_198\n              jump\t// in\n            tag_368:\n                /* \"#utility.yul\":18401:18540   */\n              swap1\n              pop\n                /* \"#utility.yul\":18128:18547   */\n              swap2\n              swap1\n              pop\n              jump\t// out\n                /* \"#utility.yul\":18553:18720   */\n            tag_199:\n                /* \"#utility.yul\":18693:18712   */\n              0x496e76616c69642063616e646964617465000000000000000000000000000000\n                /* \"#utility.yul\":18689:18690   */\n              0x00\n                /* \"#utility.yul\":18681:18687   */\n              dup3\n                /* \"#utility.yul\":18677:18691   */\n              add\n                /* \"#utility.yul\":18670:18713   */\n              mstore\n                /* \"#utility.yul\":18553:18720   */\n              pop\n              jump\t// out\n                /* \"#utility.yul\":18726:19092   */\n            tag_200:\n                /* \"#utility.yul\":18868:18871   */\n              0x00\n                /* \"#utility.yul\":18889:18956   */\n              tag_371\n                /* \"#utility.yul\":18953:18955   */\n              0x11\n                /* \"#utility.yul\":18948:18951   */\n              dup4\n                /* \"#utility.yul\":18889:18956   */\n              tag_162\n              jump\t// in\n            tag_371:\n                /* \"#utility.yul\":18882:18956   */\n              swap2\n              pop\n                /* \"#utility.yul\":18965:19058   */\n              tag_372\n                /* \"#utility.yul\":19054:19057   */\n              dup3\n                /* \"#utility.yul\":18965:19058   */\n              tag_199\n              jump\t// in\n            tag_372:\n                /* \"#utility.yul\":19083:19085   */\n              0x20\n                /* \"#utility.yul\":19078:19081   */\n              dup3\n                /* \"#utility.yul\":19074:19086   */\n              add\n                /* \"#utility.yul\":19067:19086   */\n              swap1\n              pop\n                /* \"#utility.yul\":18726:19092   */\n              swap2\n              swap1\n              pop\n              jump\t// out\n                /* \"#utility.yul\":19098:19517   */\n            tag_127:\n                /* \"#utility.yul\":19264:19268   */\n              0x00\n                /* \"#utility.yul\":19302:19304   */\n              0x20\n                /* \"#utility.yul\":19291:19300   */\n              dup3\n                /* \"#utility.yul\":19287:19305   */\n              add\n                /* \"#utility.yul\":19279:19305   */\n              swap1\n              pop\n                /* \"#utility.yul\":19351:19360   */\n              dup2\n                /* \"#utility.yul\":19345:19349   */\n              dup2\n                /* \"#utility.yul\":19341:19361   */\n              sub\n                /* \"#utility.yul\":19337:19338   */\n              0x00\n                /* \"#utility.yul\":19326:19335   */\n              dup4\n                /* \"#utility.yul\":19322:19339   */\n              add\n                /* \"#utility.yul\":19315:19362   */\n              mstore\n                /* \"#utility.yul\":19379:19510   */\n              tag_374\n                /* \"#utility.yul\":19505:19509   */\n              dup2\n                /* \"#utility.yul\":19379:19510   */\n              tag_200\n              jump\t// in\n            tag_374:\n                /* \"#utility.yul\":19371:19510   */\n              swap1\n              pop\n                /* \"#utility.yul\":19098:19517   */\n              swap2\n              swap1\n              pop\n              jump\t// out\n\n            auxdata: 0xa2646970667358221220b4cc669764c8b5914eaba53da23d9b6a79ed0acc2f836f439eabbbb9bdb87f9f64736f6c634300080a0033\n        }\n    }\n\n    auxdata: 0xa2646970667358221220f4eda64b26cd07d6b0d2a7584baacb366dc1759c7d53f279cdd232081059d9c364736f6c634300080a0033\n}\n","bytecode":{"linkReferences":{},"object":"608060405234801561001057600080fd5b506126ee806100206000396000f3fe60806040523480156200001157600080fd5b50600436106200003a5760003560e01c806367dc64c5146200003f578063eceed339146200005f575b600080fd5b6200005d60048036038101906200005791906200043a565b62000081565b005b620000696200012a565b604051620000789190620005c1565b60405180910390f35b60003383836040516200009490620001ba565b620000a293929190620007ab565b604051809103906000f080158015620000bf573d6000803e3d6000fd5b5090506000819080600181540180825580915050600190039060005260206000200160009091909190916101000a81548173ffffffffffffffffffffffffffffffffffffffff021916908373ffffffffffffffffffffffffffffffffffffffff160217905550505050565b60606000805480602002602001604051908101604052809291908181526020018280548015620001b057602002820191906000526020600020905b8160009054906101000a900473ffffffffffffffffffffffffffffffffffffffff1673ffffffffffffffffffffffffffffffffffffffff168152602001906001019080831162000165575b5050505050905090565b611ec280620007f783390190565b6000604051905090565b600080fd5b600080fd5b600080fd5b6000601f19601f8301169050919050565b7f4e487b7100000000000000000000000000000000000000000000000000000000600052604160045260246000fd5b6200022c82620001e1565b810181811067ffffffffffffffff821117156200024e576200024d620001f2565b5b80604052505050565b600062000263620001c8565b905062000271828262000221565b919050565b600067ffffffffffffffff821115620002945762000293620001f2565b5b602082029050602081019050919050565b600080fd5b600080fd5b600067ffffffffffffffff821115620002cd57620002cc620001f2565b5b620002d882620001e1565b9050602081019050919050565b82818337600083830152505050565b60006200030b6200030584620002af565b62000257565b9050828152602081018484840111156200032a5762000329620002aa565b5b62000337848285620002e5565b509392505050565b600082601f830112620003575762000356620001dc565b5b813562000369848260208601620002f4565b91505092915050565b600062000389620003838462000276565b62000257565b90508083825260208201905060208402830185811115620003af57620003ae620002a5565b5b835b81811015620003fd57803567ffffffffffffffff811115620003d857620003d7620001dc565b5b808601620003e789826200033f565b85526020850194505050602081019050620003b1565b5050509392505050565b600082601f8301126200041f576200041e620001dc565b5b81356200043184826020860162000372565b91505092915050565b60008060408385031215620004545762000453620001d2565b5b600083013567ffffffffffffffff811115620004755762000474620001d7565b5b620004838582860162000407565b925050602083013567ffffffffffffffff811115620004a757620004a6620001d7565b5b620004b5858286016200033f565b9150509250929050565b600081519050919050565b600082825260208201905092915050565b6000819050602082019050919050565b600073ffffffffffffffffffffffffffffffffffffffff82169050919050565b60006200051882620004eb565b9050919050565b6200052a816200050b565b82525050565b60006200053e83836200051f565b60208301905092915050565b6000602082019050919050565b60006200056482620004bf565b620005708185620004ca565b93506200057d83620004db565b8060005b83811015620005b457815162000598888262000530565b9750620005a5836200054a565b92505060018101905062000581565b5085935050505092915050565b60006020820190508181036000830152620005dd818462000557565b905092915050565b620005f0816200050b565b82525050565b600081519050919050565b600082825260208201905092915050565b6000819050602082019050919050565b600081519050919050565b600082825260208201905092915050565b60005b838110156200065e57808201518184015260208101905062000641565b838111156200066e576000848401525b50505050565b6000620006818262000622565b6200068d81856200062d565b93506200069f8185602086016200063e565b620006aa81620001e1565b840191505092915050565b6000620006c3838362000674565b905092915050565b6000602082019050919050565b6000620006e582620005f6565b620006f1818562000601565b935083602082028501620007058562000612565b8060005b85811015620007475784840389528151620007258582620006b5565b94506200073283620006cb565b925060208a0199505060018101905062000709565b50829750879550505050505092915050565b600082825260208201905092915050565b6000620007778262000622565b62000783818562000759565b9350620007958185602086016200063e565b620007a081620001e1565b840191505092915050565b6000606082019050620007c26000830186620005e5565b8181036020830152620007d68185620006d8565b90508181036040830152620007ec81846200076a565b905094935050505056fe60806040523480156200001157600080fd5b5060405162001ec238038062001ec2833981810160405281019062000037919062000594565b826000806101000a81548173ffffffffffffffffffffffffffffffffffffffff021916908373ffffffffffffffffffffffffffffffffffffffff16021790555080600190805190602001906200008f929190620001e6565b5060005b8251811015620001dc576040518060800160405280848381518110620000be57620000bd6200062e565b5b6020026020010151815260200160018152602001600015158152602001600073ffffffffffffffffffffffffffffffffffffffff1681525060028483815181106200010e576200010d6200062e565b5b6020026020010151604051620001259190620006aa565b9081526020016040518091039020600082015181600001908051906020019062000151929190620001e6565b506020820151816001015560408201518160020160006101000a81548160ff02191690831515021790555060608201518160020160016101000a81548173ffffffffffffffffffffffffffffffffffffffff021916908373ffffffffffffffffffffffffffffffffffffffff1602179055509050508080620001d390620006fc565b91505062000093565b50505050620007af565b828054620001f49062000779565b90600052602060002090601f01602090048101928262000218576000855562000264565b82601f106200023357805160ff191683800117855562000264565b8280016001018555821562000264579182015b828111156200026357825182559160200191906001019062000246565b5b50905062000273919062000277565b5090565b5b808211156200029257600081600090555060010162000278565b5090565b6000604051905090565b600080fd5b600080fd5b600073ffffffffffffffffffffffffffffffffffffffff82169050919050565b6000620002d782620002aa565b9050919050565b620002e981620002ca565b8114620002f557600080fd5b50565b6000815190506200030981620002de565b92915050565b600080fd5b6000601f19601f8301169050919050565b7f4e487b7100000000000000000000000000000000000000000000000000000000600052604160045260246000fd5b6200035f8262000314565b810181811067ffffffffffffffff8211171562000381576200038062000325565b5b80604052505050565b60006200039662000296565b9050620003a4828262000354565b919050565b600067ffffffffffffffff821115620003c757620003c662000325565b5b602082029050602081019050919050565b600080fd5b600080fd5b600067ffffffffffffffff8211156200040057620003ff62000325565b5b6200040b8262000314565b9050602081019050919050565b60005b83811015620004385780820151818401526020810190506200041b565b8381111562000448576000848401525b50505050565b6000620004656200045f84620003e2565b6200038a565b905082815260208101848484011115620004845762000483620003dd565b5b6200049184828562000418565b509392505050565b600082601f830112620004b157620004b06200030f565b5b8151620004c38482602086016200044e565b91505092915050565b6000620004e3620004dd84620003a9565b6200038a565b90508083825260208201905060208402830185811115620005095762000508620003d8565b5b835b818110156200055757805167ffffffffffffffff8111156200053257620005316200030f565b5b80860162000541898262000499565b855260208501945050506020810190506200050b565b5050509392505050565b600082601f8301126200057957620005786200030f565b5b81516200058b848260208601620004cc565b91505092915050565b600080600060608486031215620005b057620005af620002a0565b5b6000620005c086828701620002f8565b935050602084015167ffffffffffffffff811115620005e457620005e3620002a5565b5b620005f28682870162000561565b925050604084015167ffffffffffffffff811115620006165762000615620002a5565b5b620006248682870162000499565b9150509250925092565b7f4e487b7100000000000000000000000000000000000000000000000000000000600052603260045260246000fd5b600081519050919050565b600081905092915050565b600062000680826200065d565b6200068c818562000668565b93506200069e81856020860162000418565b80840191505092915050565b6000620006b8828462000673565b915081905092915050565b7f4e487b7100000000000000000000000000000000000000000000000000000000600052601160045260246000fd5b6000819050919050565b60006200070982620006f2565b91507fffffffffffffffffffffffffffffffffffffffffffffffffffffffffffffffff8214156200073f576200073e620006c3565b5b600182019050919050565b7f4e487b7100000000000000000000000000000000000000000000000000000000600052602260045260246000fd5b600060028204905060018216806200079257607f821691505b60208210811415620007a957620007a86200074a565b5b50919050565b61170380620007bf6000396000f3fe608060405234801561001057600080fd5b50600436106100885760003560e01c80635d495aea1161005b5780635d495aea146101315780638da5cb5b1461014f578063a63858031461016d578063cad98e2b1461018957610088565b80633477ee2e1461008d5780634a79d50c146100c057806353fa2e64146100de578063565974d314610111575b600080fd5b6100a760048036038101906100a29190610d3e565b6101a5565b6040516100b79493929190610e54565b60405180910390f35b6100c8610315565b6040516100d59190610ea7565b60405180910390f35b6100f860048036038101906100f39190610ffe565b6103a3565b6040516101089493929190611062565b60405180910390f35b61011961049e565b60405161012893929190611242565b60405180910390f35b61013961073c565b6040516101469190610ea7565b60405180910390f35b610157610901565b6040516101649190611287565b60405180910390f35b610187600480360381019061018291906112a2565b610925565b005b6101a3600480360381019061019e91906112fe565b610b5d565b005b600381815481106101b557600080fd5b90600052602060002090600402016000915090508060000160009054906101000a900473ffffffffffffffffffffffffffffffffffffffff16908060010180546101fe906113a5565b80601f016020809104026020016040519081016040528092919081815260200182805461022a906113a5565b80156102775780601f1061024c57610100808354040283529160200191610277565b820191906000526020600020905b81548152906001019060200180831161025a57829003601f168201915b50505050509080600201805461028c906113a5565b80601f01602080910402602001604051908101604052809291908181526020018280546102b8906113a5565b80156103055780601f106102da57610100808354040283529160200191610305565b820191906000526020600020905b8154815290600101906020018083116102e857829003601f168201915b5050505050908060030154905084565b60018054610322906113a5565b80601f016020809104026020016040519081016040528092919081815260200182805461034e906113a5565b801561039b5780601f106103705761010080835404028352916020019161039b565b820191906000526020600020905b81548152906001019060200180831161037e57829003601f168201915b505050505081565b6002818051602081018201805184825260208301602085012081835280955050505050506000915090508060000180546103dc906113a5565b80601f0160208091040260200160405190810160405280929190818152602001828054610408906113a5565b80156104555780601f1061042a57610100808354040283529160200191610455565b820191906000526020600020905b81548152906001019060200180831161043857829003601f168201915b5050505050908060010154908060020160009054906101000a900460ff16908060020160019054906101000a900473ffffffffffffffffffffffffffffffffffffffff16905084565b600060608060008054906101000a900473ffffffffffffffffffffffffffffffffffffffff16600160038180546104d4906113a5565b80601f0160208091040260200160405190810160405280929190818152602001828054610500906113a5565b801561054d5780601f106105225761010080835404028352916020019161054d565b820191906000526020600020905b81548152906001019060200180831161053057829003601f168201915b5050505050915080805480602002602001604051908101604052809291908181526020016000905b8282101561072b57838290600052602060002090600402016040518060800160405290816000820160009054906101000a900473ffffffffffffffffffffffffffffffffffffffff1673ffffffffffffffffffffffffffffffffffffffff1673ffffffffffffffffffffffffffffffffffffffff1681526020016001820180546105fe906113a5565b80601f016020809104026020016040519081016040528092919081815260200182805461062a906113a5565b80156106775780601f1061064c57610100808354040283529160200191610677565b820191906000526020600020905b81548152906001019060200180831161065a57829003601f168201915b50505050508152602001600282018054610690906113a5565b80601f01602080910402602001604051908101604052809291908181526020018280546106bc906113a5565b80156107095780601f106106de57610100808354040283529160200191610709565b820191906000526020600020905b8154815290600101906020018083116106ec57829003601f168201915b5050505050815260200160038201548152505081526020019060010190610575565b505050509050925092509250909192565b606060008054906101000a900473ffffffffffffffffffffffffffffffffffffffff1673ffffffffffffffffffffffffffffffffffffffff163373ffffffffffffffffffffffffffffffffffffffff16146107cc576040517f08c379a00000000000000000000000000000000000000000000000000000000081526004016107c390611449565b60405180910390fd5b60606000805b6003805490508110156108f85781600382815481106107f4576107f3611469565b5b90600052602060002090600402016003015411156108e557600381815481106108205761081f611469565b5b9060005260206000209060040201600101805461083c906113a5565b80601f0160208091040260200160405190810160405280929190818152602001828054610868906113a5565b80156108b55780601f1061088a576101008083540402835291602001916108b5565b820191906000526020600020905b81548152906001019060200180831161089857829003601f168201915b50505050509250600381815481106108d0576108cf611469565b5b90600052602060002090600402016003015491505b80806108f0906114c7565b9150506107d2565b50819250505090565b60008054906101000a900473ffffffffffffffffffffffffffffffffffffffff1681565b6001600283604051610937919061154c565b90815260200160405180910390206001015414610989576040517f08c379a0000000000000000000000000000000000000000000000000000000008152600401610980906115d5565b60405180910390fd5b600282604051610999919061154c565b908152602001604051809103902060020160009054906101000a900460ff16156109f8576040517f08c379a00000000000000000000000000000000000000000000000000000000081526004016109ef90611641565b60405180910390fd5b6003805490508110610a3f576040517f08c379a0000000000000000000000000000000000000000000000000000000008152600401610a36906116ad565b60405180910390fd5b60038181548110610a5357610a52611469565b5b90600052602060002090600402016003016000815480929190610a75906114c7565b91905055506001600283604051610a8c919061154c565b908152602001604051809103902060020160006101000a81548160ff02191690831515021790555060038181548110610ac857610ac7611469565b5b906000526020600020906004020160000160009054906101000a900473ffffffffffffffffffffffffffffffffffffffff16600283604051610b0a919061154c565b908152602001604051809103902060020160016101000a81548173ffffffffffffffffffffffffffffffffffffffff021916908373ffffffffffffffffffffffffffffffffffffffff1602179055505050565b600360405180608001604052803373ffffffffffffffffffffffffffffffffffffffff1681526020018481526020018381526020016000815250908060018154018082558091505060019003906000526020600020906004020160009091909190915060008201518160000160006101000a81548173ffffffffffffffffffffffffffffffffffffffff021916908373ffffffffffffffffffffffffffffffffffffffff1602179055506020820151816001019080519060200190610c23929190610c51565b506040820151816002019080519060200190610c40929190610c51565b506060820151816003015550505050565b828054610c5d906113a5565b90600052602060002090601f016020900481019282610c7f5760008555610cc6565b82601f10610c9857805160ff1916838001178555610cc6565b82800160010185558215610cc6579182015b82811115610cc5578251825591602001919060010190610caa565b5b509050610cd39190610cd7565b5090565b5b80821115610cf0576000816000905550600101610cd8565b5090565b6000604051905090565b600080fd5b600080fd5b6000819050919050565b610d1b81610d08565b8114610d2657600080fd5b50565b600081359050610d3881610d12565b92915050565b600060208284031215610d5457610d53610cfe565b5b6000610d6284828501610d29565b91505092915050565b600073ffffffffffffffffffffffffffffffffffffffff82169050919050565b6000610d9682610d6b565b9050919050565b610da681610d8b565b82525050565b600081519050919050565b600082825260208201905092915050565b60005b83811015610de6578082015181840152602081019050610dcb565b83811115610df5576000848401525b50505050565b6000601f19601f8301169050919050565b6000610e1782610dac565b610e218185610db7565b9350610e31818560208601610dc8565b610e3a81610dfb565b840191505092915050565b610e4e81610d08565b82525050565b6000608082019050610e696000830187610d9d565b8181036020830152610e7b8186610e0c565b90508181036040830152610e8f8185610e0c565b9050610e9e6060830184610e45565b95945050505050565b60006020820190508181036000830152610ec18184610e0c565b905092915050565b600080fd5b600080fd5b7f4e487b7100000000000000000000000000000000000000000000000000000000600052604160045260246000fd5b610f0b82610dfb565b810181811067ffffffffffffffff82111715610f2a57610f29610ed3565b5b80604052505050565b6000610f3d610cf4565b9050610f498282610f02565b919050565b600067ffffffffffffffff821115610f6957610f68610ed3565b5b610f7282610dfb565b9050602081019050919050565b82818337600083830152505050565b6000610fa1610f9c84610f4e565b610f33565b905082815260208101848484011115610fbd57610fbc610ece565b5b610fc8848285610f7f565b509392505050565b600082601f830112610fe557610fe4610ec9565b5b8135610ff5848260208601610f8e565b91505092915050565b60006020828403121561101457611013610cfe565b5b600082013567ffffffffffffffff81111561103257611031610d03565b5b61103e84828501610fd0565b91505092915050565b60008115159050919050565b61105c81611047565b82525050565b6000608082019050818103600083015261107c8187610e0c565b905061108b6020830186610e45565b6110986040830185611053565b6110a56060830184610d9d565b95945050505050565b600081519050919050565b600082825260208201905092915050565b6000819050602082019050919050565b6110e381610d8b565b82525050565b600082825260208201905092915050565b600061110582610dac565b61110f81856110e9565b935061111f818560208601610dc8565b61112881610dfb565b840191505092915050565b61113c81610d08565b82525050565b600060808301600083015161115a60008601826110da565b506020830151848203602086015261117282826110fa565b9150506040830151848203604086015261118c82826110fa565b91505060608301516111a16060860182611133565b508091505092915050565b60006111b88383611142565b905092915050565b6000602082019050919050565b60006111d8826110ae565b6111e281856110b9565b9350836020820285016111f4856110ca565b8060005b85811015611230578484038952815161121185826111ac565b945061121c836111c0565b925060208a019950506001810190506111f8565b50829750879550505050505092915050565b60006060820190506112576000830186610d9d565b81810360208301526112698185610e0c565b9050818103604083015261127d81846111cd565b9050949350505050565b600060208201905061129c6000830184610d9d565b92915050565b600080604083850312156112b9576112b8610cfe565b5b600083013567ffffffffffffffff8111156112d7576112d6610d03565b5b6112e385828601610fd0565b92505060206112f485828601610d29565b9150509250929050565b6000806040838503121561131557611314610cfe565b5b600083013567ffffffffffffffff81111561133357611332610d03565b5b61133f85828601610fd0565b925050602083013567ffffffffffffffff8111156113605761135f610d03565b5b61136c85828601610fd0565b9150509250929050565b7f4e487b7100000000000000000000000000000000000000000000000000000000600052602260045260246000fd5b600060028204905060018216806113bd57607f821691505b602082108114156113d1576113d0611376565b5b50919050565b7f4f6e6c79206d616e616765722063616e2063616c6c20746869732066756e637460008201527f696f6e0000000000000000000000000000000000000000000000000000000000602082015250565b6000611433602383610db7565b915061143e826113d7565b604082019050919050565b6000602082019050818103600083015261146281611426565b9050919050565b7f4e487b7100000000000000000000000000000000000000000000000000000000600052603260045260246000fd5b7f4e487b7100000000000000000000000000000000000000000000000000000000600052601160045260246000fd5b60006114d282610d08565b91507fffffffffffffffffffffffffffffffffffffffffffffffffffffffffffffffff82141561150557611504611498565b5b600182019050919050565b600081905092915050565b600061152682610dac565b6115308185611510565b9350611540818560208601610dc8565b80840191505092915050565b6000611558828461151b565b915081905092915050565b7f596f7520617265206e6f7420656c696769626c6520746f20766f746520666f7260008201527f207468697320656c656374696f6e000000000000000000000000000000000000602082015250565b60006115bf602e83610db7565b91506115ca82611563565b604082019050919050565b600060208201905081810360008301526115ee816115b2565b9050919050565b7f566f746520616c72656164792063617374656400000000000000000000000000600082015250565b600061162b601383610db7565b9150611636826115f5565b602082019050919050565b6000602082019050818103600083015261165a8161161e565b9050919050565b7f496e76616c69642063616e646964617465000000000000000000000000000000600082015250565b6000611697601183610db7565b91506116a282611661565b602082019050919050565b600060208201905081810360008301526116c68161168a565b905091905056fea2646970667358221220b4cc669764c8b5914eaba53da23d9b6a79ed0acc2f836f439eabbbb9bdb87f9f64736f6c634300080a0033a2646970667358221220f4eda64b26cd07d6b0d2a7584baacb366dc1759c7d53f279cdd232081059d9c364736f6c634300080a0033","opcodes":"PUSH1 0x80 PUSH1 0x40 MSTORE CALLVALUE DUP1 ISZERO PUSH2 0x10 JUMPI PUSH1 0x0 DUP1 REVERT JUMPDEST POP PUSH2 0x26EE DUP1 PUSH2 0x20 PUSH1 0x0 CODECOPY PUSH1 0x0 RETURN INVALID PUSH1 0x80 PUSH1 0x40 MSTORE CALLVALUE DUP1 ISZERO PUSH3 0x11 JUMPI PUSH1 0x0 DUP1 REVERT JUMPDEST POP PUSH1 0x4 CALLDATASIZE LT PUSH3 0x3A JUMPI PUSH1 0x0 CALLDATALOAD PUSH1 0xE0 SHR DUP1 PUSH4 0x67DC64C5 EQ PUSH3 0x3F JUMPI DUP1 PUSH4 0xECEED339 EQ PUSH3 0x5F JUMPI JUMPDEST PUSH1 0x0 DUP1 REVERT JUMPDEST PUSH3 0x5D PUSH1 0x4 DUP1 CALLDATASIZE SUB DUP2 ADD SWAP1 PUSH3 0x57 SWAP2 SWAP1 PUSH3 0x43A JUMP JUMPDEST PUSH3 0x81 JUMP JUMPDEST STOP JUMPDEST PUSH3 0x69 PUSH3 0x12A JUMP JUMPDEST PUSH1 0x40 MLOAD PUSH3 0x78 SWAP2 SWAP1 PUSH3 0x5C1 JUMP JUMPDEST PUSH1 0x40 MLOAD DUP1 SWAP2 SUB SWAP1 RETURN JUMPDEST PUSH1 0x0 CALLER DUP4 DUP4 PUSH1 0x40 MLOAD PUSH3 0x94 SWAP1 PUSH3 0x1BA JUMP JUMPDEST PUSH3 0xA2 SWAP4 SWAP3 SWAP2 SWAP1 PUSH3 0x7AB JUMP JUMPDEST PUSH1 0x40 MLOAD DUP1 SWAP2 SUB SWAP1 PUSH1 0x0 CREATE DUP1 ISZERO DUP1 ISZERO PUSH3 0xBF JUMPI RETURNDATASIZE PUSH1 0x0 DUP1 RETURNDATACOPY RETURNDATASIZE PUSH1 0x0 REVERT JUMPDEST POP SWAP1 POP PUSH1 0x0 DUP2 SWAP1 DUP1 PUSH1 0x1 DUP2 SLOAD ADD DUP1 DUP3 SSTORE DUP1 SWAP2 POP POP PUSH1 0x1 SWAP1 SUB SWAP1 PUSH1 0x0 MSTORE PUSH1 0x20 PUSH1 0x0 KECCAK256 ADD PUSH1 0x0 SWAP1 SWAP2 SWAP1 SWAP2 SWAP1 SWAP2 PUSH2 0x100 EXP DUP2 SLOAD DUP2 PUSH20 0xFFFFFFFFFFFFFFFFFFFFFFFFFFFFFFFFFFFFFFFF MUL NOT AND SWAP1 DUP4 PUSH20 0xFFFFFFFFFFFFFFFFFFFFFFFFFFFFFFFFFFFFFFFF AND MUL OR SWAP1 SSTORE POP POP POP POP JUMP JUMPDEST PUSH1 0x60 PUSH1 0x0 DUP1 SLOAD DUP1 PUSH1 0x20 MUL PUSH1 0x20 ADD PUSH1 0x40 MLOAD SWAP1 DUP2 ADD PUSH1 0x40 MSTORE DUP1 SWAP3 SWAP2 SWAP1 DUP2 DUP2 MSTORE PUSH1 0x20 ADD DUP3 DUP1 SLOAD DUP1 ISZERO PUSH3 0x1B0 JUMPI PUSH1 0x20 MUL DUP3 ADD SWAP2 SWAP1 PUSH1 0x0 MSTORE PUSH1 0x20 PUSH1 0x0 KECCAK256 SWAP1 JUMPDEST DUP2 PUSH1 0x0 SWAP1 SLOAD SWAP1 PUSH2 0x100 EXP SWAP1 DIV PUSH20 0xFFFFFFFFFFFFFFFFFFFFFFFFFFFFFFFFFFFFFFFF AND PUSH20 0xFFFFFFFFFFFFFFFFFFFFFFFFFFFFFFFFFFFFFFFF AND DUP2 MSTORE PUSH1 0x20 ADD SWAP1 PUSH1 0x1 ADD SWAP1 DUP1 DUP4 GT PUSH3 0x165 JUMPI JUMPDEST POP POP POP POP POP SWAP1 POP SWAP1 JUMP JUMPDEST PUSH2 0x1EC2 DUP1 PUSH3 0x7F7 DUP4 CODECOPY ADD SWAP1 JUMP JUMPDEST PUSH1 0x0 PUSH1 0x40 MLOAD SWAP1 POP SWAP1 JUMP JUMPDEST PUSH1 0x0 DUP1 REVERT JUMPDEST PUSH1 0x0 DUP1 REVERT JUMPDEST PUSH1 0x0 DUP1 REVERT JUMPDEST PUSH1 0x0 PUSH1 0x1F NOT PUSH1 0x1F DUP4 ADD AND SWAP1 POP SWAP2 SWAP1 POP JUMP JUMPDEST PUSH32 0x4E487B7100000000000000000000000000000000000000000000000000000000 PUSH1 0x0 MSTORE PUSH1 0x41 PUSH1 0x4 MSTORE PUSH1 0x24 PUSH1 0x0 REVERT JUMPDEST PUSH3 0x22C DUP3 PUSH3 0x1E1 JUMP JUMPDEST DUP2 ADD DUP2 DUP2 LT PUSH8 0xFFFFFFFFFFFFFFFF DUP3 GT OR ISZERO PUSH3 0x24E JUMPI PUSH3 0x24D PUSH3 0x1F2 JUMP JUMPDEST JUMPDEST DUP1 PUSH1 0x40 MSTORE POP POP POP JUMP JUMPDEST PUSH1 0x0 PUSH3 0x263 PUSH3 0x1C8 JUMP JUMPDEST SWAP1 POP PUSH3 0x271 DUP3 DUP3 PUSH3 0x221 JUMP JUMPDEST SWAP2 SWAP1 POP JUMP JUMPDEST PUSH1 0x0 PUSH8 0xFFFFFFFFFFFFFFFF DUP3 GT ISZERO PUSH3 0x294 JUMPI PUSH3 0x293 PUSH3 0x1F2 JUMP JUMPDEST JUMPDEST PUSH1 0x20 DUP3 MUL SWAP1 POP PUSH1 0x20 DUP2 ADD SWAP1 POP SWAP2 SWAP1 POP JUMP JUMPDEST PUSH1 0x0 DUP1 REVERT JUMPDEST PUSH1 0x0 DUP1 REVERT JUMPDEST PUSH1 0x0 PUSH8 0xFFFFFFFFFFFFFFFF DUP3 GT ISZERO PUSH3 0x2CD JUMPI PUSH3 0x2CC PUSH3 0x1F2 JUMP JUMPDEST JUMPDEST PUSH3 0x2D8 DUP3 PUSH3 0x1E1 JUMP JUMPDEST SWAP1 POP PUSH1 0x20 DUP2 ADD SWAP1 POP SWAP2 SWAP1 POP JUMP JUMPDEST DUP3 DUP2 DUP4 CALLDATACOPY PUSH1 0x0 DUP4 DUP4 ADD MSTORE POP POP POP JUMP JUMPDEST PUSH1 0x0 PUSH3 0x30B PUSH3 0x305 DUP5 PUSH3 0x2AF JUMP JUMPDEST PUSH3 0x257 JUMP JUMPDEST SWAP1 POP DUP3 DUP2 MSTORE PUSH1 0x20 DUP2 ADD DUP5 DUP5 DUP5 ADD GT ISZERO PUSH3 0x32A JUMPI PUSH3 0x329 PUSH3 0x2AA JUMP JUMPDEST JUMPDEST PUSH3 0x337 DUP5 DUP3 DUP6 PUSH3 0x2E5 JUMP JUMPDEST POP SWAP4 SWAP3 POP POP POP JUMP JUMPDEST PUSH1 0x0 DUP3 PUSH1 0x1F DUP4 ADD SLT PUSH3 0x357 JUMPI PUSH3 0x356 PUSH3 0x1DC JUMP JUMPDEST JUMPDEST DUP2 CALLDATALOAD PUSH3 0x369 DUP5 DUP3 PUSH1 0x20 DUP7 ADD PUSH3 0x2F4 JUMP JUMPDEST SWAP2 POP POP SWAP3 SWAP2 POP POP JUMP JUMPDEST PUSH1 0x0 PUSH3 0x389 PUSH3 0x383 DUP5 PUSH3 0x276 JUMP JUMPDEST PUSH3 0x257 JUMP JUMPDEST SWAP1 POP DUP1 DUP4 DUP3 MSTORE PUSH1 0x20 DUP3 ADD SWAP1 POP PUSH1 0x20 DUP5 MUL DUP4 ADD DUP6 DUP2 GT ISZERO PUSH3 0x3AF JUMPI PUSH3 0x3AE PUSH3 0x2A5 JUMP JUMPDEST JUMPDEST DUP4 JUMPDEST DUP2 DUP2 LT ISZERO PUSH3 0x3FD JUMPI DUP1 CALLDATALOAD PUSH8 0xFFFFFFFFFFFFFFFF DUP2 GT ISZERO PUSH3 0x3D8 JUMPI PUSH3 0x3D7 PUSH3 0x1DC JUMP JUMPDEST JUMPDEST DUP1 DUP7 ADD PUSH3 0x3E7 DUP10 DUP3 PUSH3 0x33F JUMP JUMPDEST DUP6 MSTORE PUSH1 0x20 DUP6 ADD SWAP5 POP POP POP PUSH1 0x20 DUP2 ADD SWAP1 POP PUSH3 0x3B1 JUMP JUMPDEST POP POP POP SWAP4 SWAP3 POP POP POP JUMP JUMPDEST PUSH1 0x0 DUP3 PUSH1 0x1F DUP4 ADD SLT PUSH3 0x41F JUMPI PUSH3 0x41E PUSH3 0x1DC JUMP JUMPDEST JUMPDEST DUP2 CALLDATALOAD PUSH3 0x431 DUP5 DUP3 PUSH1 0x20 DUP7 ADD PUSH3 0x372 JUMP JUMPDEST SWAP2 POP POP SWAP3 SWAP2 POP POP JUMP JUMPDEST PUSH1 0x0 DUP1 PUSH1 0x40 DUP4 DUP6 SUB SLT ISZERO PUSH3 0x454 JUMPI PUSH3 0x453 PUSH3 0x1D2 JUMP JUMPDEST JUMPDEST PUSH1 0x0 DUP4 ADD CALLDATALOAD PUSH8 0xFFFFFFFFFFFFFFFF DUP2 GT ISZERO PUSH3 0x475 JUMPI PUSH3 0x474 PUSH3 0x1D7 JUMP JUMPDEST JUMPDEST PUSH3 0x483 DUP6 DUP3 DUP7 ADD PUSH3 0x407 JUMP JUMPDEST SWAP3 POP POP PUSH1 0x20 DUP4 ADD CALLDATALOAD PUSH8 0xFFFFFFFFFFFFFFFF DUP2 GT ISZERO PUSH3 0x4A7 JUMPI PUSH3 0x4A6 PUSH3 0x1D7 JUMP JUMPDEST JUMPDEST PUSH3 0x4B5 DUP6 DUP3 DUP7 ADD PUSH3 0x33F JUMP JUMPDEST SWAP2 POP POP SWAP3 POP SWAP3 SWAP1 POP JUMP JUMPDEST PUSH1 0x0 DUP2 MLOAD SWAP1 POP SWAP2 SWAP1 POP JUMP JUMPDEST PUSH1 0x0 DUP3 DUP3 MSTORE PUSH1 0x20 DUP3 ADD SWAP1 POP SWAP3 SWAP2 POP POP JUMP JUMPDEST PUSH1 0x0 DUP2 SWAP1 POP PUSH1 0x20 DUP3 ADD SWAP1 POP SWAP2 SWAP1 POP JUMP JUMPDEST PUSH1 0x0 PUSH20 0xFFFFFFFFFFFFFFFFFFFFFFFFFFFFFFFFFFFFFFFF DUP3 AND SWAP1 POP SWAP2 SWAP1 POP JUMP JUMPDEST PUSH1 0x0 PUSH3 0x518 DUP3 PUSH3 0x4EB JUMP JUMPDEST SWAP1 POP SWAP2 SWAP1 POP JUMP JUMPDEST PUSH3 0x52A DUP2 PUSH3 0x50B JUMP JUMPDEST DUP3 MSTORE POP POP JUMP JUMPDEST PUSH1 0x0 PUSH3 0x53E DUP4 DUP4 PUSH3 0x51F JUMP JUMPDEST PUSH1 0x20 DUP4 ADD SWAP1 POP SWAP3 SWAP2 POP POP JUMP JUMPDEST PUSH1 0x0 PUSH1 0x20 DUP3 ADD SWAP1 POP SWAP2 SWAP1 POP JUMP JUMPDEST PUSH1 0x0 PUSH3 0x564 DUP3 PUSH3 0x4BF JUMP JUMPDEST PUSH3 0x570 DUP2 DUP6 PUSH3 0x4CA JUMP JUMPDEST SWAP4 POP PUSH3 0x57D DUP4 PUSH3 0x4DB JUMP JUMPDEST DUP1 PUSH1 0x0 JUMPDEST DUP4 DUP2 LT ISZERO PUSH3 0x5B4 JUMPI DUP2 MLOAD PUSH3 0x598 DUP9 DUP3 PUSH3 0x530 JUMP JUMPDEST SWAP8 POP PUSH3 0x5A5 DUP4 PUSH3 0x54A JUMP JUMPDEST SWAP3 POP POP PUSH1 0x1 DUP2 ADD SWAP1 POP PUSH3 0x581 JUMP JUMPDEST POP DUP6 SWAP4 POP POP POP POP SWAP3 SWAP2 POP POP JUMP JUMPDEST PUSH1 0x0 PUSH1 0x20 DUP3 ADD SWAP1 POP DUP2 DUP2 SUB PUSH1 0x0 DUP4 ADD MSTORE PUSH3 0x5DD DUP2 DUP5 PUSH3 0x557 JUMP JUMPDEST SWAP1 POP SWAP3 SWAP2 POP POP JUMP JUMPDEST PUSH3 0x5F0 DUP2 PUSH3 0x50B JUMP JUMPDEST DUP3 MSTORE POP POP JUMP JUMPDEST PUSH1 0x0 DUP2 MLOAD SWAP1 POP SWAP2 SWAP1 POP JUMP JUMPDEST PUSH1 0x0 DUP3 DUP3 MSTORE PUSH1 0x20 DUP3 ADD SWAP1 POP SWAP3 SWAP2 POP POP JUMP JUMPDEST PUSH1 0x0 DUP2 SWAP1 POP PUSH1 0x20 DUP3 ADD SWAP1 POP SWAP2 SWAP1 POP JUMP JUMPDEST PUSH1 0x0 DUP2 MLOAD SWAP1 POP SWAP2 SWAP1 POP JUMP JUMPDEST PUSH1 0x0 DUP3 DUP3 MSTORE PUSH1 0x20 DUP3 ADD SWAP1 POP SWAP3 SWAP2 POP POP JUMP JUMPDEST PUSH1 0x0 JUMPDEST DUP4 DUP2 LT ISZERO PUSH3 0x65E JUMPI DUP1 DUP3 ADD MLOAD DUP2 DUP5 ADD MSTORE PUSH1 0x20 DUP2 ADD SWAP1 POP PUSH3 0x641 JUMP JUMPDEST DUP4 DUP2 GT ISZERO PUSH3 0x66E JUMPI PUSH1 0x0 DUP5 DUP5 ADD MSTORE JUMPDEST POP POP POP POP JUMP JUMPDEST PUSH1 0x0 PUSH3 0x681 DUP3 PUSH3 0x622 JUMP JUMPDEST PUSH3 0x68D DUP2 DUP6 PUSH3 0x62D JUMP JUMPDEST SWAP4 POP PUSH3 0x69F DUP2 DUP6 PUSH1 0x20 DUP7 ADD PUSH3 0x63E JUMP JUMPDEST PUSH3 0x6AA DUP2 PUSH3 0x1E1 JUMP JUMPDEST DUP5 ADD SWAP2 POP POP SWAP3 SWAP2 POP POP JUMP JUMPDEST PUSH1 0x0 PUSH3 0x6C3 DUP4 DUP4 PUSH3 0x674 JUMP JUMPDEST SWAP1 POP SWAP3 SWAP2 POP POP JUMP JUMPDEST PUSH1 0x0 PUSH1 0x20 DUP3 ADD SWAP1 POP SWAP2 SWAP1 POP JUMP JUMPDEST PUSH1 0x0 PUSH3 0x6E5 DUP3 PUSH3 0x5F6 JUMP JUMPDEST PUSH3 0x6F1 DUP2 DUP6 PUSH3 0x601 JUMP JUMPDEST SWAP4 POP DUP4 PUSH1 0x20 DUP3 MUL DUP6 ADD PUSH3 0x705 DUP6 PUSH3 0x612 JUMP JUMPDEST DUP1 PUSH1 0x0 JUMPDEST DUP6 DUP2 LT ISZERO PUSH3 0x747 JUMPI DUP5 DUP5 SUB DUP10 MSTORE DUP2 MLOAD PUSH3 0x725 DUP6 DUP3 PUSH3 0x6B5 JUMP JUMPDEST SWAP5 POP PUSH3 0x732 DUP4 PUSH3 0x6CB JUMP JUMPDEST SWAP3 POP PUSH1 0x20 DUP11 ADD SWAP10 POP POP PUSH1 0x1 DUP2 ADD SWAP1 POP PUSH3 0x709 JUMP JUMPDEST POP DUP3 SWAP8 POP DUP8 SWAP6 POP POP POP POP POP POP SWAP3 SWAP2 POP POP JUMP JUMPDEST PUSH1 0x0 DUP3 DUP3 MSTORE PUSH1 0x20 DUP3 ADD SWAP1 POP SWAP3 SWAP2 POP POP JUMP JUMPDEST PUSH1 0x0 PUSH3 0x777 DUP3 PUSH3 0x622 JUMP JUMPDEST PUSH3 0x783 DUP2 DUP6 PUSH3 0x759 JUMP JUMPDEST SWAP4 POP PUSH3 0x795 DUP2 DUP6 PUSH1 0x20 DUP7 ADD PUSH3 0x63E JUMP JUMPDEST PUSH3 0x7A0 DUP2 PUSH3 0x1E1 JUMP JUMPDEST DUP5 ADD SWAP2 POP POP SWAP3 SWAP2 POP POP JUMP JUMPDEST PUSH1 0x0 PUSH1 0x60 DUP3 ADD SWAP1 POP PUSH3 0x7C2 PUSH1 0x0 DUP4 ADD DUP7 PUSH3 0x5E5 JUMP JUMPDEST DUP2 DUP2 SUB PUSH1 0x20 DUP4 ADD MSTORE PUSH3 0x7D6 DUP2 DUP6 PUSH3 0x6D8 JUMP JUMPDEST SWAP1 POP DUP2 DUP2 SUB PUSH1 0x40 DUP4 ADD MSTORE PUSH3 0x7EC DUP2 DUP5 PUSH3 0x76A JUMP JUMPDEST SWAP1 POP SWAP5 SWAP4 POP POP POP POP JUMP INVALID PUSH1 0x80 PUSH1 0x40 MSTORE CALLVALUE DUP1 ISZERO PUSH3 0x11 JUMPI PUSH1 0x0 DUP1 REVERT JUMPDEST POP PUSH1 0x40 MLOAD PUSH3 0x1EC2 CODESIZE SUB DUP1 PUSH3 0x1EC2 DUP4 CODECOPY DUP2 DUP2 ADD PUSH1 0x40 MSTORE DUP2 ADD SWAP1 PUSH3 0x37 SWAP2 SWAP1 PUSH3 0x594 JUMP JUMPDEST DUP3 PUSH1 0x0 DUP1 PUSH2 0x100 EXP DUP2 SLOAD DUP2 PUSH20 0xFFFFFFFFFFFFFFFFFFFFFFFFFFFFFFFFFFFFFFFF MUL NOT AND SWAP1 DUP4 PUSH20 0xFFFFFFFFFFFFFFFFFFFFFFFFFFFFFFFFFFFFFFFF AND MUL OR SWAP1 SSTORE POP DUP1 PUSH1 0x1 SWAP1 DUP1 MLOAD SWAP1 PUSH1 0x20 ADD SWAP1 PUSH3 0x8F SWAP3 SWAP2 SWAP1 PUSH3 0x1E6 JUMP JUMPDEST POP PUSH1 0x0 JUMPDEST DUP3 MLOAD DUP2 LT ISZERO PUSH3 0x1DC JUMPI PUSH1 0x40 MLOAD DUP1 PUSH1 0x80 ADD PUSH1 0x40 MSTORE DUP1 DUP5 DUP4 DUP2 MLOAD DUP2 LT PUSH3 0xBE JUMPI PUSH3 0xBD PUSH3 0x62E JUMP JUMPDEST JUMPDEST PUSH1 0x20 MUL PUSH1 0x20 ADD ADD MLOAD DUP2 MSTORE PUSH1 0x20 ADD PUSH1 0x1 DUP2 MSTORE PUSH1 0x20 ADD PUSH1 0x0 ISZERO ISZERO DUP2 MSTORE PUSH1 0x20 ADD PUSH1 0x0 PUSH20 0xFFFFFFFFFFFFFFFFFFFFFFFFFFFFFFFFFFFFFFFF AND DUP2 MSTORE POP PUSH1 0x2 DUP5 DUP4 DUP2 MLOAD DUP2 LT PUSH3 0x10E JUMPI PUSH3 0x10D PUSH3 0x62E JUMP JUMPDEST JUMPDEST PUSH1 0x20 MUL PUSH1 0x20 ADD ADD MLOAD PUSH1 0x40 MLOAD PUSH3 0x125 SWAP2 SWAP1 PUSH3 0x6AA JUMP JUMPDEST SWAP1 DUP2 MSTORE PUSH1 0x20 ADD PUSH1 0x40 MLOAD DUP1 SWAP2 SUB SWAP1 KECCAK256 PUSH1 0x0 DUP3 ADD MLOAD DUP2 PUSH1 0x0 ADD SWAP1 DUP1 MLOAD SWAP1 PUSH1 0x20 ADD SWAP1 PUSH3 0x151 SWAP3 SWAP2 SWAP1 PUSH3 0x1E6 JUMP JUMPDEST POP PUSH1 0x20 DUP3 ADD MLOAD DUP2 PUSH1 0x1 ADD SSTORE PUSH1 0x40 DUP3 ADD MLOAD DUP2 PUSH1 0x2 ADD PUSH1 0x0 PUSH2 0x100 EXP DUP2 SLOAD DUP2 PUSH1 0xFF MUL NOT AND SWAP1 DUP4 ISZERO ISZERO MUL OR SWAP1 SSTORE POP PUSH1 0x60 DUP3 ADD MLOAD DUP2 PUSH1 0x2 ADD PUSH1 0x1 PUSH2 0x100 EXP DUP2 SLOAD DUP2 PUSH20 0xFFFFFFFFFFFFFFFFFFFFFFFFFFFFFFFFFFFFFFFF MUL NOT AND SWAP1 DUP4 PUSH20 0xFFFFFFFFFFFFFFFFFFFFFFFFFFFFFFFFFFFFFFFF AND MUL OR SWAP1 SSTORE POP SWAP1 POP POP DUP1 DUP1 PUSH3 0x1D3 SWAP1 PUSH3 0x6FC JUMP JUMPDEST SWAP2 POP POP PUSH3 0x93 JUMP JUMPDEST POP POP POP POP PUSH3 0x7AF JUMP JUMPDEST DUP3 DUP1 SLOAD PUSH3 0x1F4 SWAP1 PUSH3 0x779 JUMP JUMPDEST SWAP1 PUSH1 0x0 MSTORE PUSH1 0x20 PUSH1 0x0 KECCAK256 SWAP1 PUSH1 0x1F ADD PUSH1 0x20 SWAP1 DIV DUP2 ADD SWAP3 DUP3 PUSH3 0x218 JUMPI PUSH1 0x0 DUP6 SSTORE PUSH3 0x264 JUMP JUMPDEST DUP3 PUSH1 0x1F LT PUSH3 0x233 JUMPI DUP1 MLOAD PUSH1 0xFF NOT AND DUP4 DUP1 ADD OR DUP6 SSTORE PUSH3 0x264 JUMP JUMPDEST DUP3 DUP1 ADD PUSH1 0x1 ADD DUP6 SSTORE DUP3 ISZERO PUSH3 0x264 JUMPI SWAP2 DUP3 ADD JUMPDEST DUP3 DUP2 GT ISZERO PUSH3 0x263 JUMPI DUP3 MLOAD DUP3 SSTORE SWAP2 PUSH1 0x20 ADD SWAP2 SWAP1 PUSH1 0x1 ADD SWAP1 PUSH3 0x246 JUMP JUMPDEST JUMPDEST POP SWAP1 POP PUSH3 0x273 SWAP2 SWAP1 PUSH3 0x277 JUMP JUMPDEST POP SWAP1 JUMP JUMPDEST JUMPDEST DUP1 DUP3 GT ISZERO PUSH3 0x292 JUMPI PUSH1 0x0 DUP2 PUSH1 0x0 SWAP1 SSTORE POP PUSH1 0x1 ADD PUSH3 0x278 JUMP JUMPDEST POP SWAP1 JUMP JUMPDEST PUSH1 0x0 PUSH1 0x40 MLOAD SWAP1 POP SWAP1 JUMP JUMPDEST PUSH1 0x0 DUP1 REVERT JUMPDEST PUSH1 0x0 DUP1 REVERT JUMPDEST PUSH1 0x0 PUSH20 0xFFFFFFFFFFFFFFFFFFFFFFFFFFFFFFFFFFFFFFFF DUP3 AND SWAP1 POP SWAP2 SWAP1 POP JUMP JUMPDEST PUSH1 0x0 PUSH3 0x2D7 DUP3 PUSH3 0x2AA JUMP JUMPDEST SWAP1 POP SWAP2 SWAP1 POP JUMP JUMPDEST PUSH3 0x2E9 DUP2 PUSH3 0x2CA JUMP JUMPDEST DUP2 EQ PUSH3 0x2F5 JUMPI PUSH1 0x0 DUP1 REVERT JUMPDEST POP JUMP JUMPDEST PUSH1 0x0 DUP2 MLOAD SWAP1 POP PUSH3 0x309 DUP2 PUSH3 0x2DE JUMP JUMPDEST SWAP3 SWAP2 POP POP JUMP JUMPDEST PUSH1 0x0 DUP1 REVERT JUMPDEST PUSH1 0x0 PUSH1 0x1F NOT PUSH1 0x1F DUP4 ADD AND SWAP1 POP SWAP2 SWAP1 POP JUMP JUMPDEST PUSH32 0x4E487B7100000000000000000000000000000000000000000000000000000000 PUSH1 0x0 MSTORE PUSH1 0x41 PUSH1 0x4 MSTORE PUSH1 0x24 PUSH1 0x0 REVERT JUMPDEST PUSH3 0x35F DUP3 PUSH3 0x314 JUMP JUMPDEST DUP2 ADD DUP2 DUP2 LT PUSH8 0xFFFFFFFFFFFFFFFF DUP3 GT OR ISZERO PUSH3 0x381 JUMPI PUSH3 0x380 PUSH3 0x325 JUMP JUMPDEST JUMPDEST DUP1 PUSH1 0x40 MSTORE POP POP POP JUMP JUMPDEST PUSH1 0x0 PUSH3 0x396 PUSH3 0x296 JUMP JUMPDEST SWAP1 POP PUSH3 0x3A4 DUP3 DUP3 PUSH3 0x354 JUMP JUMPDEST SWAP2 SWAP1 POP JUMP JUMPDEST PUSH1 0x0 PUSH8 0xFFFFFFFFFFFFFFFF DUP3 GT ISZERO PUSH3 0x3C7 JUMPI PUSH3 0x3C6 PUSH3 0x325 JUMP JUMPDEST JUMPDEST PUSH1 0x20 DUP3 MUL SWAP1 POP PUSH1 0x20 DUP2 ADD SWAP1 POP SWAP2 SWAP1 POP JUMP JUMPDEST PUSH1 0x0 DUP1 REVERT JUMPDEST PUSH1 0x0 DUP1 REVERT JUMPDEST PUSH1 0x0 PUSH8 0xFFFFFFFFFFFFFFFF DUP3 GT ISZERO PUSH3 0x400 JUMPI PUSH3 0x3FF PUSH3 0x325 JUMP JUMPDEST JUMPDEST PUSH3 0x40B DUP3 PUSH3 0x314 JUMP JUMPDEST SWAP1 POP PUSH1 0x20 DUP2 ADD SWAP1 POP SWAP2 SWAP1 POP JUMP JUMPDEST PUSH1 0x0 JUMPDEST DUP4 DUP2 LT ISZERO PUSH3 0x438 JUMPI DUP1 DUP3 ADD MLOAD DUP2 DUP5 ADD MSTORE PUSH1 0x20 DUP2 ADD SWAP1 POP PUSH3 0x41B JUMP JUMPDEST DUP4 DUP2 GT ISZERO PUSH3 0x448 JUMPI PUSH1 0x0 DUP5 DUP5 ADD MSTORE JUMPDEST POP POP POP POP JUMP JUMPDEST PUSH1 0x0 PUSH3 0x465 PUSH3 0x45F DUP5 PUSH3 0x3E2 JUMP JUMPDEST PUSH3 0x38A JUMP JUMPDEST SWAP1 POP DUP3 DUP2 MSTORE PUSH1 0x20 DUP2 ADD DUP5 DUP5 DUP5 ADD GT ISZERO PUSH3 0x484 JUMPI PUSH3 0x483 PUSH3 0x3DD JUMP JUMPDEST JUMPDEST PUSH3 0x491 DUP5 DUP3 DUP6 PUSH3 0x418 JUMP JUMPDEST POP SWAP4 SWAP3 POP POP POP JUMP JUMPDEST PUSH1 0x0 DUP3 PUSH1 0x1F DUP4 ADD SLT PUSH3 0x4B1 JUMPI PUSH3 0x4B0 PUSH3 0x30F JUMP JUMPDEST JUMPDEST DUP2 MLOAD PUSH3 0x4C3 DUP5 DUP3 PUSH1 0x20 DUP7 ADD PUSH3 0x44E JUMP JUMPDEST SWAP2 POP POP SWAP3 SWAP2 POP POP JUMP JUMPDEST PUSH1 0x0 PUSH3 0x4E3 PUSH3 0x4DD DUP5 PUSH3 0x3A9 JUMP JUMPDEST PUSH3 0x38A JUMP JUMPDEST SWAP1 POP DUP1 DUP4 DUP3 MSTORE PUSH1 0x20 DUP3 ADD SWAP1 POP PUSH1 0x20 DUP5 MUL DUP4 ADD DUP6 DUP2 GT ISZERO PUSH3 0x509 JUMPI PUSH3 0x508 PUSH3 0x3D8 JUMP JUMPDEST JUMPDEST DUP4 JUMPDEST DUP2 DUP2 LT ISZERO PUSH3 0x557 JUMPI DUP1 MLOAD PUSH8 0xFFFFFFFFFFFFFFFF DUP2 GT ISZERO PUSH3 0x532 JUMPI PUSH3 0x531 PUSH3 0x30F JUMP JUMPDEST JUMPDEST DUP1 DUP7 ADD PUSH3 0x541 DUP10 DUP3 PUSH3 0x499 JUMP JUMPDEST DUP6 MSTORE PUSH1 0x20 DUP6 ADD SWAP5 POP POP POP PUSH1 0x20 DUP2 ADD SWAP1 POP PUSH3 0x50B JUMP JUMPDEST POP POP POP SWAP4 SWAP3 POP POP POP JUMP JUMPDEST PUSH1 0x0 DUP3 PUSH1 0x1F DUP4 ADD SLT PUSH3 0x579 JUMPI PUSH3 0x578 PUSH3 0x30F JUMP JUMPDEST JUMPDEST DUP2 MLOAD PUSH3 0x58B DUP5 DUP3 PUSH1 0x20 DUP7 ADD PUSH3 0x4CC JUMP JUMPDEST SWAP2 POP POP SWAP3 SWAP2 POP POP JUMP JUMPDEST PUSH1 0x0 DUP1 PUSH1 0x0 PUSH1 0x60 DUP5 DUP7 SUB SLT ISZERO PUSH3 0x5B0 JUMPI PUSH3 0x5AF PUSH3 0x2A0 JUMP JUMPDEST JUMPDEST PUSH1 0x0 PUSH3 0x5C0 DUP7 DUP3 DUP8 ADD PUSH3 0x2F8 JUMP JUMPDEST SWAP4 POP POP PUSH1 0x20 DUP5 ADD MLOAD PUSH8 0xFFFFFFFFFFFFFFFF DUP2 GT ISZERO PUSH3 0x5E4 JUMPI PUSH3 0x5E3 PUSH3 0x2A5 JUMP JUMPDEST JUMPDEST PUSH3 0x5F2 DUP7 DUP3 DUP8 ADD PUSH3 0x561 JUMP JUMPDEST SWAP3 POP POP PUSH1 0x40 DUP5 ADD MLOAD PUSH8 0xFFFFFFFFFFFFFFFF DUP2 GT ISZERO PUSH3 0x616 JUMPI PUSH3 0x615 PUSH3 0x2A5 JUMP JUMPDEST JUMPDEST PUSH3 0x624 DUP7 DUP3 DUP8 ADD PUSH3 0x499 JUMP JUMPDEST SWAP2 POP POP SWAP3 POP SWAP3 POP SWAP3 JUMP JUMPDEST PUSH32 0x4E487B7100000000000000000000000000000000000000000000000000000000 PUSH1 0x0 MSTORE PUSH1 0x32 PUSH1 0x4 MSTORE PUSH1 0x24 PUSH1 0x0 REVERT JUMPDEST PUSH1 0x0 DUP2 MLOAD SWAP1 POP SWAP2 SWAP1 POP JUMP JUMPDEST PUSH1 0x0 DUP2 SWAP1 POP SWAP3 SWAP2 POP POP JUMP JUMPDEST PUSH1 0x0 PUSH3 0x680 DUP3 PUSH3 0x65D JUMP JUMPDEST PUSH3 0x68C DUP2 DUP6 PUSH3 0x668 JUMP JUMPDEST SWAP4 POP PUSH3 0x69E DUP2 DUP6 PUSH1 0x20 DUP7 ADD PUSH3 0x418 JUMP JUMPDEST DUP1 DUP5 ADD SWAP2 POP POP SWAP3 SWAP2 POP POP JUMP JUMPDEST PUSH1 0x0 PUSH3 0x6B8 DUP3 DUP5 PUSH3 0x673 JUMP JUMPDEST SWAP2 POP DUP2 SWAP1 POP SWAP3 SWAP2 POP POP JUMP JUMPDEST PUSH32 0x4E487B7100000000000000000000000000000000000000000000000000000000 PUSH1 0x0 MSTORE PUSH1 0x11 PUSH1 0x4 MSTORE PUSH1 0x24 PUSH1 0x0 REVERT JUMPDEST PUSH1 0x0 DUP2 SWAP1 POP SWAP2 SWAP1 POP JUMP JUMPDEST PUSH1 0x0 PUSH3 0x709 DUP3 PUSH3 0x6F2 JUMP JUMPDEST SWAP2 POP PUSH32 0xFFFFFFFFFFFFFFFFFFFFFFFFFFFFFFFFFFFFFFFFFFFFFFFFFFFFFFFFFFFFFFFF DUP3 EQ ISZERO PUSH3 0x73F JUMPI PUSH3 0x73E PUSH3 0x6C3 JUMP JUMPDEST JUMPDEST PUSH1 0x1 DUP3 ADD SWAP1 POP SWAP2 SWAP1 POP JUMP JUMPDEST PUSH32 0x4E487B7100000000000000000000000000000000000000000000000000000000 PUSH1 0x0 MSTORE PUSH1 0x22 PUSH1 0x4 MSTORE PUSH1 0x24 PUSH1 0x0 REVERT JUMPDEST PUSH1 0x0 PUSH1 0x2 DUP3 DIV SWAP1 POP PUSH1 0x1 DUP3 AND DUP1 PUSH3 0x792 JUMPI PUSH1 0x7F DUP3 AND SWAP2 POP JUMPDEST PUSH1 0x20 DUP3 LT DUP2 EQ ISZERO PUSH3 0x7A9 JUMPI PUSH3 0x7A8 PUSH3 0x74A JUMP JUMPDEST JUMPDEST POP SWAP2 SWAP1 POP JUMP JUMPDEST PUSH2 0x1703 DUP1 PUSH3 0x7BF PUSH1 0x0 CODECOPY PUSH1 0x0 RETURN INVALID PUSH1 0x80 PUSH1 0x40 MSTORE CALLVALUE DUP1 ISZERO PUSH2 0x10 JUMPI PUSH1 0x0 DUP1 REVERT JUMPDEST POP PUSH1 0x4 CALLDATASIZE LT PUSH2 0x88 JUMPI PUSH1 0x0 CALLDATALOAD PUSH1 0xE0 SHR DUP1 PUSH4 0x5D495AEA GT PUSH2 0x5B JUMPI DUP1 PUSH4 0x5D495AEA EQ PUSH2 0x131 JUMPI DUP1 PUSH4 0x8DA5CB5B EQ PUSH2 0x14F JUMPI DUP1 PUSH4 0xA6385803 EQ PUSH2 0x16D JUMPI DUP1 PUSH4 0xCAD98E2B EQ PUSH2 0x189 JUMPI PUSH2 0x88 JUMP JUMPDEST DUP1 PUSH4 0x3477EE2E EQ PUSH2 0x8D JUMPI DUP1 PUSH4 0x4A79D50C EQ PUSH2 0xC0 JUMPI DUP1 PUSH4 0x53FA2E64 EQ PUSH2 0xDE JUMPI DUP1 PUSH4 0x565974D3 EQ PUSH2 0x111 JUMPI JUMPDEST PUSH1 0x0 DUP1 REVERT JUMPDEST PUSH2 0xA7 PUSH1 0x4 DUP1 CALLDATASIZE SUB DUP2 ADD SWAP1 PUSH2 0xA2 SWAP2 SWAP1 PUSH2 0xD3E JUMP JUMPDEST PUSH2 0x1A5 JUMP JUMPDEST PUSH1 0x40 MLOAD PUSH2 0xB7 SWAP5 SWAP4 SWAP3 SWAP2 SWAP1 PUSH2 0xE54 JUMP JUMPDEST PUSH1 0x40 MLOAD DUP1 SWAP2 SUB SWAP1 RETURN JUMPDEST PUSH2 0xC8 PUSH2 0x315 JUMP JUMPDEST PUSH1 0x40 MLOAD PUSH2 0xD5 SWAP2 SWAP1 PUSH2 0xEA7 JUMP JUMPDEST PUSH1 0x40 MLOAD DUP1 SWAP2 SUB SWAP1 RETURN JUMPDEST PUSH2 0xF8 PUSH1 0x4 DUP1 CALLDATASIZE SUB DUP2 ADD SWAP1 PUSH2 0xF3 SWAP2 SWAP1 PUSH2 0xFFE JUMP JUMPDEST PUSH2 0x3A3 JUMP JUMPDEST PUSH1 0x40 MLOAD PUSH2 0x108 SWAP5 SWAP4 SWAP3 SWAP2 SWAP1 PUSH2 0x1062 JUMP JUMPDEST PUSH1 0x40 MLOAD DUP1 SWAP2 SUB SWAP1 RETURN JUMPDEST PUSH2 0x119 PUSH2 0x49E JUMP JUMPDEST PUSH1 0x40 MLOAD PUSH2 0x128 SWAP4 SWAP3 SWAP2 SWAP1 PUSH2 0x1242 JUMP JUMPDEST PUSH1 0x40 MLOAD DUP1 SWAP2 SUB SWAP1 RETURN JUMPDEST PUSH2 0x139 PUSH2 0x73C JUMP JUMPDEST PUSH1 0x40 MLOAD PUSH2 0x146 SWAP2 SWAP1 PUSH2 0xEA7 JUMP JUMPDEST PUSH1 0x40 MLOAD DUP1 SWAP2 SUB SWAP1 RETURN JUMPDEST PUSH2 0x157 PUSH2 0x901 JUMP JUMPDEST PUSH1 0x40 MLOAD PUSH2 0x164 SWAP2 SWAP1 PUSH2 0x1287 JUMP JUMPDEST PUSH1 0x40 MLOAD DUP1 SWAP2 SUB SWAP1 RETURN JUMPDEST PUSH2 0x187 PUSH1 0x4 DUP1 CALLDATASIZE SUB DUP2 ADD SWAP1 PUSH2 0x182 SWAP2 SWAP1 PUSH2 0x12A2 JUMP JUMPDEST PUSH2 0x925 JUMP JUMPDEST STOP JUMPDEST PUSH2 0x1A3 PUSH1 0x4 DUP1 CALLDATASIZE SUB DUP2 ADD SWAP1 PUSH2 0x19E SWAP2 SWAP1 PUSH2 0x12FE JUMP JUMPDEST PUSH2 0xB5D JUMP JUMPDEST STOP JUMPDEST PUSH1 0x3 DUP2 DUP2 SLOAD DUP2 LT PUSH2 0x1B5 JUMPI PUSH1 0x0 DUP1 REVERT JUMPDEST SWAP1 PUSH1 0x0 MSTORE PUSH1 0x20 PUSH1 0x0 KECCAK256 SWAP1 PUSH1 0x4 MUL ADD PUSH1 0x0 SWAP2 POP SWAP1 POP DUP1 PUSH1 0x0 ADD PUSH1 0x0 SWAP1 SLOAD SWAP1 PUSH2 0x100 EXP SWAP1 DIV PUSH20 0xFFFFFFFFFFFFFFFFFFFFFFFFFFFFFFFFFFFFFFFF AND SWAP1 DUP1 PUSH1 0x1 ADD DUP1 SLOAD PUSH2 0x1FE SWAP1 PUSH2 0x13A5 JUMP JUMPDEST DUP1 PUSH1 0x1F ADD PUSH1 0x20 DUP1 SWAP2 DIV MUL PUSH1 0x20 ADD PUSH1 0x40 MLOAD SWAP1 DUP2 ADD PUSH1 0x40 MSTORE DUP1 SWAP3 SWAP2 SWAP1 DUP2 DUP2 MSTORE PUSH1 0x20 ADD DUP3 DUP1 SLOAD PUSH2 0x22A SWAP1 PUSH2 0x13A5 JUMP JUMPDEST DUP1 ISZERO PUSH2 0x277 JUMPI DUP1 PUSH1 0x1F LT PUSH2 0x24C JUMPI PUSH2 0x100 DUP1 DUP4 SLOAD DIV MUL DUP4 MSTORE SWAP2 PUSH1 0x20 ADD SWAP2 PUSH2 0x277 JUMP JUMPDEST DUP3 ADD SWAP2 SWAP1 PUSH1 0x0 MSTORE PUSH1 0x20 PUSH1 0x0 KECCAK256 SWAP1 JUMPDEST DUP2 SLOAD DUP2 MSTORE SWAP1 PUSH1 0x1 ADD SWAP1 PUSH1 0x20 ADD DUP1 DUP4 GT PUSH2 0x25A JUMPI DUP3 SWAP1 SUB PUSH1 0x1F AND DUP3 ADD SWAP2 JUMPDEST POP POP POP POP POP SWAP1 DUP1 PUSH1 0x2 ADD DUP1 SLOAD PUSH2 0x28C SWAP1 PUSH2 0x13A5 JUMP JUMPDEST DUP1 PUSH1 0x1F ADD PUSH1 0x20 DUP1 SWAP2 DIV MUL PUSH1 0x20 ADD PUSH1 0x40 MLOAD SWAP1 DUP2 ADD PUSH1 0x40 MSTORE DUP1 SWAP3 SWAP2 SWAP1 DUP2 DUP2 MSTORE PUSH1 0x20 ADD DUP3 DUP1 SLOAD PUSH2 0x2B8 SWAP1 PUSH2 0x13A5 JUMP JUMPDEST DUP1 ISZERO PUSH2 0x305 JUMPI DUP1 PUSH1 0x1F LT PUSH2 0x2DA JUMPI PUSH2 0x100 DUP1 DUP4 SLOAD DIV MUL DUP4 MSTORE SWAP2 PUSH1 0x20 ADD SWAP2 PUSH2 0x305 JUMP JUMPDEST DUP3 ADD SWAP2 SWAP1 PUSH1 0x0 MSTORE PUSH1 0x20 PUSH1 0x0 KECCAK256 SWAP1 JUMPDEST DUP2 SLOAD DUP2 MSTORE SWAP1 PUSH1 0x1 ADD SWAP1 PUSH1 0x20 ADD DUP1 DUP4 GT PUSH2 0x2E8 JUMPI DUP3 SWAP1 SUB PUSH1 0x1F AND DUP3 ADD SWAP2 JUMPDEST POP POP POP POP POP SWAP1 DUP1 PUSH1 0x3 ADD SLOAD SWAP1 POP DUP5 JUMP JUMPDEST PUSH1 0x1 DUP1 SLOAD PUSH2 0x322 SWAP1 PUSH2 0x13A5 JUMP JUMPDEST DUP1 PUSH1 0x1F ADD PUSH1 0x20 DUP1 SWAP2 DIV MUL PUSH1 0x20 ADD PUSH1 0x40 MLOAD SWAP1 DUP2 ADD PUSH1 0x40 MSTORE DUP1 SWAP3 SWAP2 SWAP1 DUP2 DUP2 MSTORE PUSH1 0x20 ADD DUP3 DUP1 SLOAD PUSH2 0x34E SWAP1 PUSH2 0x13A5 JUMP JUMPDEST DUP1 ISZERO PUSH2 0x39B JUMPI DUP1 PUSH1 0x1F LT PUSH2 0x370 JUMPI PUSH2 0x100 DUP1 DUP4 SLOAD DIV MUL DUP4 MSTORE SWAP2 PUSH1 0x20 ADD SWAP2 PUSH2 0x39B JUMP JUMPDEST DUP3 ADD SWAP2 SWAP1 PUSH1 0x0 MSTORE PUSH1 0x20 PUSH1 0x0 KECCAK256 SWAP1 JUMPDEST DUP2 SLOAD DUP2 MSTORE SWAP1 PUSH1 0x1 ADD SWAP1 PUSH1 0x20 ADD DUP1 DUP4 GT PUSH2 0x37E JUMPI DUP3 SWAP1 SUB PUSH1 0x1F AND DUP3 ADD SWAP2 JUMPDEST POP POP POP POP POP DUP2 JUMP JUMPDEST PUSH1 0x2 DUP2 DUP1 MLOAD PUSH1 0x20 DUP2 ADD DUP3 ADD DUP1 MLOAD DUP5 DUP3 MSTORE PUSH1 0x20 DUP4 ADD PUSH1 0x20 DUP6 ADD KECCAK256 DUP2 DUP4 MSTORE DUP1 SWAP6 POP POP POP POP POP POP PUSH1 0x0 SWAP2 POP SWAP1 POP DUP1 PUSH1 0x0 ADD DUP1 SLOAD PUSH2 0x3DC SWAP1 PUSH2 0x13A5 JUMP JUMPDEST DUP1 PUSH1 0x1F ADD PUSH1 0x20 DUP1 SWAP2 DIV MUL PUSH1 0x20 ADD PUSH1 0x40 MLOAD SWAP1 DUP2 ADD PUSH1 0x40 MSTORE DUP1 SWAP3 SWAP2 SWAP1 DUP2 DUP2 MSTORE PUSH1 0x20 ADD DUP3 DUP1 SLOAD PUSH2 0x408 SWAP1 PUSH2 0x13A5 JUMP JUMPDEST DUP1 ISZERO PUSH2 0x455 JUMPI DUP1 PUSH1 0x1F LT PUSH2 0x42A JUMPI PUSH2 0x100 DUP1 DUP4 SLOAD DIV MUL DUP4 MSTORE SWAP2 PUSH1 0x20 ADD SWAP2 PUSH2 0x455 JUMP JUMPDEST DUP3 ADD SWAP2 SWAP1 PUSH1 0x0 MSTORE PUSH1 0x20 PUSH1 0x0 KECCAK256 SWAP1 JUMPDEST DUP2 SLOAD DUP2 MSTORE SWAP1 PUSH1 0x1 ADD SWAP1 PUSH1 0x20 ADD DUP1 DUP4 GT PUSH2 0x438 JUMPI DUP3 SWAP1 SUB PUSH1 0x1F AND DUP3 ADD SWAP2 JUMPDEST POP POP POP POP POP SWAP1 DUP1 PUSH1 0x1 ADD SLOAD SWAP1 DUP1 PUSH1 0x2 ADD PUSH1 0x0 SWAP1 SLOAD SWAP1 PUSH2 0x100 EXP SWAP1 DIV PUSH1 0xFF AND SWAP1 DUP1 PUSH1 0x2 ADD PUSH1 0x1 SWAP1 SLOAD SWAP1 PUSH2 0x100 EXP SWAP1 DIV PUSH20 0xFFFFFFFFFFFFFFFFFFFFFFFFFFFFFFFFFFFFFFFF AND SWAP1 POP DUP5 JUMP JUMPDEST PUSH1 0x0 PUSH1 0x60 DUP1 PUSH1 0x0 DUP1 SLOAD SWAP1 PUSH2 0x100 EXP SWAP1 DIV PUSH20 0xFFFFFFFFFFFFFFFFFFFFFFFFFFFFFFFFFFFFFFFF AND PUSH1 0x1 PUSH1 0x3 DUP2 DUP1 SLOAD PUSH2 0x4D4 SWAP1 PUSH2 0x13A5 JUMP JUMPDEST DUP1 PUSH1 0x1F ADD PUSH1 0x20 DUP1 SWAP2 DIV MUL PUSH1 0x20 ADD PUSH1 0x40 MLOAD SWAP1 DUP2 ADD PUSH1 0x40 MSTORE DUP1 SWAP3 SWAP2 SWAP1 DUP2 DUP2 MSTORE PUSH1 0x20 ADD DUP3 DUP1 SLOAD PUSH2 0x500 SWAP1 PUSH2 0x13A5 JUMP JUMPDEST DUP1 ISZERO PUSH2 0x54D JUMPI DUP1 PUSH1 0x1F LT PUSH2 0x522 JUMPI PUSH2 0x100 DUP1 DUP4 SLOAD DIV MUL DUP4 MSTORE SWAP2 PUSH1 0x20 ADD SWAP2 PUSH2 0x54D JUMP JUMPDEST DUP3 ADD SWAP2 SWAP1 PUSH1 0x0 MSTORE PUSH1 0x20 PUSH1 0x0 KECCAK256 SWAP1 JUMPDEST DUP2 SLOAD DUP2 MSTORE SWAP1 PUSH1 0x1 ADD SWAP1 PUSH1 0x20 ADD DUP1 DUP4 GT PUSH2 0x530 JUMPI DUP3 SWAP1 SUB PUSH1 0x1F AND DUP3 ADD SWAP2 JUMPDEST POP POP POP POP POP SWAP2 POP DUP1 DUP1 SLOAD DUP1 PUSH1 0x20 MUL PUSH1 0x20 ADD PUSH1 0x40 MLOAD SWAP1 DUP2 ADD PUSH1 0x40 MSTORE DUP1 SWAP3 SWAP2 SWAP1 DUP2 DUP2 MSTORE PUSH1 0x20 ADD PUSH1 0x0 SWAP1 JUMPDEST DUP3 DUP3 LT ISZERO PUSH2 0x72B JUMPI DUP4 DUP3 SWAP1 PUSH1 0x0 MSTORE PUSH1 0x20 PUSH1 0x0 KECCAK256 SWAP1 PUSH1 0x4 MUL ADD PUSH1 0x40 MLOAD DUP1 PUSH1 0x80 ADD PUSH1 0x40 MSTORE SWAP1 DUP2 PUSH1 0x0 DUP3 ADD PUSH1 0x0 SWAP1 SLOAD SWAP1 PUSH2 0x100 EXP SWAP1 DIV PUSH20 0xFFFFFFFFFFFFFFFFFFFFFFFFFFFFFFFFFFFFFFFF AND PUSH20 0xFFFFFFFFFFFFFFFFFFFFFFFFFFFFFFFFFFFFFFFF AND PUSH20 0xFFFFFFFFFFFFFFFFFFFFFFFFFFFFFFFFFFFFFFFF AND DUP2 MSTORE PUSH1 0x20 ADD PUSH1 0x1 DUP3 ADD DUP1 SLOAD PUSH2 0x5FE SWAP1 PUSH2 0x13A5 JUMP JUMPDEST DUP1 PUSH1 0x1F ADD PUSH1 0x20 DUP1 SWAP2 DIV MUL PUSH1 0x20 ADD PUSH1 0x40 MLOAD SWAP1 DUP2 ADD PUSH1 0x40 MSTORE DUP1 SWAP3 SWAP2 SWAP1 DUP2 DUP2 MSTORE PUSH1 0x20 ADD DUP3 DUP1 SLOAD PUSH2 0x62A SWAP1 PUSH2 0x13A5 JUMP JUMPDEST DUP1 ISZERO PUSH2 0x677 JUMPI DUP1 PUSH1 0x1F LT PUSH2 0x64C JUMPI PUSH2 0x100 DUP1 DUP4 SLOAD DIV MUL DUP4 MSTORE SWAP2 PUSH1 0x20 ADD SWAP2 PUSH2 0x677 JUMP JUMPDEST DUP3 ADD SWAP2 SWAP1 PUSH1 0x0 MSTORE PUSH1 0x20 PUSH1 0x0 KECCAK256 SWAP1 JUMPDEST DUP2 SLOAD DUP2 MSTORE SWAP1 PUSH1 0x1 ADD SWAP1 PUSH1 0x20 ADD DUP1 DUP4 GT PUSH2 0x65A JUMPI DUP3 SWAP1 SUB PUSH1 0x1F AND DUP3 ADD SWAP2 JUMPDEST POP POP POP POP POP DUP2 MSTORE PUSH1 0x20 ADD PUSH1 0x2 DUP3 ADD DUP1 SLOAD PUSH2 0x690 SWAP1 PUSH2 0x13A5 JUMP JUMPDEST DUP1 PUSH1 0x1F ADD PUSH1 0x20 DUP1 SWAP2 DIV MUL PUSH1 0x20 ADD PUSH1 0x40 MLOAD SWAP1 DUP2 ADD PUSH1 0x40 MSTORE DUP1 SWAP3 SWAP2 SWAP1 DUP2 DUP2 MSTORE PUSH1 0x20 ADD DUP3 DUP1 SLOAD PUSH2 0x6BC SWAP1 PUSH2 0x13A5 JUMP JUMPDEST DUP1 ISZERO PUSH2 0x709 JUMPI DUP1 PUSH1 0x1F LT PUSH2 0x6DE JUMPI PUSH2 0x100 DUP1 DUP4 SLOAD DIV MUL DUP4 MSTORE SWAP2 PUSH1 0x20 ADD SWAP2 PUSH2 0x709 JUMP JUMPDEST DUP3 ADD SWAP2 SWAP1 PUSH1 0x0 MSTORE PUSH1 0x20 PUSH1 0x0 KECCAK256 SWAP1 JUMPDEST DUP2 SLOAD DUP2 MSTORE SWAP1 PUSH1 0x1 ADD SWAP1 PUSH1 0x20 ADD DUP1 DUP4 GT PUSH2 0x6EC JUMPI DUP3 SWAP1 SUB PUSH1 0x1F AND DUP3 ADD SWAP2 JUMPDEST POP POP POP POP POP DUP2 MSTORE PUSH1 0x20 ADD PUSH1 0x3 DUP3 ADD SLOAD DUP2 MSTORE POP POP DUP2 MSTORE PUSH1 0x20 ADD SWAP1 PUSH1 0x1 ADD SWAP1 PUSH2 0x575 JUMP JUMPDEST POP POP POP POP SWAP1 POP SWAP3 POP SWAP3 POP SWAP3 POP SWAP1 SWAP2 SWAP3 JUMP JUMPDEST PUSH1 0x60 PUSH1 0x0 DUP1 SLOAD SWAP1 PUSH2 0x100 EXP SWAP1 DIV PUSH20 0xFFFFFFFFFFFFFFFFFFFFFFFFFFFFFFFFFFFFFFFF AND PUSH20 0xFFFFFFFFFFFFFFFFFFFFFFFFFFFFFFFFFFFFFFFF AND CALLER PUSH20 0xFFFFFFFFFFFFFFFFFFFFFFFFFFFFFFFFFFFFFFFF AND EQ PUSH2 0x7CC JUMPI PUSH1 0x40 MLOAD PUSH32 0x8C379A000000000000000000000000000000000000000000000000000000000 DUP2 MSTORE PUSH1 0x4 ADD PUSH2 0x7C3 SWAP1 PUSH2 0x1449 JUMP JUMPDEST PUSH1 0x40 MLOAD DUP1 SWAP2 SUB SWAP1 REVERT JUMPDEST PUSH1 0x60 PUSH1 0x0 DUP1 JUMPDEST PUSH1 0x3 DUP1 SLOAD SWAP1 POP DUP2 LT ISZERO PUSH2 0x8F8 JUMPI DUP2 PUSH1 0x3 DUP3 DUP2 SLOAD DUP2 LT PUSH2 0x7F4 JUMPI PUSH2 0x7F3 PUSH2 0x1469 JUMP JUMPDEST JUMPDEST SWAP1 PUSH1 0x0 MSTORE PUSH1 0x20 PUSH1 0x0 KECCAK256 SWAP1 PUSH1 0x4 MUL ADD PUSH1 0x3 ADD SLOAD GT ISZERO PUSH2 0x8E5 JUMPI PUSH1 0x3 DUP2 DUP2 SLOAD DUP2 LT PUSH2 0x820 JUMPI PUSH2 0x81F PUSH2 0x1469 JUMP JUMPDEST JUMPDEST SWAP1 PUSH1 0x0 MSTORE PUSH1 0x20 PUSH1 0x0 KECCAK256 SWAP1 PUSH1 0x4 MUL ADD PUSH1 0x1 ADD DUP1 SLOAD PUSH2 0x83C SWAP1 PUSH2 0x13A5 JUMP JUMPDEST DUP1 PUSH1 0x1F ADD PUSH1 0x20 DUP1 SWAP2 DIV MUL PUSH1 0x20 ADD PUSH1 0x40 MLOAD SWAP1 DUP2 ADD PUSH1 0x40 MSTORE DUP1 SWAP3 SWAP2 SWAP1 DUP2 DUP2 MSTORE PUSH1 0x20 ADD DUP3 DUP1 SLOAD PUSH2 0x868 SWAP1 PUSH2 0x13A5 JUMP JUMPDEST DUP1 ISZERO PUSH2 0x8B5 JUMPI DUP1 PUSH1 0x1F LT PUSH2 0x88A JUMPI PUSH2 0x100 DUP1 DUP4 SLOAD DIV MUL DUP4 MSTORE SWAP2 PUSH1 0x20 ADD SWAP2 PUSH2 0x8B5 JUMP JUMPDEST DUP3 ADD SWAP2 SWAP1 PUSH1 0x0 MSTORE PUSH1 0x20 PUSH1 0x0 KECCAK256 SWAP1 JUMPDEST DUP2 SLOAD DUP2 MSTORE SWAP1 PUSH1 0x1 ADD SWAP1 PUSH1 0x20 ADD DUP1 DUP4 GT PUSH2 0x898 JUMPI DUP3 SWAP1 SUB PUSH1 0x1F AND DUP3 ADD SWAP2 JUMPDEST POP POP POP POP POP SWAP3 POP PUSH1 0x3 DUP2 DUP2 SLOAD DUP2 LT PUSH2 0x8D0 JUMPI PUSH2 0x8CF PUSH2 0x1469 JUMP JUMPDEST JUMPDEST SWAP1 PUSH1 0x0 MSTORE PUSH1 0x20 PUSH1 0x0 KECCAK256 SWAP1 PUSH1 0x4 MUL ADD PUSH1 0x3 ADD SLOAD SWAP2 POP JUMPDEST DUP1 DUP1 PUSH2 0x8F0 SWAP1 PUSH2 0x14C7 JUMP JUMPDEST SWAP2 POP POP PUSH2 0x7D2 JUMP JUMPDEST POP DUP2 SWAP3 POP POP POP SWAP1 JUMP JUMPDEST PUSH1 0x0 DUP1 SLOAD SWAP1 PUSH2 0x100 EXP SWAP1 DIV PUSH20 0xFFFFFFFFFFFFFFFFFFFFFFFFFFFFFFFFFFFFFFFF AND DUP2 JUMP JUMPDEST PUSH1 0x1 PUSH1 0x2 DUP4 PUSH1 0x40 MLOAD PUSH2 0x937 SWAP2 SWAP1 PUSH2 0x154C JUMP JUMPDEST SWAP1 DUP2 MSTORE PUSH1 0x20 ADD PUSH1 0x40 MLOAD DUP1 SWAP2 SUB SWAP1 KECCAK256 PUSH1 0x1 ADD SLOAD EQ PUSH2 0x989 JUMPI PUSH1 0x40 MLOAD PUSH32 0x8C379A000000000000000000000000000000000000000000000000000000000 DUP2 MSTORE PUSH1 0x4 ADD PUSH2 0x980 SWAP1 PUSH2 0x15D5 JUMP JUMPDEST PUSH1 0x40 MLOAD DUP1 SWAP2 SUB SWAP1 REVERT JUMPDEST PUSH1 0x2 DUP3 PUSH1 0x40 MLOAD PUSH2 0x999 SWAP2 SWAP1 PUSH2 0x154C JUMP JUMPDEST SWAP1 DUP2 MSTORE PUSH1 0x20 ADD PUSH1 0x40 MLOAD DUP1 SWAP2 SUB SWAP1 KECCAK256 PUSH1 0x2 ADD PUSH1 0x0 SWAP1 SLOAD SWAP1 PUSH2 0x100 EXP SWAP1 DIV PUSH1 0xFF AND ISZERO PUSH2 0x9F8 JUMPI PUSH1 0x40 MLOAD PUSH32 0x8C379A000000000000000000000000000000000000000000000000000000000 DUP2 MSTORE PUSH1 0x4 ADD PUSH2 0x9EF SWAP1 PUSH2 0x1641 JUMP JUMPDEST PUSH1 0x40 MLOAD DUP1 SWAP2 SUB SWAP1 REVERT JUMPDEST PUSH1 0x3 DUP1 SLOAD SWAP1 POP DUP2 LT PUSH2 0xA3F JUMPI PUSH1 0x40 MLOAD PUSH32 0x8C379A000000000000000000000000000000000000000000000000000000000 DUP2 MSTORE PUSH1 0x4 ADD PUSH2 0xA36 SWAP1 PUSH2 0x16AD JUMP JUMPDEST PUSH1 0x40 MLOAD DUP1 SWAP2 SUB SWAP1 REVERT JUMPDEST PUSH1 0x3 DUP2 DUP2 SLOAD DUP2 LT PUSH2 0xA53 JUMPI PUSH2 0xA52 PUSH2 0x1469 JUMP JUMPDEST JUMPDEST SWAP1 PUSH1 0x0 MSTORE PUSH1 0x20 PUSH1 0x0 KECCAK256 SWAP1 PUSH1 0x4 MUL ADD PUSH1 0x3 ADD PUSH1 0x0 DUP2 SLOAD DUP1 SWAP3 SWAP2 SWAP1 PUSH2 0xA75 SWAP1 PUSH2 0x14C7 JUMP JUMPDEST SWAP2 SWAP1 POP SSTORE POP PUSH1 0x1 PUSH1 0x2 DUP4 PUSH1 0x40 MLOAD PUSH2 0xA8C SWAP2 SWAP1 PUSH2 0x154C JUMP JUMPDEST SWAP1 DUP2 MSTORE PUSH1 0x20 ADD PUSH1 0x40 MLOAD DUP1 SWAP2 SUB SWAP1 KECCAK256 PUSH1 0x2 ADD PUSH1 0x0 PUSH2 0x100 EXP DUP2 SLOAD DUP2 PUSH1 0xFF MUL NOT AND SWAP1 DUP4 ISZERO ISZERO MUL OR SWAP1 SSTORE POP PUSH1 0x3 DUP2 DUP2 SLOAD DUP2 LT PUSH2 0xAC8 JUMPI PUSH2 0xAC7 PUSH2 0x1469 JUMP JUMPDEST JUMPDEST SWAP1 PUSH1 0x0 MSTORE PUSH1 0x20 PUSH1 0x0 KECCAK256 SWAP1 PUSH1 0x4 MUL ADD PUSH1 0x0 ADD PUSH1 0x0 SWAP1 SLOAD SWAP1 PUSH2 0x100 EXP SWAP1 DIV PUSH20 0xFFFFFFFFFFFFFFFFFFFFFFFFFFFFFFFFFFFFFFFF AND PUSH1 0x2 DUP4 PUSH1 0x40 MLOAD PUSH2 0xB0A SWAP2 SWAP1 PUSH2 0x154C JUMP JUMPDEST SWAP1 DUP2 MSTORE PUSH1 0x20 ADD PUSH1 0x40 MLOAD DUP1 SWAP2 SUB SWAP1 KECCAK256 PUSH1 0x2 ADD PUSH1 0x1 PUSH2 0x100 EXP DUP2 SLOAD DUP2 PUSH20 0xFFFFFFFFFFFFFFFFFFFFFFFFFFFFFFFFFFFFFFFF MUL NOT AND SWAP1 DUP4 PUSH20 0xFFFFFFFFFFFFFFFFFFFFFFFFFFFFFFFFFFFFFFFF AND MUL OR SWAP1 SSTORE POP POP POP JUMP JUMPDEST PUSH1 0x3 PUSH1 0x40 MLOAD DUP1 PUSH1 0x80 ADD PUSH1 0x40 MSTORE DUP1 CALLER PUSH20 0xFFFFFFFFFFFFFFFFFFFFFFFFFFFFFFFFFFFFFFFF AND DUP2 MSTORE PUSH1 0x20 ADD DUP5 DUP2 MSTORE PUSH1 0x20 ADD DUP4 DUP2 MSTORE PUSH1 0x20 ADD PUSH1 0x0 DUP2 MSTORE POP SWAP1 DUP1 PUSH1 0x1 DUP2 SLOAD ADD DUP1 DUP3 SSTORE DUP1 SWAP2 POP POP PUSH1 0x1 SWAP1 SUB SWAP1 PUSH1 0x0 MSTORE PUSH1 0x20 PUSH1 0x0 KECCAK256 SWAP1 PUSH1 0x4 MUL ADD PUSH1 0x0 SWAP1 SWAP2 SWAP1 SWAP2 SWAP1 SWAP2 POP PUSH1 0x0 DUP3 ADD MLOAD DUP2 PUSH1 0x0 ADD PUSH1 0x0 PUSH2 0x100 EXP DUP2 SLOAD DUP2 PUSH20 0xFFFFFFFFFFFFFFFFFFFFFFFFFFFFFFFFFFFFFFFF MUL NOT AND SWAP1 DUP4 PUSH20 0xFFFFFFFFFFFFFFFFFFFFFFFFFFFFFFFFFFFFFFFF AND MUL OR SWAP1 SSTORE POP PUSH1 0x20 DUP3 ADD MLOAD DUP2 PUSH1 0x1 ADD SWAP1 DUP1 MLOAD SWAP1 PUSH1 0x20 ADD SWAP1 PUSH2 0xC23 SWAP3 SWAP2 SWAP1 PUSH2 0xC51 JUMP JUMPDEST POP PUSH1 0x40 DUP3 ADD MLOAD DUP2 PUSH1 0x2 ADD SWAP1 DUP1 MLOAD SWAP1 PUSH1 0x20 ADD SWAP1 PUSH2 0xC40 SWAP3 SWAP2 SWAP1 PUSH2 0xC51 JUMP JUMPDEST POP PUSH1 0x60 DUP3 ADD MLOAD DUP2 PUSH1 0x3 ADD SSTORE POP POP POP POP JUMP JUMPDEST DUP3 DUP1 SLOAD PUSH2 0xC5D SWAP1 PUSH2 0x13A5 JUMP JUMPDEST SWAP1 PUSH1 0x0 MSTORE PUSH1 0x20 PUSH1 0x0 KECCAK256 SWAP1 PUSH1 0x1F ADD PUSH1 0x20 SWAP1 DIV DUP2 ADD SWAP3 DUP3 PUSH2 0xC7F JUMPI PUSH1 0x0 DUP6 SSTORE PUSH2 0xCC6 JUMP JUMPDEST DUP3 PUSH1 0x1F LT PUSH2 0xC98 JUMPI DUP1 MLOAD PUSH1 0xFF NOT AND DUP4 DUP1 ADD OR DUP6 SSTORE PUSH2 0xCC6 JUMP JUMPDEST DUP3 DUP1 ADD PUSH1 0x1 ADD DUP6 SSTORE DUP3 ISZERO PUSH2 0xCC6 JUMPI SWAP2 DUP3 ADD JUMPDEST DUP3 DUP2 GT ISZERO PUSH2 0xCC5 JUMPI DUP3 MLOAD DUP3 SSTORE SWAP2 PUSH1 0x20 ADD SWAP2 SWAP1 PUSH1 0x1 ADD SWAP1 PUSH2 0xCAA JUMP JUMPDEST JUMPDEST POP SWAP1 POP PUSH2 0xCD3 SWAP2 SWAP1 PUSH2 0xCD7 JUMP JUMPDEST POP SWAP1 JUMP JUMPDEST JUMPDEST DUP1 DUP3 GT ISZERO PUSH2 0xCF0 JUMPI PUSH1 0x0 DUP2 PUSH1 0x0 SWAP1 SSTORE POP PUSH1 0x1 ADD PUSH2 0xCD8 JUMP JUMPDEST POP SWAP1 JUMP JUMPDEST PUSH1 0x0 PUSH1 0x40 MLOAD SWAP1 POP SWAP1 JUMP JUMPDEST PUSH1 0x0 DUP1 REVERT JUMPDEST PUSH1 0x0 DUP1 REVERT JUMPDEST PUSH1 0x0 DUP2 SWAP1 POP SWAP2 SWAP1 POP JUMP JUMPDEST PUSH2 0xD1B DUP2 PUSH2 0xD08 JUMP JUMPDEST DUP2 EQ PUSH2 0xD26 JUMPI PUSH1 0x0 DUP1 REVERT JUMPDEST POP JUMP JUMPDEST PUSH1 0x0 DUP2 CALLDATALOAD SWAP1 POP PUSH2 0xD38 DUP2 PUSH2 0xD12 JUMP JUMPDEST SWAP3 SWAP2 POP POP JUMP JUMPDEST PUSH1 0x0 PUSH1 0x20 DUP3 DUP5 SUB SLT ISZERO PUSH2 0xD54 JUMPI PUSH2 0xD53 PUSH2 0xCFE JUMP JUMPDEST JUMPDEST PUSH1 0x0 PUSH2 0xD62 DUP5 DUP3 DUP6 ADD PUSH2 0xD29 JUMP JUMPDEST SWAP2 POP POP SWAP3 SWAP2 POP POP JUMP JUMPDEST PUSH1 0x0 PUSH20 0xFFFFFFFFFFFFFFFFFFFFFFFFFFFFFFFFFFFFFFFF DUP3 AND SWAP1 POP SWAP2 SWAP1 POP JUMP JUMPDEST PUSH1 0x0 PUSH2 0xD96 DUP3 PUSH2 0xD6B JUMP JUMPDEST SWAP1 POP SWAP2 SWAP1 POP JUMP JUMPDEST PUSH2 0xDA6 DUP2 PUSH2 0xD8B JUMP JUMPDEST DUP3 MSTORE POP POP JUMP JUMPDEST PUSH1 0x0 DUP2 MLOAD SWAP1 POP SWAP2 SWAP1 POP JUMP JUMPDEST PUSH1 0x0 DUP3 DUP3 MSTORE PUSH1 0x20 DUP3 ADD SWAP1 POP SWAP3 SWAP2 POP POP JUMP JUMPDEST PUSH1 0x0 JUMPDEST DUP4 DUP2 LT ISZERO PUSH2 0xDE6 JUMPI DUP1 DUP3 ADD MLOAD DUP2 DUP5 ADD MSTORE PUSH1 0x20 DUP2 ADD SWAP1 POP PUSH2 0xDCB JUMP JUMPDEST DUP4 DUP2 GT ISZERO PUSH2 0xDF5 JUMPI PUSH1 0x0 DUP5 DUP5 ADD MSTORE JUMPDEST POP POP POP POP JUMP JUMPDEST PUSH1 0x0 PUSH1 0x1F NOT PUSH1 0x1F DUP4 ADD AND SWAP1 POP SWAP2 SWAP1 POP JUMP JUMPDEST PUSH1 0x0 PUSH2 0xE17 DUP3 PUSH2 0xDAC JUMP JUMPDEST PUSH2 0xE21 DUP2 DUP6 PUSH2 0xDB7 JUMP JUMPDEST SWAP4 POP PUSH2 0xE31 DUP2 DUP6 PUSH1 0x20 DUP7 ADD PUSH2 0xDC8 JUMP JUMPDEST PUSH2 0xE3A DUP2 PUSH2 0xDFB JUMP JUMPDEST DUP5 ADD SWAP2 POP POP SWAP3 SWAP2 POP POP JUMP JUMPDEST PUSH2 0xE4E DUP2 PUSH2 0xD08 JUMP JUMPDEST DUP3 MSTORE POP POP JUMP JUMPDEST PUSH1 0x0 PUSH1 0x80 DUP3 ADD SWAP1 POP PUSH2 0xE69 PUSH1 0x0 DUP4 ADD DUP8 PUSH2 0xD9D JUMP JUMPDEST DUP2 DUP2 SUB PUSH1 0x20 DUP4 ADD MSTORE PUSH2 0xE7B DUP2 DUP7 PUSH2 0xE0C JUMP JUMPDEST SWAP1 POP DUP2 DUP2 SUB PUSH1 0x40 DUP4 ADD MSTORE PUSH2 0xE8F DUP2 DUP6 PUSH2 0xE0C JUMP JUMPDEST SWAP1 POP PUSH2 0xE9E PUSH1 0x60 DUP4 ADD DUP5 PUSH2 0xE45 JUMP JUMPDEST SWAP6 SWAP5 POP POP POP POP POP JUMP JUMPDEST PUSH1 0x0 PUSH1 0x20 DUP3 ADD SWAP1 POP DUP2 DUP2 SUB PUSH1 0x0 DUP4 ADD MSTORE PUSH2 0xEC1 DUP2 DUP5 PUSH2 0xE0C JUMP JUMPDEST SWAP1 POP SWAP3 SWAP2 POP POP JUMP JUMPDEST PUSH1 0x0 DUP1 REVERT JUMPDEST PUSH1 0x0 DUP1 REVERT JUMPDEST PUSH32 0x4E487B7100000000000000000000000000000000000000000000000000000000 PUSH1 0x0 MSTORE PUSH1 0x41 PUSH1 0x4 MSTORE PUSH1 0x24 PUSH1 0x0 REVERT JUMPDEST PUSH2 0xF0B DUP3 PUSH2 0xDFB JUMP JUMPDEST DUP2 ADD DUP2 DUP2 LT PUSH8 0xFFFFFFFFFFFFFFFF DUP3 GT OR ISZERO PUSH2 0xF2A JUMPI PUSH2 0xF29 PUSH2 0xED3 JUMP JUMPDEST JUMPDEST DUP1 PUSH1 0x40 MSTORE POP POP POP JUMP JUMPDEST PUSH1 0x0 PUSH2 0xF3D PUSH2 0xCF4 JUMP JUMPDEST SWAP1 POP PUSH2 0xF49 DUP3 DUP3 PUSH2 0xF02 JUMP JUMPDEST SWAP2 SWAP1 POP JUMP JUMPDEST PUSH1 0x0 PUSH8 0xFFFFFFFFFFFFFFFF DUP3 GT ISZERO PUSH2 0xF69 JUMPI PUSH2 0xF68 PUSH2 0xED3 JUMP JUMPDEST JUMPDEST PUSH2 0xF72 DUP3 PUSH2 0xDFB JUMP JUMPDEST SWAP1 POP PUSH1 0x20 DUP2 ADD SWAP1 POP SWAP2 SWAP1 POP JUMP JUMPDEST DUP3 DUP2 DUP4 CALLDATACOPY PUSH1 0x0 DUP4 DUP4 ADD MSTORE POP POP POP JUMP JUMPDEST PUSH1 0x0 PUSH2 0xFA1 PUSH2 0xF9C DUP5 PUSH2 0xF4E JUMP JUMPDEST PUSH2 0xF33 JUMP JUMPDEST SWAP1 POP DUP3 DUP2 MSTORE PUSH1 0x20 DUP2 ADD DUP5 DUP5 DUP5 ADD GT ISZERO PUSH2 0xFBD JUMPI PUSH2 0xFBC PUSH2 0xECE JUMP JUMPDEST JUMPDEST PUSH2 0xFC8 DUP5 DUP3 DUP6 PUSH2 0xF7F JUMP JUMPDEST POP SWAP4 SWAP3 POP POP POP JUMP JUMPDEST PUSH1 0x0 DUP3 PUSH1 0x1F DUP4 ADD SLT PUSH2 0xFE5 JUMPI PUSH2 0xFE4 PUSH2 0xEC9 JUMP JUMPDEST JUMPDEST DUP2 CALLDATALOAD PUSH2 0xFF5 DUP5 DUP3 PUSH1 0x20 DUP7 ADD PUSH2 0xF8E JUMP JUMPDEST SWAP2 POP POP SWAP3 SWAP2 POP POP JUMP JUMPDEST PUSH1 0x0 PUSH1 0x20 DUP3 DUP5 SUB SLT ISZERO PUSH2 0x1014 JUMPI PUSH2 0x1013 PUSH2 0xCFE JUMP JUMPDEST JUMPDEST PUSH1 0x0 DUP3 ADD CALLDATALOAD PUSH8 0xFFFFFFFFFFFFFFFF DUP2 GT ISZERO PUSH2 0x1032 JUMPI PUSH2 0x1031 PUSH2 0xD03 JUMP JUMPDEST JUMPDEST PUSH2 0x103E DUP5 DUP3 DUP6 ADD PUSH2 0xFD0 JUMP JUMPDEST SWAP2 POP POP SWAP3 SWAP2 POP POP JUMP JUMPDEST PUSH1 0x0 DUP2 ISZERO ISZERO SWAP1 POP SWAP2 SWAP1 POP JUMP JUMPDEST PUSH2 0x105C DUP2 PUSH2 0x1047 JUMP JUMPDEST DUP3 MSTORE POP POP JUMP JUMPDEST PUSH1 0x0 PUSH1 0x80 DUP3 ADD SWAP1 POP DUP2 DUP2 SUB PUSH1 0x0 DUP4 ADD MSTORE PUSH2 0x107C DUP2 DUP8 PUSH2 0xE0C JUMP JUMPDEST SWAP1 POP PUSH2 0x108B PUSH1 0x20 DUP4 ADD DUP7 PUSH2 0xE45 JUMP JUMPDEST PUSH2 0x1098 PUSH1 0x40 DUP4 ADD DUP6 PUSH2 0x1053 JUMP JUMPDEST PUSH2 0x10A5 PUSH1 0x60 DUP4 ADD DUP5 PUSH2 0xD9D JUMP JUMPDEST SWAP6 SWAP5 POP POP POP POP POP JUMP JUMPDEST PUSH1 0x0 DUP2 MLOAD SWAP1 POP SWAP2 SWAP1 POP JUMP JUMPDEST PUSH1 0x0 DUP3 DUP3 MSTORE PUSH1 0x20 DUP3 ADD SWAP1 POP SWAP3 SWAP2 POP POP JUMP JUMPDEST PUSH1 0x0 DUP2 SWAP1 POP PUSH1 0x20 DUP3 ADD SWAP1 POP SWAP2 SWAP1 POP JUMP JUMPDEST PUSH2 0x10E3 DUP2 PUSH2 0xD8B JUMP JUMPDEST DUP3 MSTORE POP POP JUMP JUMPDEST PUSH1 0x0 DUP3 DUP3 MSTORE PUSH1 0x20 DUP3 ADD SWAP1 POP SWAP3 SWAP2 POP POP JUMP JUMPDEST PUSH1 0x0 PUSH2 0x1105 DUP3 PUSH2 0xDAC JUMP JUMPDEST PUSH2 0x110F DUP2 DUP6 PUSH2 0x10E9 JUMP JUMPDEST SWAP4 POP PUSH2 0x111F DUP2 DUP6 PUSH1 0x20 DUP7 ADD PUSH2 0xDC8 JUMP JUMPDEST PUSH2 0x1128 DUP2 PUSH2 0xDFB JUMP JUMPDEST DUP5 ADD SWAP2 POP POP SWAP3 SWAP2 POP POP JUMP JUMPDEST PUSH2 0x113C DUP2 PUSH2 0xD08 JUMP JUMPDEST DUP3 MSTORE POP POP JUMP JUMPDEST PUSH1 0x0 PUSH1 0x80 DUP4 ADD PUSH1 0x0 DUP4 ADD MLOAD PUSH2 0x115A PUSH1 0x0 DUP7 ADD DUP3 PUSH2 0x10DA JUMP JUMPDEST POP PUSH1 0x20 DUP4 ADD MLOAD DUP5 DUP3 SUB PUSH1 0x20 DUP7 ADD MSTORE PUSH2 0x1172 DUP3 DUP3 PUSH2 0x10FA JUMP JUMPDEST SWAP2 POP POP PUSH1 0x40 DUP4 ADD MLOAD DUP5 DUP3 SUB PUSH1 0x40 DUP7 ADD MSTORE PUSH2 0x118C DUP3 DUP3 PUSH2 0x10FA JUMP JUMPDEST SWAP2 POP POP PUSH1 0x60 DUP4 ADD MLOAD PUSH2 0x11A1 PUSH1 0x60 DUP7 ADD DUP3 PUSH2 0x1133 JUMP JUMPDEST POP DUP1 SWAP2 POP POP SWAP3 SWAP2 POP POP JUMP JUMPDEST PUSH1 0x0 PUSH2 0x11B8 DUP4 DUP4 PUSH2 0x1142 JUMP JUMPDEST SWAP1 POP SWAP3 SWAP2 POP POP JUMP JUMPDEST PUSH1 0x0 PUSH1 0x20 DUP3 ADD SWAP1 POP SWAP2 SWAP1 POP JUMP JUMPDEST PUSH1 0x0 PUSH2 0x11D8 DUP3 PUSH2 0x10AE JUMP JUMPDEST PUSH2 0x11E2 DUP2 DUP6 PUSH2 0x10B9 JUMP JUMPDEST SWAP4 POP DUP4 PUSH1 0x20 DUP3 MUL DUP6 ADD PUSH2 0x11F4 DUP6 PUSH2 0x10CA JUMP JUMPDEST DUP1 PUSH1 0x0 JUMPDEST DUP6 DUP2 LT ISZERO PUSH2 0x1230 JUMPI DUP5 DUP5 SUB DUP10 MSTORE DUP2 MLOAD PUSH2 0x1211 DUP6 DUP3 PUSH2 0x11AC JUMP JUMPDEST SWAP5 POP PUSH2 0x121C DUP4 PUSH2 0x11C0 JUMP JUMPDEST SWAP3 POP PUSH1 0x20 DUP11 ADD SWAP10 POP POP PUSH1 0x1 DUP2 ADD SWAP1 POP PUSH2 0x11F8 JUMP JUMPDEST POP DUP3 SWAP8 POP DUP8 SWAP6 POP POP POP POP POP POP SWAP3 SWAP2 POP POP JUMP JUMPDEST PUSH1 0x0 PUSH1 0x60 DUP3 ADD SWAP1 POP PUSH2 0x1257 PUSH1 0x0 DUP4 ADD DUP7 PUSH2 0xD9D JUMP JUMPDEST DUP2 DUP2 SUB PUSH1 0x20 DUP4 ADD MSTORE PUSH2 0x1269 DUP2 DUP6 PUSH2 0xE0C JUMP JUMPDEST SWAP1 POP DUP2 DUP2 SUB PUSH1 0x40 DUP4 ADD MSTORE PUSH2 0x127D DUP2 DUP5 PUSH2 0x11CD JUMP JUMPDEST SWAP1 POP SWAP5 SWAP4 POP POP POP POP JUMP JUMPDEST PUSH1 0x0 PUSH1 0x20 DUP3 ADD SWAP1 POP PUSH2 0x129C PUSH1 0x0 DUP4 ADD DUP5 PUSH2 0xD9D JUMP JUMPDEST SWAP3 SWAP2 POP POP JUMP JUMPDEST PUSH1 0x0 DUP1 PUSH1 0x40 DUP4 DUP6 SUB SLT ISZERO PUSH2 0x12B9 JUMPI PUSH2 0x12B8 PUSH2 0xCFE JUMP JUMPDEST JUMPDEST PUSH1 0x0 DUP4 ADD CALLDATALOAD PUSH8 0xFFFFFFFFFFFFFFFF DUP2 GT ISZERO PUSH2 0x12D7 JUMPI PUSH2 0x12D6 PUSH2 0xD03 JUMP JUMPDEST JUMPDEST PUSH2 0x12E3 DUP6 DUP3 DUP7 ADD PUSH2 0xFD0 JUMP JUMPDEST SWAP3 POP POP PUSH1 0x20 PUSH2 0x12F4 DUP6 DUP3 DUP7 ADD PUSH2 0xD29 JUMP JUMPDEST SWAP2 POP POP SWAP3 POP SWAP3 SWAP1 POP JUMP JUMPDEST PUSH1 0x0 DUP1 PUSH1 0x40 DUP4 DUP6 SUB SLT ISZERO PUSH2 0x1315 JUMPI PUSH2 0x1314 PUSH2 0xCFE JUMP JUMPDEST JUMPDEST PUSH1 0x0 DUP4 ADD CALLDATALOAD PUSH8 0xFFFFFFFFFFFFFFFF DUP2 GT ISZERO PUSH2 0x1333 JUMPI PUSH2 0x1332 PUSH2 0xD03 JUMP JUMPDEST JUMPDEST PUSH2 0x133F DUP6 DUP3 DUP7 ADD PUSH2 0xFD0 JUMP JUMPDEST SWAP3 POP POP PUSH1 0x20 DUP4 ADD CALLDATALOAD PUSH8 0xFFFFFFFFFFFFFFFF DUP2 GT ISZERO PUSH2 0x1360 JUMPI PUSH2 0x135F PUSH2 0xD03 JUMP JUMPDEST JUMPDEST PUSH2 0x136C DUP6 DUP3 DUP7 ADD PUSH2 0xFD0 JUMP JUMPDEST SWAP2 POP POP SWAP3 POP SWAP3 SWAP1 POP JUMP JUMPDEST PUSH32 0x4E487B7100000000000000000000000000000000000000000000000000000000 PUSH1 0x0 MSTORE PUSH1 0x22 PUSH1 0x4 MSTORE PUSH1 0x24 PUSH1 0x0 REVERT JUMPDEST PUSH1 0x0 PUSH1 0x2 DUP3 DIV SWAP1 POP PUSH1 0x1 DUP3 AND DUP1 PUSH2 0x13BD JUMPI PUSH1 0x7F DUP3 AND SWAP2 POP JUMPDEST PUSH1 0x20 DUP3 LT DUP2 EQ ISZERO PUSH2 0x13D1 JUMPI PUSH2 0x13D0 PUSH2 0x1376 JUMP JUMPDEST JUMPDEST POP SWAP2 SWAP1 POP JUMP JUMPDEST PUSH32 0x4F6E6C79206D616E616765722063616E2063616C6C20746869732066756E6374 PUSH1 0x0 DUP3 ADD MSTORE PUSH32 0x696F6E0000000000000000000000000000000000000000000000000000000000 PUSH1 0x20 DUP3 ADD MSTORE POP JUMP JUMPDEST PUSH1 0x0 PUSH2 0x1433 PUSH1 0x23 DUP4 PUSH2 0xDB7 JUMP JUMPDEST SWAP2 POP PUSH2 0x143E DUP3 PUSH2 0x13D7 JUMP JUMPDEST PUSH1 0x40 DUP3 ADD SWAP1 POP SWAP2 SWAP1 POP JUMP JUMPDEST PUSH1 0x0 PUSH1 0x20 DUP3 ADD SWAP1 POP DUP2 DUP2 SUB PUSH1 0x0 DUP4 ADD MSTORE PUSH2 0x1462 DUP2 PUSH2 0x1426 JUMP JUMPDEST SWAP1 POP SWAP2 SWAP1 POP JUMP JUMPDEST PUSH32 0x4E487B7100000000000000000000000000000000000000000000000000000000 PUSH1 0x0 MSTORE PUSH1 0x32 PUSH1 0x4 MSTORE PUSH1 0x24 PUSH1 0x0 REVERT JUMPDEST PUSH32 0x4E487B7100000000000000000000000000000000000000000000000000000000 PUSH1 0x0 MSTORE PUSH1 0x11 PUSH1 0x4 MSTORE PUSH1 0x24 PUSH1 0x0 REVERT JUMPDEST PUSH1 0x0 PUSH2 0x14D2 DUP3 PUSH2 0xD08 JUMP JUMPDEST SWAP2 POP PUSH32 0xFFFFFFFFFFFFFFFFFFFFFFFFFFFFFFFFFFFFFFFFFFFFFFFFFFFFFFFFFFFFFFFF DUP3 EQ ISZERO PUSH2 0x1505 JUMPI PUSH2 0x1504 PUSH2 0x1498 JUMP JUMPDEST JUMPDEST PUSH1 0x1 DUP3 ADD SWAP1 POP SWAP2 SWAP1 POP JUMP JUMPDEST PUSH1 0x0 DUP2 SWAP1 POP SWAP3 SWAP2 POP POP JUMP JUMPDEST PUSH1 0x0 PUSH2 0x1526 DUP3 PUSH2 0xDAC JUMP JUMPDEST PUSH2 0x1530 DUP2 DUP6 PUSH2 0x1510 JUMP JUMPDEST SWAP4 POP PUSH2 0x1540 DUP2 DUP6 PUSH1 0x20 DUP7 ADD PUSH2 0xDC8 JUMP JUMPDEST DUP1 DUP5 ADD SWAP2 POP POP SWAP3 SWAP2 POP POP JUMP JUMPDEST PUSH1 0x0 PUSH2 0x1558 DUP3 DUP5 PUSH2 0x151B JUMP JUMPDEST SWAP2 POP DUP2 SWAP1 POP SWAP3 SWAP2 POP POP JUMP JUMPDEST PUSH32 0x596F7520617265206E6F7420656C696769626C6520746F20766F746520666F72 PUSH1 0x0 DUP3 ADD MSTORE PUSH32 0x207468697320656C656374696F6E000000000000000000000000000000000000 PUSH1 0x20 DUP3 ADD MSTORE POP JUMP JUMPDEST PUSH1 0x0 PUSH2 0x15BF PUSH1 0x2E DUP4 PUSH2 0xDB7 JUMP JUMPDEST SWAP2 POP PUSH2 0x15CA DUP3 PUSH2 0x1563 JUMP JUMPDEST PUSH1 0x40 DUP3 ADD SWAP1 POP SWAP2 SWAP1 POP JUMP JUMPDEST PUSH1 0x0 PUSH1 0x20 DUP3 ADD SWAP1 POP DUP2 DUP2 SUB PUSH1 0x0 DUP4 ADD MSTORE PUSH2 0x15EE DUP2 PUSH2 0x15B2 JUMP JUMPDEST SWAP1 POP SWAP2 SWAP1 POP JUMP JUMPDEST PUSH32 0x566F746520616C72656164792063617374656400000000000000000000000000 PUSH1 0x0 DUP3 ADD MSTORE POP JUMP JUMPDEST PUSH1 0x0 PUSH2 0x162B PUSH1 0x13 DUP4 PUSH2 0xDB7 JUMP JUMPDEST SWAP2 POP PUSH2 0x1636 DUP3 PUSH2 0x15F5 JUMP JUMPDEST PUSH1 0x20 DUP3 ADD SWAP1 POP SWAP2 SWAP1 POP JUMP JUMPDEST PUSH1 0x0 PUSH1 0x20 DUP3 ADD SWAP1 POP DUP2 DUP2 SUB PUSH1 0x0 DUP4 ADD MSTORE PUSH2 0x165A DUP2 PUSH2 0x161E JUMP JUMPDEST SWAP1 POP SWAP2 SWAP1 POP JUMP JUMPDEST PUSH32 0x496E76616C69642063616E646964617465000000000000000000000000000000 PUSH1 0x0 DUP3 ADD MSTORE POP JUMP JUMPDEST PUSH1 0x0 PUSH2 0x1697 PUSH1 0x11 DUP4 PUSH2 0xDB7 JUMP JUMPDEST SWAP2 POP PUSH2 0x16A2 DUP3 PUSH2 0x1661 JUMP JUMPDEST PUSH1 0x20 DUP3 ADD SWAP1 POP SWAP2 SWAP1 POP JUMP JUMPDEST PUSH1 0x0 PUSH1 0x20 DUP3 ADD SWAP1 POP DUP2 DUP2 SUB PUSH1 0x0 DUP4 ADD MSTORE PUSH2 0x16C6 DUP2 PUSH2 0x168A JUMP JUMPDEST SWAP1 POP SWAP2 SWAP1 POP JUMP INVALID LOG2 PUSH5 0x6970667358 0x22 SLT KECCAK256 0xB4 0xCC PUSH7 0x9764C8B5914EAB 0xA5 RETURNDATASIZE LOG2 RETURNDATASIZE SWAP12 PUSH11 0x79ED0ACC2F836F439EABBB 0xB9 0xBD 0xB8 PUSH32 0x9F64736F6C634300080A0033A2646970667358221220F4EDA64B26CD07D6B0D2 0xA7 PC 0x4B 0xAA 0xCB CALLDATASIZE PUSH14 0xC1759C7D53F279CDD232081059D9 0xC3 PUSH5 0x736F6C6343 STOP ADDMOD EXP STOP CALLER "},"gasEstimates":{"creation":{"codeDepositCost":"1993200","executionCost":"2113","totalCost":"1995313"},"external":{"createElection(string[],string)":"infinite","getElection()":"infinite"}},"methodIdentifiers":{"createElection(string[],string)":"67dc64c5","getElection()":"eceed339"}},"storageLayout":{"storage":[{"astId":4,"contract":"Devote.sol:Devote","label":"elections","offset":0,"slot":"0","type":"t_array(t_address)dyn_storage"}],"types":{"t_address":{"encoding":"inplace","label":"address","numberOfBytes":"20"},"t_array(t_address)dyn_storage":{"base":"t_address","encoding":"dynamic_array","label":"address[]","numberOfBytes":"32"}}},"userdoc":{"kind":"user","methods":{},"version":1}}